{
  "address": "0x8Ae48D6c0EB34569169AFabbfA54A8149446Cf8E",
  "abi": [
    {
      "inputs": [
        {
          "internalType": "contract SimpleERC20",
          "name": "_sushi",
          "type": "address"
        },
        {
          "internalType": "address",
          "name": "_devaddr",
          "type": "address"
        },
        {
          "internalType": "uint256",
          "name": "_sushiPerBlock",
          "type": "uint256"
        },
        {
          "internalType": "uint256",
          "name": "_startBlock",
          "type": "uint256"
        },
        {
          "internalType": "uint256",
          "name": "_bonusEndBlock",
          "type": "uint256"
        }
      ],
      "stateMutability": "nonpayable",
      "type": "constructor"
    },
    {
      "anonymous": false,
      "inputs": [
        {
          "indexed": true,
          "internalType": "address",
          "name": "user",
          "type": "address"
        },
        {
          "indexed": true,
          "internalType": "uint256",
          "name": "pid",
          "type": "uint256"
        },
        {
          "indexed": false,
          "internalType": "uint256",
          "name": "amount",
          "type": "uint256"
        }
      ],
      "name": "Deposit",
      "type": "event"
    },
    {
      "anonymous": false,
      "inputs": [
        {
          "indexed": true,
          "internalType": "address",
          "name": "user",
          "type": "address"
        },
        {
          "indexed": true,
          "internalType": "uint256",
          "name": "pid",
          "type": "uint256"
        },
        {
          "indexed": false,
          "internalType": "uint256",
          "name": "amount",
          "type": "uint256"
        }
      ],
      "name": "EmergencyWithdraw",
      "type": "event"
    },
    {
      "anonymous": false,
      "inputs": [
        {
          "indexed": true,
          "internalType": "address",
          "name": "previousOwner",
          "type": "address"
        },
        {
          "indexed": true,
          "internalType": "address",
          "name": "newOwner",
          "type": "address"
        }
      ],
      "name": "OwnershipTransferred",
      "type": "event"
    },
    {
      "anonymous": false,
      "inputs": [
        {
          "indexed": true,
          "internalType": "address",
          "name": "user",
          "type": "address"
        },
        {
          "indexed": true,
          "internalType": "uint256",
          "name": "pid",
          "type": "uint256"
        },
        {
          "indexed": false,
          "internalType": "uint256",
          "name": "amount",
          "type": "uint256"
        }
      ],
      "name": "Withdraw",
      "type": "event"
    },
    {
      "inputs": [],
      "name": "BONUS_MULTIPLIER",
      "outputs": [
        {
          "internalType": "uint256",
          "name": "",
          "type": "uint256"
        }
      ],
      "stateMutability": "view",
      "type": "function"
    },
    {
      "inputs": [
        {
          "internalType": "uint256",
          "name": "_allocPoint",
          "type": "uint256"
        },
        {
          "internalType": "contract IERC20",
          "name": "_lpToken",
          "type": "address"
        },
        {
          "internalType": "bool",
          "name": "_withUpdate",
          "type": "bool"
        }
      ],
      "name": "add",
      "outputs": [],
      "stateMutability": "nonpayable",
      "type": "function"
    },
    {
      "inputs": [],
      "name": "bonusEndBlock",
      "outputs": [
        {
          "internalType": "uint256",
          "name": "",
          "type": "uint256"
        }
      ],
      "stateMutability": "view",
      "type": "function"
    },
    {
      "inputs": [
        {
          "internalType": "uint256",
          "name": "_pid",
          "type": "uint256"
        },
        {
          "internalType": "uint256",
          "name": "_amount",
          "type": "uint256"
        }
      ],
      "name": "deposit",
      "outputs": [],
      "stateMutability": "nonpayable",
      "type": "function"
    },
    {
      "inputs": [
        {
          "internalType": "address",
          "name": "_devaddr",
          "type": "address"
        }
      ],
      "name": "dev",
      "outputs": [],
      "stateMutability": "nonpayable",
      "type": "function"
    },
    {
      "inputs": [],
      "name": "devaddr",
      "outputs": [
        {
          "internalType": "address",
          "name": "",
          "type": "address"
        }
      ],
      "stateMutability": "view",
      "type": "function"
    },
    {
      "inputs": [
        {
          "internalType": "uint256",
          "name": "_pid",
          "type": "uint256"
        }
      ],
      "name": "emergencyWithdraw",
      "outputs": [],
      "stateMutability": "nonpayable",
      "type": "function"
    },
    {
      "inputs": [
        {
          "internalType": "uint256",
          "name": "_from",
          "type": "uint256"
        },
        {
          "internalType": "uint256",
          "name": "_to",
          "type": "uint256"
        }
      ],
      "name": "getMultiplier",
      "outputs": [
        {
          "internalType": "uint256",
          "name": "",
          "type": "uint256"
        }
      ],
      "stateMutability": "view",
      "type": "function"
    },
    {
      "inputs": [],
      "name": "massUpdatePools",
      "outputs": [],
      "stateMutability": "nonpayable",
      "type": "function"
    },
    {
      "inputs": [
        {
          "internalType": "uint256",
          "name": "_pid",
          "type": "uint256"
        }
      ],
      "name": "migrate",
      "outputs": [],
      "stateMutability": "nonpayable",
      "type": "function"
    },
    {
      "inputs": [],
      "name": "migrator",
      "outputs": [
        {
          "internalType": "contract IMigratorChef",
          "name": "",
          "type": "address"
        }
      ],
      "stateMutability": "view",
      "type": "function"
    },
    {
      "inputs": [],
      "name": "owner",
      "outputs": [
        {
          "internalType": "address",
          "name": "",
          "type": "address"
        }
      ],
      "stateMutability": "view",
      "type": "function"
    },
    {
      "inputs": [
        {
          "internalType": "uint256",
          "name": "_pid",
          "type": "uint256"
        },
        {
          "internalType": "address",
          "name": "_user",
          "type": "address"
        }
      ],
      "name": "pendingReward",
      "outputs": [
        {
          "internalType": "uint256",
          "name": "",
          "type": "uint256"
        }
      ],
      "stateMutability": "view",
      "type": "function"
    },
    {
      "inputs": [
        {
          "internalType": "uint256",
          "name": "",
          "type": "uint256"
        }
      ],
      "name": "poolInfo",
      "outputs": [
        {
          "internalType": "contract IERC20",
          "name": "lpToken",
          "type": "address"
        },
        {
          "internalType": "uint256",
          "name": "allocPoint",
          "type": "uint256"
        },
        {
          "internalType": "uint256",
          "name": "lastRewardBlock",
          "type": "uint256"
        },
        {
          "internalType": "uint256",
          "name": "accSushiPerShare",
          "type": "uint256"
        }
      ],
      "stateMutability": "view",
      "type": "function"
    },
    {
      "inputs": [],
      "name": "poolLength",
      "outputs": [
        {
          "internalType": "uint256",
          "name": "",
          "type": "uint256"
        }
      ],
      "stateMutability": "view",
      "type": "function"
    },
    {
      "inputs": [],
      "name": "renounceOwnership",
      "outputs": [],
      "stateMutability": "nonpayable",
      "type": "function"
    },
    {
      "inputs": [],
      "name": "rewardToken",
      "outputs": [
        {
          "internalType": "address",
          "name": "",
          "type": "address"
        }
      ],
      "stateMutability": "view",
      "type": "function"
    },
    {
      "inputs": [
        {
          "internalType": "uint256",
          "name": "_pid",
          "type": "uint256"
        },
        {
          "internalType": "uint256",
          "name": "_allocPoint",
          "type": "uint256"
        },
        {
          "internalType": "bool",
          "name": "_withUpdate",
          "type": "bool"
        }
      ],
      "name": "set",
      "outputs": [],
      "stateMutability": "nonpayable",
      "type": "function"
    },
    {
      "inputs": [
        {
          "internalType": "contract IMigratorChef",
          "name": "_migrator",
          "type": "address"
        }
      ],
      "name": "setMigrator",
      "outputs": [],
      "stateMutability": "nonpayable",
      "type": "function"
    },
    {
      "inputs": [],
      "name": "startBlock",
      "outputs": [
        {
          "internalType": "uint256",
          "name": "",
          "type": "uint256"
        }
      ],
      "stateMutability": "view",
      "type": "function"
    },
    {
      "inputs": [],
      "name": "sushi",
      "outputs": [
        {
          "internalType": "contract SimpleERC20",
          "name": "",
          "type": "address"
        }
      ],
      "stateMutability": "view",
      "type": "function"
    },
    {
      "inputs": [],
      "name": "sushiPerBlock",
      "outputs": [
        {
          "internalType": "uint256",
          "name": "",
          "type": "uint256"
        }
      ],
      "stateMutability": "view",
      "type": "function"
    },
    {
      "inputs": [],
      "name": "totalAllocPoint",
      "outputs": [
        {
          "internalType": "uint256",
          "name": "",
          "type": "uint256"
        }
      ],
      "stateMutability": "view",
      "type": "function"
    },
    {
      "inputs": [
        {
          "internalType": "address",
          "name": "newOwner",
          "type": "address"
        }
      ],
      "name": "transferOwnership",
      "outputs": [],
      "stateMutability": "nonpayable",
      "type": "function"
    },
    {
      "inputs": [
        {
          "internalType": "uint256",
          "name": "_pid",
          "type": "uint256"
        }
      ],
      "name": "updatePool",
      "outputs": [],
      "stateMutability": "nonpayable",
      "type": "function"
    },
    {
      "inputs": [
        {
          "internalType": "uint256",
          "name": "",
          "type": "uint256"
        },
        {
          "internalType": "address",
          "name": "",
          "type": "address"
        }
      ],
      "name": "userInfo",
      "outputs": [
        {
          "internalType": "uint256",
          "name": "amount",
          "type": "uint256"
        },
        {
          "internalType": "uint256",
          "name": "rewardDebt",
          "type": "uint256"
        }
      ],
      "stateMutability": "view",
      "type": "function"
    },
    {
      "inputs": [
        {
          "internalType": "uint256",
          "name": "_pid",
          "type": "uint256"
        },
        {
          "internalType": "uint256",
          "name": "_amount",
          "type": "uint256"
        }
      ],
      "name": "withdraw",
      "outputs": [],
      "stateMutability": "nonpayable",
      "type": "function"
    }
  ],
  "transactionHash": "0x710719a3bb2093b4207f16b65cfe197e0ae8fbbdff815e0a025cbc51a032b04c",
  "args": [
    "0xcB6F356Fb0B7bb57daa6aC96B40C667455Bf35A2",
    "0x46bEC8B77d117fDC69b0681c3697a81B43585C8b",
    1,
    0,
    100000000000000
  ],
  "numDeployments": 1,
  "solcInputHash": "e41972cc62bed10204dc364dbb3bc1fa",
  "bytecode": "0x608060405260006008553480156200001657600080fd5b5060405162001bf538038062001bf58339810160408190526200003991620000d3565b620000443362000083565b600180546001600160a01b039687166001600160a01b031991821617909155600280549590961694169390931790935560045560035560095562000143565b600080546001600160a01b038381166001600160a01b0319831681178455604051919092169283917f8be0079c531659141344cd1fd0a4f28419497f9722a3daafe3b4186f6b6457e09190a35050565b600080600080600060a08688031215620000eb578081fd5b8551620000f8816200012a565b60208701519095506200010b816200012a565b6040870151606088015160809098015196999198509695945092505050565b6001600160a01b03811681146200014057600080fd5b50565b611aa280620001536000396000f3fe608060405234801561001057600080fd5b50600436106101a95760003560e01c806364482f79116100f957806393f1a40b11610097578063d49e77cd11610071578063d49e77cd14610394578063e2bbb158146103a7578063f2fde38b146103ba578063f7c618c1146103cd57600080fd5b806393f1a40b1461033157806398969e8214610378578063b0bcf42a1461038b57600080fd5b80638aa28550116100d35780638aa28550146102f25780638d88a90e146102fa5780638da5cb5b1461030d5780638dbb1e3a1461031e57600080fd5b806364482f79146102c4578063715018a6146102d75780637cd07e47146102df57600080fd5b806323cf31181161016657806348cd4cb11161014057806348cd4cb11461028d57806351eb05a6146102965780635312ea8e146102a9578063630b5ba1146102bc57600080fd5b806323cf311814610254578063441a3e7014610267578063454b06081461027a57600080fd5b8063081e3eda146101ae5780630a087903146101c55780631526fe27146101f057806317caf6f11461022d5780631aed6553146102365780631eaaa0451461023f575b600080fd5b6006545b6040519081526020015b60405180910390f35b6001546101d8906001600160a01b031681565b6040516001600160a01b0390911681526020016101bc565b6102036101fe36600461180c565b6103de565b604080516001600160a01b03909516855260208501939093529183015260608201526080016101bc565b6101b260085481565b6101b260035481565b61025261024d36600461186b565b610422565b005b6102526102623660046117b8565b610578565b6102526102753660046118ac565b6105c4565b61025261028836600461180c565b610726565b6101b260095481565b6102526102a436600461180c565b61099c565b6102526102b736600461180c565b610c09565b610252610cb9565b6102526102d23660046118cd565b610ce4565b610252610daf565b6005546101d8906001600160a01b031681565b6101b2600a81565b6102526103083660046117b8565b610de5565b6000546001600160a01b03166101d8565b6101b261032c3660046118ac565b610e4d565b61036361033f36600461183c565b60076020908152600092835260408084209091529082529020805460019091015482565b604080519283526020830191909152016101bc565b6101b261038636600461183c565b610eb9565b6101b260045481565b6002546101d8906001600160a01b031681565b6102526103b53660046118ac565b611033565b6102526103c83660046117b8565b61114c565b6001546001600160a01b03166101d8565b600681815481106103ee57600080fd5b600091825260209091206004909102018054600182015460028301546003909301546001600160a01b039092169350919084565b6000546001600160a01b031633146104555760405162461bcd60e51b815260040161044c90611949565b60405180910390fd5b801561046357610463610cb9565b6000600954431161047657600954610478565b435b60085490915061048890856111e7565b600855604080516080810182526001600160a01b0394851681526020810195865290810191825260006060820181815260068054600181018255925291517ff652222313e28459528d920b65115c16c04f3efc82aaedc97be59f3f377c0d3f600490920291820180546001600160a01b031916919096161790945593517ff652222313e28459528d920b65115c16c04f3efc82aaedc97be59f3f377c0d40840155517ff652222313e28459528d920b65115c16c04f3efc82aaedc97be59f3f377c0d418301555090517ff652222313e28459528d920b65115c16c04f3efc82aaedc97be59f3f377c0d4290910155565b6000546001600160a01b031633146105a25760405162461bcd60e51b815260040161044c90611949565b600580546001600160a01b0319166001600160a01b0392909216919091179055565b6000600683815481106105e757634e487b7160e01b600052603260045260246000fd5b6000918252602080832086845260078252604080852033865290925292208054600490920290920192508311156106555760405162461bcd60e51b81526020600482015260126024820152711dda5d1a191c985dce881b9bdd0819dbdbd960721b604482015260640161044c565b61065e8461099c565b6000610698826001015461069264e8d4a5100061068c876003015487600001546111fa90919063ffffffff16565b90611206565b90611212565b90506106a4338261121e565b81546106b09085611212565b80835560038401546106cd9164e8d4a510009161068c91906111fa565b600183015582546106e8906001600160a01b0316338661136f565b604051848152859033907ff279e6a1f5e320cca91135676d9cb6e44ca8a08c0b88342bcdb1144f6511b5689060200160405180910390a35050505050565b6005546001600160a01b03166107755760405162461bcd60e51b815260206004820152601460248201527336b4b3b930ba329d1037379036b4b3b930ba37b960611b604482015260640161044c565b60006006828154811061079857634e487b7160e01b600052603260045260246000fd5b60009182526020822060049182020180546040516370a0823160e01b815230938101939093529093506001600160a01b0316919082906370a082319060240160206040518083038186803b1580156107ef57600080fd5b505afa158015610803573d6000803e3d6000fd5b505050506040513d601f19601f820116820180604052508101906108279190611824565b600554909150610844906001600160a01b038481169116836113d2565b60055460405163ce5494bb60e01b81526001600160a01b038481166004830152600092169063ce5494bb90602401602060405180830381600087803b15801561088c57600080fd5b505af11580156108a0573d6000803e3d6000fd5b505050506040513d601f19601f820116820180604052508101906108c491906117f0565b6040516370a0823160e01b81523060048201529091506001600160a01b038216906370a082319060240160206040518083038186803b15801561090657600080fd5b505afa15801561091a573d6000803e3d6000fd5b505050506040513d601f19601f8201168201806040525081019061093e9190611824565b821461097b5760405162461bcd60e51b815260206004820152600c60248201526b1b5a59dc985d194e8818985960a21b604482015260640161044c565b83546001600160a01b0319166001600160a01b039190911617909255505050565b6000600682815481106109bf57634e487b7160e01b600052603260045260246000fd5b90600052602060002090600402019050806002015443116109de575050565b80546040516370a0823160e01b81523060048201526000916001600160a01b0316906370a082319060240160206040518083038186803b158015610a2157600080fd5b505afa158015610a35573d6000803e3d6000fd5b505050506040513d601f19601f82011682018060405250810190610a599190611824565b905080610a6b57504360029091015550565b6000610a7b836002015443610e4d565b90506000610aa860085461068c8660010154610aa2600454876111fa90919063ffffffff16565b906111fa565b6001546002549192506001600160a01b03908116916340c10f199116610acf84600a611206565b6040516001600160e01b031960e085901b1681526001600160a01b0390921660048301526024820152604401602060405180830381600087803b158015610b1557600080fd5b505af1158015610b29573d6000803e3d6000fd5b505050506040513d601f19601f82011682018060405250810190610b4d91906117d4565b506001546040516340c10f1960e01b8152306004820152602481018390526001600160a01b03909116906340c10f1990604401602060405180830381600087803b158015610b9a57600080fd5b505af1158015610bae573d6000803e3d6000fd5b505050506040513d601f19601f82011682018060405250810190610bd291906117d4565b50610bf4610be98461068c8464e8d4a510006111fa565b6003860154906111e7565b60038501555050436002909201919091555050565b600060068281548110610c2c57634e487b7160e01b600052603260045260246000fd5b60009182526020808320858452600782526040808520338087529352909320805460049093029093018054909450610c71926001600160a01b0391909116919061136f565b8054604051908152839033907fbb757047c2b5f3974fe26b7c10f732e7bce710b0952a71082702781e62ae05959060200160405180910390a360008082556001909101555050565b60065460005b81811015610ce057610cd08161099c565b610cd981611a18565b9050610cbf565b5050565b6000546001600160a01b03163314610d0e5760405162461bcd60e51b815260040161044c90611949565b8015610d1c57610d1c610cb9565b610d6d82610d6760068681548110610d4457634e487b7160e01b600052603260045260246000fd5b90600052602060002090600402016001015460085461121290919063ffffffff16565b906111e7565b6008819055508160068481548110610d9557634e487b7160e01b600052603260045260246000fd5b906000526020600020906004020160010181905550505050565b6000546001600160a01b03163314610dd95760405162461bcd60e51b815260040161044c90611949565b610de360006114f6565b565b6002546001600160a01b03163314610e2b5760405162461bcd60e51b81526020600482015260096024820152686465763a207775743f60b81b604482015260640161044c565b600280546001600160a01b0319166001600160a01b0392909216919091179055565b60006003548211610e6e57610e67600a610aa28486611212565b9050610eb3565b6003548310610e8157610e678284611212565b610e67610e996003548461121290919063ffffffff16565b610d67600a610aa28760035461121290919063ffffffff16565b92915050565b60008060068481548110610edd57634e487b7160e01b600052603260045260246000fd5b600091825260208083208784526007825260408085206001600160a01b038981168752935280852060049485029092016003810154815492516370a0823160e01b8152309681019690965290965091949193919216906370a082319060240160206040518083038186803b158015610f5457600080fd5b505afa158015610f68573d6000803e3d6000fd5b505050506040513d601f19601f82011682018060405250810190610f8c9190611824565b9050836002015443118015610fa057508015155b15611000576000610fb5856002015443610e4d565b90506000610fdc60085461068c8860010154610aa2600454876111fa90919063ffffffff16565b9050610ffb610ff48461068c8464e8d4a510006111fa565b85906111e7565b935050505b611028836001015461069264e8d4a5100061068c8688600001546111fa90919063ffffffff16565b979650505050505050565b60006006838154811061105657634e487b7160e01b600052603260045260246000fd5b600091825260208083208684526007825260408085203386529092529220600490910290910191506110878461099c565b8054156110ca5760006110bc826001015461069264e8d4a5100061068c876003015487600001546111fa90919063ffffffff16565b90506110c8338261121e565b505b81546110e1906001600160a01b0316333086611546565b80546110ed90846111e7565b808255600383015461110a9164e8d4a510009161068c91906111fa565b6001820155604051838152849033907f90890809c654f11d6e72a28fa60149770a0d11ec6c92319d6ceb2bb0a4ea1a159060200160405180910390a350505050565b6000546001600160a01b031633146111765760405162461bcd60e51b815260040161044c90611949565b6001600160a01b0381166111db5760405162461bcd60e51b815260206004820152602660248201527f4f776e61626c653a206e6577206f776e657220697320746865207a65726f206160448201526564647265737360d01b606482015260840161044c565b6111e4816114f6565b50565b60006111f3828461197e565b9392505050565b60006111f382846119b6565b60006111f38284611996565b60006111f382846119d5565b6001546040516370a0823160e01b81523060048201526000916001600160a01b0316906370a082319060240160206040518083038186803b15801561126257600080fd5b505afa158015611276573d6000803e3d6000fd5b505050506040513d601f19601f8201168201806040525081019061129a9190611824565b9050808211156113315760015460405163a9059cbb60e01b81526001600160a01b038581166004830152602482018490529091169063a9059cbb906044015b602060405180830381600087803b1580156112f357600080fd5b505af1158015611307573d6000803e3d6000fd5b505050506040513d601f19601f8201168201806040525081019061132b91906117d4565b50505050565b60015460405163a9059cbb60e01b81526001600160a01b038581166004830152602482018590529091169063a9059cbb906044016112d9565b505050565b6040516001600160a01b03831660248201526044810182905261136a90849063a9059cbb60e01b906064015b60408051601f198184030181529190526020810180516001600160e01b03166001600160e01b03199093169290921790915261157e565b80158061145b5750604051636eb1769f60e11b81523060048201526001600160a01b03838116602483015284169063dd62ed3e9060440160206040518083038186803b15801561142157600080fd5b505afa158015611435573d6000803e3d6000fd5b505050506040513d601f19601f820116820180604052508101906114599190611824565b155b6114c65760405162461bcd60e51b815260206004820152603660248201527f5361666545524332303a20617070726f76652066726f6d206e6f6e2d7a65726f60448201527520746f206e6f6e2d7a65726f20616c6c6f77616e636560501b606482015260840161044c565b6040516001600160a01b03831660248201526044810182905261136a90849063095ea7b360e01b9060640161139b565b600080546001600160a01b038381166001600160a01b0319831681178455604051919092169283917f8be0079c531659141344cd1fd0a4f28419497f9722a3daafe3b4186f6b6457e09190a35050565b6040516001600160a01b038085166024830152831660448201526064810182905261132b9085906323b872dd60e01b9060840161139b565b60006115d3826040518060400160405280602081526020017f5361666545524332303a206c6f772d6c6576656c2063616c6c206661696c6564815250856001600160a01b03166116509092919063ffffffff16565b80519091501561136a57808060200190518101906115f191906117d4565b61136a5760405162461bcd60e51b815260206004820152602a60248201527f5361666545524332303a204552433230206f7065726174696f6e20646964206e6044820152691bdd081cdd58d8d9595960b21b606482015260840161044c565b606061165f8484600085611667565b949350505050565b6060824710156116c85760405162461bcd60e51b815260206004820152602660248201527f416464726573733a20696e73756666696369656e742062616c616e636520666f6044820152651c8818d85b1b60d21b606482015260840161044c565b843b6117165760405162461bcd60e51b815260206004820152601d60248201527f416464726573733a2063616c6c20746f206e6f6e2d636f6e7472616374000000604482015260640161044c565b600080866001600160a01b0316858760405161173291906118fa565b60006040518083038185875af1925050503d806000811461176f576040519150601f19603f3d011682016040523d82523d6000602084013e611774565b606091505b50915091506110288282866060831561178e5750816111f3565b82511561179e5782518084602001fd5b8160405162461bcd60e51b815260040161044c9190611916565b6000602082840312156117c9578081fd5b81356111f381611a49565b6000602082840312156117e5578081fd5b81516111f381611a5e565b600060208284031215611801578081fd5b81516111f381611a49565b60006020828403121561181d578081fd5b5035919050565b600060208284031215611835578081fd5b5051919050565b6000806040838503121561184e578081fd5b82359150602083013561186081611a49565b809150509250929050565b60008060006060848603121561187f578081fd5b83359250602084013561189181611a49565b915060408401356118a181611a5e565b809150509250925092565b600080604083850312156118be578182fd5b50508035926020909101359150565b6000806000606084860312156118e1578283fd5b833592506020840135915060408401356118a181611a5e565b6000825161190c8184602087016119ec565b9190910192915050565b60208152600082518060208401526119358160408501602087016119ec565b601f01601f19169190910160400192915050565b6020808252818101527f4f776e61626c653a2063616c6c6572206973206e6f7420746865206f776e6572604082015260600190565b6000821982111561199157611991611a33565b500190565b6000826119b157634e487b7160e01b81526012600452602481fd5b500490565b60008160001904831182151516156119d0576119d0611a33565b500290565b6000828210156119e7576119e7611a33565b500390565b60005b83811015611a075781810151838201526020016119ef565b8381111561132b5750506000910152565b6000600019821415611a2c57611a2c611a33565b5060010190565b634e487b7160e01b600052601160045260246000fd5b6001600160a01b03811681146111e457600080fd5b80151581146111e457600080fdfea26469706673582212200cd5a8e17fbbbd357e166d41b5da620a691c5f74bd9e8a530157bd3f891f8a6b64736f6c63430008040033",
  "devdoc": {
    "kind": "dev",
    "methods": {
      "owner()": {
        "details": "Returns the address of the current owner."
      },
      "renounceOwnership()": {
        "details": "Leaves the contract without owner. It will not be possible to call `onlyOwner` functions anymore. Can only be called by the current owner. NOTE: Renouncing ownership will leave the contract without an owner, thereby removing any functionality that is only available to the owner."
      },
      "transferOwnership(address)": {
        "details": "Transfers ownership of the contract to a new account (`newOwner`). Can only be called by the current owner."
      }
    },
    "version": 1
  },
  "userdoc": {
    "kind": "user",
    "methods": {},
    "version": 1
  },
  "storageLayout": {
    "storage": [
      {
        "astId": 326,
        "contract": "contracts/MasterChef/Tuan/MasterChef.sol:MasterChef",
        "label": "_owner",
        "offset": 0,
        "slot": "0",
        "type": "t_address"
      },
      {
        "astId": 4378,
        "contract": "contracts/MasterChef/Tuan/MasterChef.sol:MasterChef",
        "label": "sushi",
        "offset": 0,
        "slot": "1",
        "type": "t_contract(SimpleERC20)3063"
      },
      {
        "astId": 4380,
        "contract": "contracts/MasterChef/Tuan/MasterChef.sol:MasterChef",
        "label": "devaddr",
        "offset": 0,
        "slot": "2",
        "type": "t_address"
      },
      {
        "astId": 4382,
        "contract": "contracts/MasterChef/Tuan/MasterChef.sol:MasterChef",
        "label": "bonusEndBlock",
        "offset": 0,
        "slot": "3",
        "type": "t_uint256"
      },
      {
        "astId": 4384,
        "contract": "contracts/MasterChef/Tuan/MasterChef.sol:MasterChef",
        "label": "sushiPerBlock",
        "offset": 0,
        "slot": "4",
        "type": "t_uint256"
      },
      {
        "astId": 4390,
        "contract": "contracts/MasterChef/Tuan/MasterChef.sol:MasterChef",
        "label": "migrator",
        "offset": 0,
        "slot": "5",
        "type": "t_contract(IMigratorChef)4351"
      },
      {
        "astId": 4394,
        "contract": "contracts/MasterChef/Tuan/MasterChef.sol:MasterChef",
        "label": "poolInfo",
        "offset": 0,
        "slot": "6",
        "type": "t_array(t_struct(PoolInfo)4375_storage)dyn_storage"
      },
      {
        "astId": 4401,
        "contract": "contracts/MasterChef/Tuan/MasterChef.sol:MasterChef",
        "label": "userInfo",
        "offset": 0,
        "slot": "7",
        "type": "t_mapping(t_uint256,t_mapping(t_address,t_struct(UserInfo)4365_storage))"
      },
      {
        "astId": 4404,
        "contract": "contracts/MasterChef/Tuan/MasterChef.sol:MasterChef",
        "label": "totalAllocPoint",
        "offset": 0,
        "slot": "8",
        "type": "t_uint256"
      },
      {
        "astId": 4406,
        "contract": "contracts/MasterChef/Tuan/MasterChef.sol:MasterChef",
        "label": "startBlock",
        "offset": 0,
        "slot": "9",
        "type": "t_uint256"
      }
    ],
    "types": {
      "t_address": {
        "encoding": "inplace",
        "label": "address",
        "numberOfBytes": "20"
      },
      "t_array(t_struct(PoolInfo)4375_storage)dyn_storage": {
        "base": "t_struct(PoolInfo)4375_storage",
        "encoding": "dynamic_array",
        "label": "struct MasterChef.PoolInfo[]",
        "numberOfBytes": "32"
      },
      "t_contract(IERC20)1253": {
        "encoding": "inplace",
        "label": "contract IERC20",
        "numberOfBytes": "20"
      },
      "t_contract(IMigratorChef)4351": {
        "encoding": "inplace",
        "label": "contract IMigratorChef",
        "numberOfBytes": "20"
      },
      "t_contract(SimpleERC20)3063": {
        "encoding": "inplace",
        "label": "contract SimpleERC20",
        "numberOfBytes": "20"
      },
      "t_mapping(t_address,t_struct(UserInfo)4365_storage)": {
        "encoding": "mapping",
        "key": "t_address",
        "label": "mapping(address => struct MasterChef.UserInfo)",
        "numberOfBytes": "32",
        "value": "t_struct(UserInfo)4365_storage"
      },
      "t_mapping(t_uint256,t_mapping(t_address,t_struct(UserInfo)4365_storage))": {
        "encoding": "mapping",
        "key": "t_uint256",
        "label": "mapping(uint256 => mapping(address => struct MasterChef.UserInfo))",
        "numberOfBytes": "32",
        "value": "t_mapping(t_address,t_struct(UserInfo)4365_storage)"
      },
      "t_struct(PoolInfo)4375_storage": {
        "encoding": "inplace",
        "label": "struct MasterChef.PoolInfo",
        "members": [
          {
            "astId": 4368,
            "contract": "contracts/MasterChef/Tuan/MasterChef.sol:MasterChef",
            "label": "lpToken",
            "offset": 0,
            "slot": "0",
            "type": "t_contract(IERC20)1253"
          },
          {
            "astId": 4370,
            "contract": "contracts/MasterChef/Tuan/MasterChef.sol:MasterChef",
            "label": "allocPoint",
            "offset": 0,
            "slot": "1",
            "type": "t_uint256"
          },
          {
            "astId": 4372,
            "contract": "contracts/MasterChef/Tuan/MasterChef.sol:MasterChef",
            "label": "lastRewardBlock",
            "offset": 0,
            "slot": "2",
            "type": "t_uint256"
          },
          {
            "astId": 4374,
            "contract": "contracts/MasterChef/Tuan/MasterChef.sol:MasterChef",
            "label": "accSushiPerShare",
            "offset": 0,
            "slot": "3",
            "type": "t_uint256"
          }
        ],
        "numberOfBytes": "128"
      },
      "t_struct(UserInfo)4365_storage": {
        "encoding": "inplace",
        "label": "struct MasterChef.UserInfo",
        "members": [
          {
            "astId": 4362,
            "contract": "contracts/MasterChef/Tuan/MasterChef.sol:MasterChef",
            "label": "amount",
            "offset": 0,
            "slot": "0",
            "type": "t_uint256"
          },
          {
            "astId": 4364,
            "contract": "contracts/MasterChef/Tuan/MasterChef.sol:MasterChef",
            "label": "rewardDebt",
            "offset": 0,
            "slot": "1",
            "type": "t_uint256"
          }
        ],
        "numberOfBytes": "64"
      },
      "t_uint256": {
        "encoding": "inplace",
        "label": "uint256",
        "numberOfBytes": "32"
      }
    }
  }
}