{
  "_format": "hh-sol-artifact-1",
  "contractName": "SimpleERC20",
  "sourceName": "contracts/ERC20/BaoPG/ERC20.sol",
  "abi": [
    {
      "inputs": [
        {
          "internalType": "string",
          "name": "initSymbol",
          "type": "string"
        },
        {
          "internalType": "string",
          "name": "initName",
          "type": "string"
        },
        {
          "internalType": "uint256",
          "name": "initialSupply",
          "type": "uint256"
        }
      ],
      "stateMutability": "nonpayable",
      "type": "constructor"
    },
    {
      "anonymous": false,
      "inputs": [
        {
          "indexed": true,
          "internalType": "address",
          "name": "owner",
          "type": "address"
        },
        {
          "indexed": true,
          "internalType": "address",
          "name": "spender",
          "type": "address"
        },
        {
          "indexed": false,
          "internalType": "uint256",
          "name": "value",
          "type": "uint256"
        }
      ],
      "name": "Approval",
      "type": "event"
    },
    {
      "anonymous": false,
      "inputs": [
        {
          "indexed": true,
          "internalType": "address",
          "name": "previousOwner",
          "type": "address"
        },
        {
          "indexed": true,
          "internalType": "address",
          "name": "newOwner",
          "type": "address"
        }
      ],
      "name": "OwnershipTransferred",
      "type": "event"
    },
    {
      "anonymous": false,
      "inputs": [
        {
          "indexed": true,
          "internalType": "address",
          "name": "from",
          "type": "address"
        },
        {
          "indexed": true,
          "internalType": "address",
          "name": "to",
          "type": "address"
        },
        {
          "indexed": false,
          "internalType": "uint256",
          "name": "value",
          "type": "uint256"
        }
      ],
      "name": "Transfer",
      "type": "event"
    },
    {
      "inputs": [],
      "name": "MAX_TOTAL_SUPPLY",
      "outputs": [
        {
          "internalType": "uint256",
          "name": "",
          "type": "uint256"
        }
      ],
      "stateMutability": "view",
      "type": "function"
    },
    {
      "inputs": [
        {
          "internalType": "address",
          "name": "",
          "type": "address"
        },
        {
          "internalType": "address",
          "name": "",
          "type": "address"
        }
      ],
      "name": "allowance",
      "outputs": [
        {
          "internalType": "uint256",
          "name": "",
          "type": "uint256"
        }
      ],
      "stateMutability": "view",
      "type": "function"
    },
    {
      "inputs": [
        {
          "internalType": "address",
          "name": "_spender",
          "type": "address"
        },
        {
          "internalType": "uint256",
          "name": "_value",
          "type": "uint256"
        }
      ],
      "name": "approve",
      "outputs": [
        {
          "internalType": "bool",
          "name": "",
          "type": "bool"
        }
      ],
      "stateMutability": "nonpayable",
      "type": "function"
    },
    {
      "inputs": [
        {
          "internalType": "address",
          "name": "",
          "type": "address"
        }
      ],
      "name": "balanceOf",
      "outputs": [
        {
          "internalType": "uint256",
          "name": "",
          "type": "uint256"
        }
      ],
      "stateMutability": "view",
      "type": "function"
    },
    {
      "inputs": [],
      "name": "decimals",
      "outputs": [
        {
          "internalType": "uint256",
          "name": "",
          "type": "uint256"
        }
      ],
      "stateMutability": "view",
      "type": "function"
    },
    {
      "inputs": [
        {
          "internalType": "address",
          "name": "_to",
          "type": "address"
        },
        {
          "internalType": "uint256",
          "name": "_value",
          "type": "uint256"
        }
      ],
      "name": "mint",
      "outputs": [
        {
          "internalType": "bool",
          "name": "",
          "type": "bool"
        }
      ],
      "stateMutability": "nonpayable",
      "type": "function"
    },
    {
      "inputs": [],
      "name": "minter",
      "outputs": [
        {
          "internalType": "address",
          "name": "",
          "type": "address"
        }
      ],
      "stateMutability": "view",
      "type": "function"
    },
    {
      "inputs": [],
      "name": "name",
      "outputs": [
        {
          "internalType": "string",
          "name": "",
          "type": "string"
        }
      ],
      "stateMutability": "view",
      "type": "function"
    },
    {
      "inputs": [],
      "name": "owner",
      "outputs": [
        {
          "internalType": "address",
          "name": "",
          "type": "address"
        }
      ],
      "stateMutability": "view",
      "type": "function"
    },
    {
      "inputs": [],
      "name": "renounceOwnership",
      "outputs": [],
      "stateMutability": "nonpayable",
      "type": "function"
    },
    {
      "inputs": [
        {
          "internalType": "address",
          "name": "_minter",
          "type": "address"
        }
      ],
      "name": "setMinter",
      "outputs": [
        {
          "internalType": "bool",
          "name": "",
          "type": "bool"
        }
      ],
      "stateMutability": "nonpayable",
      "type": "function"
    },
    {
      "inputs": [],
      "name": "symbol",
      "outputs": [
        {
          "internalType": "string",
          "name": "",
          "type": "string"
        }
      ],
      "stateMutability": "view",
      "type": "function"
    },
    {
      "inputs": [],
      "name": "totalSupply",
      "outputs": [
        {
          "internalType": "uint256",
          "name": "",
          "type": "uint256"
        }
      ],
      "stateMutability": "view",
      "type": "function"
    },
    {
      "inputs": [
        {
          "internalType": "address",
          "name": "_to",
          "type": "address"
        },
        {
          "internalType": "uint256",
          "name": "_value",
          "type": "uint256"
        }
      ],
      "name": "transfer",
      "outputs": [
        {
          "internalType": "bool",
          "name": "",
          "type": "bool"
        }
      ],
      "stateMutability": "nonpayable",
      "type": "function"
    },
    {
      "inputs": [
        {
          "internalType": "address",
          "name": "_from",
          "type": "address"
        },
        {
          "internalType": "address",
          "name": "_to",
          "type": "address"
        },
        {
          "internalType": "uint256",
          "name": "_value",
          "type": "uint256"
        }
      ],
      "name": "transferFrom",
      "outputs": [
        {
          "internalType": "bool",
          "name": "",
          "type": "bool"
        }
      ],
      "stateMutability": "nonpayable",
      "type": "function"
    },
    {
      "inputs": [
        {
          "internalType": "address",
          "name": "newOwner",
          "type": "address"
        }
      ],
      "name": "transferOwnership",
      "outputs": [],
      "stateMutability": "nonpayable",
      "type": "function"
    }
  ],
  "bytecode": "0x60806040523480156200001157600080fd5b5060405162001001380380620010018339810160408190526200003491620002a0565b6200003f33620000f7565b6200004d600c600a62000359565b6200006090662386f26fc1000062000424565b8111156200006d57600080fd5b600081116200007b57600080fd5b62000089600c600a62000359565b62000095908262000424565b6003819055336000908152600560209081526040909120919091558251620000c4916002919085019062000147565b508251620000da90600190602086019062000147565b5050600480546001600160a01b0319163317905550620004af9050565b600080546001600160a01b038381166001600160a01b0319831681178455604051919092169283917f8be0079c531659141344cd1fd0a4f28419497f9722a3daafe3b4186f6b6457e09190a35050565b828054620001559062000446565b90600052602060002090601f016020900481019282620001795760008555620001c4565b82601f106200019457805160ff1916838001178555620001c4565b82800160010185558215620001c4579182015b82811115620001c4578251825591602001919060010190620001a7565b50620001d2929150620001d6565b5090565b5b80821115620001d25760008155600101620001d7565b600082601f830112620001fe578081fd5b81516001600160401b03808211156200021b576200021b62000499565b604051601f8301601f19908116603f0116810190828211818310171562000246576200024662000499565b8160405283815260209250868385880101111562000262578485fd5b8491505b8382101562000285578582018301518183018401529082019062000266565b838211156200029657848385830101525b9695505050505050565b600080600060608486031215620002b5578283fd5b83516001600160401b0380821115620002cc578485fd5b620002da87838801620001ed565b94506020860151915080821115620002f0578384fd5b50620002ff86828701620001ed565b925050604084015190509250925092565b600181815b808511156200035157816000190482111562000335576200033562000483565b808516156200034357918102915b93841c939080029062000315565b509250929050565b60006200036783836200036e565b9392505050565b6000826200037f575060016200041e565b816200038e575060006200041e565b8160018114620003a75760028114620003b257620003d2565b60019150506200041e565b60ff841115620003c657620003c662000483565b50506001821b6200041e565b5060208310610133831016604e8410600b8410161715620003f7575081810a6200041e565b62000403838362000310565b80600019048211156200041a576200041a62000483565b0290505b92915050565b600081600019048311821515161562000441576200044162000483565b500290565b600181811c908216806200045b57607f821691505b602082108114156200047d57634e487b7160e01b600052602260045260246000fd5b50919050565b634e487b7160e01b600052601160045260246000fd5b634e487b7160e01b600052604160045260246000fd5b610b4280620004bf6000396000f3fe608060405234801561001057600080fd5b50600436106101005760003560e01c806370a0823111610097578063a9059cbb11610066578063a9059cbb14610201578063dd62ed3e14610214578063f2fde38b1461023f578063fca3b5aa1461025257600080fd5b806370a08231146101be578063715018a6146101de5780638da5cb5b146101e857806395d89b41146101f957600080fd5b806323b872dd116100d357806323b872dd14610188578063313ce5671461019b57806333039d3d146101a357806340c10f19146101ab57600080fd5b806306fdde03146101055780630754617214610123578063095ea7b31461014e57806318160ddd14610171575b600080fd5b61010d610265565b60405161011a91906108fa565b60405180910390f35b600454610136906001600160a01b031681565b6040516001600160a01b03909116815260200161011a565b61016161015c3660046108d1565b6102f3565b604051901515815260200161011a565b61017a60035481565b60405190815260200161011a565b610161610196366004610896565b610360565b61017a600c81565b61017a610439565b6101616101b93660046108d1565b610459565b61017a6101cc36600461084a565b60056020526000908152604090205481565b6101e6610527565b005b6000546001600160a01b0316610136565b61010d61055d565b61016161020f3660046108d1565b61056a565b61017a610222366004610864565b600660209081526000928352604080842090915290825290205481565b6101e661024d36600461084a565b610580565b61016161026036600461084a565b61061b565b6002805461027290610abb565b80601f016020809104026020016040519081016040528092919081815260200182805461029e90610abb565b80156102eb5780601f106102c0576101008083540402835291602001916102eb565b820191906000526020600020905b8154815290600101906020018083116102ce57829003601f168201915b505050505081565b3360008181526006602090815260408083206001600160a01b038716808552925280832085905551919290917f8c5be1e5ebec7d5bd14f71427d1e84f3dd0314c0f7b2291e5b200ac8c7c3b9259061034e9086815260200190565b60405180910390a35060015b92915050565b6001600160a01b03831660009081526006602090815260408083203384529091528120548211156103d15760405162461bcd60e51b8152602060048201526016602482015275496e73756666696369656e7420616c6c6f77616e636560501b60448201526064015b60405180910390fd5b6001600160a01b03841660009081526006602090815260408083203384529091529020546103ff818461066a565b6001600160a01b038616600090815260066020908152604080832033845290915290205561042e85858561067d565b506001949350505050565b610445600c600a6109dd565b61045690662386f26fc10000610a85565b81565b6004546000906001600160a01b0316331461047357600080fd5b6001600160a01b03831660009081526005602052604090205461049690836107d7565b6001600160a01b0384166000908152600560205260409020556003546104bc90836107d7565b60038190556104cd600c600a6109dd565b6104de90662386f26fc10000610a85565b10156104e957600080fd5b6040518281526001600160a01b038416906000907fddf252ad1be2c89b69c2b068fc378daa952ba7f163c4a11628f55a4df523b3ef9060200161034e565b6000546001600160a01b031633146105515760405162461bcd60e51b81526004016103c89061094d565b61055b60006107e3565b565b6001805461027290610abb565b600061057733848461067d565b50600192915050565b6000546001600160a01b031633146105aa5760405162461bcd60e51b81526004016103c89061094d565b6001600160a01b03811661060f5760405162461bcd60e51b815260206004820152602660248201527f4f776e61626c653a206e6577206f776e657220697320746865207a65726f206160448201526564647265737360d01b60648201526084016103c8565b610618816107e3565b50565b600080546001600160a01b031633146106465760405162461bcd60e51b81526004016103c89061094d565b50600480546001600160a01b0319166001600160a01b03831617905560015b919050565b60006106768284610aa4565b9392505050565b6001600160a01b0382166106c55760405162461bcd60e51b815260206004820152600f60248201526e496e76616c6964206164647265737360881b60448201526064016103c8565b6001600160a01b0383166000908152600560205260409020548111156107245760405162461bcd60e51b8152602060048201526014602482015273496e73756666696369656e742062616c616e636560601b60448201526064016103c8565b6001600160a01b038316600090815260056020526040902054610747908261066a565b6001600160a01b03808516600090815260056020526040808220939093559084168152205461077690826107d7565b6001600160a01b0380841660008181526005602052604090819020939093559151908516907fddf252ad1be2c89b69c2b068fc378daa952ba7f163c4a11628f55a4df523b3ef906107ca9085815260200190565b60405180910390a3505050565b60006106768284610982565b600080546001600160a01b038381166001600160a01b0319831681178455604051919092169283917f8be0079c531659141344cd1fd0a4f28419497f9722a3daafe3b4186f6b6457e09190a35050565b80356001600160a01b038116811461066557600080fd5b60006020828403121561085b578081fd5b61067682610833565b60008060408385031215610876578081fd5b61087f83610833565b915061088d60208401610833565b90509250929050565b6000806000606084860312156108aa578081fd5b6108b384610833565b92506108c160208501610833565b9150604084013590509250925092565b600080604083850312156108e3578182fd5b6108ec83610833565b946020939093013593505050565b6000602080835283518082850152825b818110156109265785810183015185820160400152820161090a565b818111156109375783604083870101525b50601f01601f1916929092016040019392505050565b6020808252818101527f4f776e61626c653a2063616c6c6572206973206e6f7420746865206f776e6572604082015260600190565b6000821982111561099557610995610af6565b500190565b600181815b808511156109d55781600019048211156109bb576109bb610af6565b808516156109c857918102915b93841c939080029061099f565b509250929050565b600061067683836000826109f35750600161035a565b81610a005750600061035a565b8160018114610a165760028114610a2057610a3c565b600191505061035a565b60ff841115610a3157610a31610af6565b50506001821b61035a565b5060208310610133831016604e8410600b8410161715610a5f575081810a61035a565b610a69838361099a565b8060001904821115610a7d57610a7d610af6565b029392505050565b6000816000190483118215151615610a9f57610a9f610af6565b500290565b600082821015610ab657610ab6610af6565b500390565b600181811c90821680610acf57607f821691505b60208210811415610af057634e487b7160e01b600052602260045260246000fd5b50919050565b634e487b7160e01b600052601160045260246000fdfea2646970667358221220d607f3c2562cb54f5459a493facfa56bdefa0ea2e6bb00e4d105c6096efebdc464736f6c63430008040033",
  "linkReferences": {},
  "deployedLinkReferences": {}
}