{
  "_format": "hh-sol-artifact-1",
  "contractName": "SimpleERC20",
  "sourceName": "contracts/ERC20/BaoPG/ERC20.sol",
  "abi": [
    {
      "inputs": [
        {
          "internalType": "string",
          "name": "initSymbol",
          "type": "string"
        },
        {
          "internalType": "string",
          "name": "initName",
          "type": "string"
        },
        {
          "internalType": "uint256",
          "name": "initialSupply",
          "type": "uint256"
        }
      ],
      "stateMutability": "nonpayable",
      "type": "constructor"
    },
    {
      "anonymous": false,
      "inputs": [
        {
          "indexed": true,
          "internalType": "address",
          "name": "owner",
          "type": "address"
        },
        {
          "indexed": true,
          "internalType": "address",
          "name": "spender",
          "type": "address"
        },
        {
          "indexed": false,
          "internalType": "uint256",
          "name": "value",
          "type": "uint256"
        }
      ],
      "name": "Approval",
      "type": "event"
    },
    {
      "anonymous": false,
      "inputs": [
        {
          "indexed": true,
          "internalType": "address",
          "name": "from",
          "type": "address"
        },
        {
          "indexed": true,
          "internalType": "address",
          "name": "to",
          "type": "address"
        },
        {
          "indexed": false,
          "internalType": "uint256",
          "name": "value",
          "type": "uint256"
        }
      ],
      "name": "Transfer",
      "type": "event"
    },
    {
      "inputs": [],
      "name": "MAX_TOTAL_SUPPLY",
      "outputs": [
        {
          "internalType": "uint256",
          "name": "",
          "type": "uint256"
        }
      ],
      "stateMutability": "view",
      "type": "function"
    },
    {
      "inputs": [
        {
          "internalType": "address",
          "name": "",
          "type": "address"
        },
        {
          "internalType": "address",
          "name": "",
          "type": "address"
        }
      ],
      "name": "allowance",
      "outputs": [
        {
          "internalType": "uint256",
          "name": "",
          "type": "uint256"
        }
      ],
      "stateMutability": "view",
      "type": "function"
    },
    {
      "inputs": [
        {
          "internalType": "address",
          "name": "_spender",
          "type": "address"
        },
        {
          "internalType": "uint256",
          "name": "_value",
          "type": "uint256"
        }
      ],
      "name": "approve",
      "outputs": [
        {
          "internalType": "bool",
          "name": "",
          "type": "bool"
        }
      ],
      "stateMutability": "nonpayable",
      "type": "function"
    },
    {
      "inputs": [
        {
          "internalType": "address",
          "name": "",
          "type": "address"
        }
      ],
      "name": "balanceOf",
      "outputs": [
        {
          "internalType": "uint256",
          "name": "",
          "type": "uint256"
        }
      ],
      "stateMutability": "view",
      "type": "function"
    },
    {
      "inputs": [],
      "name": "decimals",
      "outputs": [
        {
          "internalType": "uint256",
          "name": "",
          "type": "uint256"
        }
      ],
      "stateMutability": "view",
      "type": "function"
    },
    {
      "inputs": [
        {
          "internalType": "address",
          "name": "_to",
          "type": "address"
        },
        {
          "internalType": "uint256",
          "name": "_value",
          "type": "uint256"
        }
      ],
      "name": "mint",
      "outputs": [
        {
          "internalType": "bool",
          "name": "",
          "type": "bool"
        }
      ],
      "stateMutability": "nonpayable",
      "type": "function"
    },
    {
      "inputs": [],
      "name": "minter",
      "outputs": [
        {
          "internalType": "address",
          "name": "",
          "type": "address"
        }
      ],
      "stateMutability": "view",
      "type": "function"
    },
    {
      "inputs": [],
      "name": "name",
      "outputs": [
        {
          "internalType": "string",
          "name": "",
          "type": "string"
        }
      ],
      "stateMutability": "view",
      "type": "function"
    },
    {
      "inputs": [
        {
          "internalType": "address",
          "name": "_minter",
          "type": "address"
        }
      ],
      "name": "setMinter",
      "outputs": [
        {
          "internalType": "bool",
          "name": "",
          "type": "bool"
        }
      ],
      "stateMutability": "nonpayable",
      "type": "function"
    },
    {
      "inputs": [],
      "name": "symbol",
      "outputs": [
        {
          "internalType": "string",
          "name": "",
          "type": "string"
        }
      ],
      "stateMutability": "view",
      "type": "function"
    },
    {
      "inputs": [],
      "name": "totalSupply",
      "outputs": [
        {
          "internalType": "uint256",
          "name": "",
          "type": "uint256"
        }
      ],
      "stateMutability": "view",
      "type": "function"
    },
    {
      "inputs": [
        {
          "internalType": "address",
          "name": "_to",
          "type": "address"
        },
        {
          "internalType": "uint256",
          "name": "_value",
          "type": "uint256"
        }
      ],
      "name": "transfer",
      "outputs": [
        {
          "internalType": "bool",
          "name": "",
          "type": "bool"
        }
      ],
      "stateMutability": "nonpayable",
      "type": "function"
    },
    {
      "inputs": [
        {
          "internalType": "address",
          "name": "_from",
          "type": "address"
        },
        {
          "internalType": "address",
          "name": "_to",
          "type": "address"
        },
        {
          "internalType": "uint256",
          "name": "_value",
          "type": "uint256"
        }
      ],
      "name": "transferFrom",
      "outputs": [
        {
          "internalType": "bool",
          "name": "",
          "type": "bool"
        }
      ],
      "stateMutability": "nonpayable",
      "type": "function"
    }
  ],
  "bytecode": "0x60806040523480156200001157600080fd5b5060405162001a9738038062001a9783398181016040528101906200003791906200028f565b6012600a620000479190620003d1565b6103e86200005691906200050e565b8111156200006357600080fd5b600081116200007157600080fd5b6012600a620000819190620003d1565b816200008e91906200050e565b600281905550600254600460003373ffffffffffffffffffffffffffffffffffffffff1673ffffffffffffffffffffffffffffffffffffffff168152602001908152602001600020819055508160019080519060200190620000f292919062000156565b5082600090805190602001906200010b92919062000156565b5033600360006101000a81548173ffffffffffffffffffffffffffffffffffffffff021916908373ffffffffffffffffffffffffffffffffffffffff160217905550505050620006e0565b8280546200016490620005af565b90600052602060002090601f016020900481019282620001885760008555620001d4565b82601f10620001a357805160ff1916838001178555620001d4565b82800160010185558215620001d4579182015b82811115620001d3578251825591602001919060010190620001b6565b5b509050620001e39190620001e7565b5090565b5b8082111562000202576000816000905550600101620001e8565b5090565b60006200021d620002178462000340565b62000317565b9050828152602081018484840111156200023657600080fd5b6200024384828562000579565b509392505050565b600082601f8301126200025d57600080fd5b81516200026f84826020860162000206565b91505092915050565b6000815190506200028981620006c6565b92915050565b600080600060608486031215620002a557600080fd5b600084015167ffffffffffffffff811115620002c057600080fd5b620002ce868287016200024b565b935050602084015167ffffffffffffffff811115620002ec57600080fd5b620002fa868287016200024b565b92505060406200030d8682870162000278565b9150509250925092565b60006200032362000336565b9050620003318282620005e5565b919050565b6000604051905090565b600067ffffffffffffffff8211156200035e576200035d62000679565b5b6200036982620006a8565b9050602081019050919050565b6000808291508390505b6001851115620003c857808604811115620003a0576200039f6200061b565b5b6001851615620003b05780820291505b8081029050620003c085620006b9565b945062000380565b94509492505050565b6000620003de826200056f565b9150620003eb836200056f565b92506200041a7fffffffffffffffffffffffffffffffffffffffffffffffffffffffffffffffff848462000422565b905092915050565b60008262000434576001905062000507565b8162000444576000905062000507565b81600181146200045d576002811462000468576200049e565b600191505062000507565b60ff8411156200047d576200047c6200061b565b5b8360020a9150848211156200049757620004966200061b565b5b5062000507565b5060208310610133831016604e8410600b8410161715620004d85782820a905083811115620004d257620004d16200061b565b5b62000507565b620004e7848484600162000376565b925090508184048111156200050157620005006200061b565b5b81810290505b9392505050565b60006200051b826200056f565b915062000528836200056f565b9250817fffffffffffffffffffffffffffffffffffffffffffffffffffffffffffffffff04831182151516156200056457620005636200061b565b5b828202905092915050565b6000819050919050565b60005b83811015620005995780820151818401526020810190506200057c565b83811115620005a9576000848401525b50505050565b60006002820490506001821680620005c857607f821691505b60208210811415620005df57620005de6200064a565b5b50919050565b620005f082620006a8565b810181811067ffffffffffffffff8211171562000612576200061162000679565b5b80604052505050565b7f4e487b7100000000000000000000000000000000000000000000000000000000600052601160045260246000fd5b7f4e487b7100000000000000000000000000000000000000000000000000000000600052602260045260246000fd5b7f4e487b7100000000000000000000000000000000000000000000000000000000600052604160045260246000fd5b6000601f19601f8301169050919050565b60008160011c9050919050565b620006d1816200056f565b8114620006dd57600080fd5b50565b6113a780620006f06000396000f3fe608060405234801561001057600080fd5b50600436106100cf5760003560e01c806333039d3d1161008c57806395d89b411161006657806395d89b411461022a578063a9059cbb14610248578063dd62ed3e14610278578063fca3b5aa146102a8576100cf565b806333039d3d146101ac57806340c10f19146101ca57806370a08231146101fa576100cf565b806306fdde03146100d457806307546172146100f2578063095ea7b31461011057806318160ddd1461014057806323b872dd1461015e578063313ce5671461018e575b600080fd5b6100dc6102d8565b6040516100e99190610e91565b60405180910390f35b6100fa610366565b6040516101079190610e5b565b60405180910390f35b61012a60048036038101906101259190610d50565b61038c565b6040516101379190610e76565b60405180910390f35b61014861047e565b6040516101559190610f13565b60405180910390f35b61017860048036038101906101739190610d01565b610484565b6040516101859190610e76565b60405180910390f35b610196610670565b6040516101a39190610f13565b60405180910390f35b6101b4610675565b6040516101c19190610f13565b60405180910390f35b6101e460048036038101906101df9190610d50565b610693565b6040516101f19190610e76565b60405180910390f35b610214600480360381019061020f9190610c9c565b610838565b6040516102219190610f13565b60405180910390f35b610232610850565b60405161023f9190610e91565b60405180910390f35b610262600480360381019061025d9190610d50565b6108de565b60405161026f9190610e76565b60405180910390f35b610292600480360381019061028d9190610cc5565b6108f5565b60405161029f9190610f13565b60405180910390f35b6102c260048036038101906102bd9190610c9c565b61091a565b6040516102cf9190610e76565b60405180910390f35b600180546102e59061121a565b80601f01602080910402602001604051908101604052809291908181526020018280546103119061121a565b801561035e5780601f106103335761010080835404028352916020019161035e565b820191906000526020600020905b81548152906001019060200180831161034157829003601f168201915b505050505081565b600360009054906101000a900473ffffffffffffffffffffffffffffffffffffffff1681565b600081600560003373ffffffffffffffffffffffffffffffffffffffff1673ffffffffffffffffffffffffffffffffffffffff16815260200190815260200160002060008573ffffffffffffffffffffffffffffffffffffffff1673ffffffffffffffffffffffffffffffffffffffff168152602001908152602001600020819055508273ffffffffffffffffffffffffffffffffffffffff163373ffffffffffffffffffffffffffffffffffffffff167f8c5be1e5ebec7d5bd14f71427d1e84f3dd0314c0f7b2291e5b200ac8c7c3b9258460405161046c9190610f13565b60405180910390a36001905092915050565b60025481565b6000600560008573ffffffffffffffffffffffffffffffffffffffff1673ffffffffffffffffffffffffffffffffffffffff16815260200190815260200160002060003373ffffffffffffffffffffffffffffffffffffffff1673ffffffffffffffffffffffffffffffffffffffff16815260200190815260200160002054821115610545576040517f08c379a000000000000000000000000000000000000000000000000000000000815260040161053c90610ed3565b60405180910390fd5b6000600560008673ffffffffffffffffffffffffffffffffffffffff1673ffffffffffffffffffffffffffffffffffffffff16815260200190815260200160002060003373ffffffffffffffffffffffffffffffffffffffff1673ffffffffffffffffffffffffffffffffffffffff1681526020019081526020016000205490506105d983826109c090919063ffffffff16565b600560008773ffffffffffffffffffffffffffffffffffffffff1673ffffffffffffffffffffffffffffffffffffffff16815260200190815260200160002060003373ffffffffffffffffffffffffffffffffffffffff1673ffffffffffffffffffffffffffffffffffffffff168152602001908152602001600020819055506106648585856109d6565b60019150509392505050565b601281565b6012600a6106839190610ff3565b6103e86106909190611111565b81565b6000600360009054906101000a900473ffffffffffffffffffffffffffffffffffffffff1673ffffffffffffffffffffffffffffffffffffffff163373ffffffffffffffffffffffffffffffffffffffff16146106ef57600080fd5b61074182600460008673ffffffffffffffffffffffffffffffffffffffff1673ffffffffffffffffffffffffffffffffffffffff16815260200190815260200160002054610c5c90919063ffffffff16565b600460008573ffffffffffffffffffffffffffffffffffffffff1673ffffffffffffffffffffffffffffffffffffffff1681526020019081526020016000208190555061079982600254610c5c90919063ffffffff16565b6002819055506002546012600a6107b09190610ff3565b6103e86107bd9190611111565b10156107c857600080fd5b8273ffffffffffffffffffffffffffffffffffffffff16600073ffffffffffffffffffffffffffffffffffffffff167fddf252ad1be2c89b69c2b068fc378daa952ba7f163c4a11628f55a4df523b3ef846040516108269190610f13565b60405180910390a36001905092915050565b60046020528060005260406000206000915090505481565b6000805461085d9061121a565b80601f01602080910402602001604051908101604052809291908181526020018280546108899061121a565b80156108d65780601f106108ab576101008083540402835291602001916108d6565b820191906000526020600020905b8154815290600101906020018083116108b957829003601f168201915b505050505081565b60006108eb3384846109d6565b6001905092915050565b6005602052816000526040600020602052806000526040600020600091509150505481565b60003373ffffffffffffffffffffffffffffffffffffffff16600360009054906101000a900473ffffffffffffffffffffffffffffffffffffffff1673ffffffffffffffffffffffffffffffffffffffff161461097657600080fd5b81600360006101000a81548173ffffffffffffffffffffffffffffffffffffffff021916908373ffffffffffffffffffffffffffffffffffffffff16021790555060019050919050565b600081836109ce919061116b565b905092915050565b600073ffffffffffffffffffffffffffffffffffffffff168273ffffffffffffffffffffffffffffffffffffffff161415610a46576040517f08c379a0000000000000000000000000000000000000000000000000000000008152600401610a3d90610eb3565b60405180910390fd5b80600460008573ffffffffffffffffffffffffffffffffffffffff1673ffffffffffffffffffffffffffffffffffffffff168152602001908152602001600020541015610ac8576040517f08c379a0000000000000000000000000000000000000000000000000000000008152600401610abf90610ef3565b60405180910390fd5b610b1a81600460008673ffffffffffffffffffffffffffffffffffffffff1673ffffffffffffffffffffffffffffffffffffffff168152602001908152602001600020546109c090919063ffffffff16565b600460008573ffffffffffffffffffffffffffffffffffffffff1673ffffffffffffffffffffffffffffffffffffffff16815260200190815260200160002081905550610baf81600460008573ffffffffffffffffffffffffffffffffffffffff1673ffffffffffffffffffffffffffffffffffffffff16815260200190815260200160002054610c5c90919063ffffffff16565b600460008473ffffffffffffffffffffffffffffffffffffffff1673ffffffffffffffffffffffffffffffffffffffff168152602001908152602001600020819055508173ffffffffffffffffffffffffffffffffffffffff168373ffffffffffffffffffffffffffffffffffffffff167fddf252ad1be2c89b69c2b068fc378daa952ba7f163c4a11628f55a4df523b3ef83604051610c4f9190610f13565b60405180910390a3505050565b60008183610c6a9190610f4a565b905092915050565b600081359050610c8181611343565b92915050565b600081359050610c968161135a565b92915050565b600060208284031215610cae57600080fd5b6000610cbc84828501610c72565b91505092915050565b60008060408385031215610cd857600080fd5b6000610ce685828601610c72565b9250506020610cf785828601610c72565b9150509250929050565b600080600060608486031215610d1657600080fd5b6000610d2486828701610c72565b9350506020610d3586828701610c72565b9250506040610d4686828701610c87565b9150509250925092565b60008060408385031215610d6357600080fd5b6000610d7185828601610c72565b9250506020610d8285828601610c87565b9150509250929050565b610d958161119f565b82525050565b610da4816111b1565b82525050565b6000610db582610f2e565b610dbf8185610f39565b9350610dcf8185602086016111e7565b610dd8816112aa565b840191505092915050565b6000610df0600f83610f39565b9150610dfb826112c8565b602082019050919050565b6000610e13601683610f39565b9150610e1e826112f1565b602082019050919050565b6000610e36601483610f39565b9150610e418261131a565b602082019050919050565b610e55816111dd565b82525050565b6000602082019050610e706000830184610d8c565b92915050565b6000602082019050610e8b6000830184610d9b565b92915050565b60006020820190508181036000830152610eab8184610daa565b905092915050565b60006020820190508181036000830152610ecc81610de3565b9050919050565b60006020820190508181036000830152610eec81610e06565b9050919050565b60006020820190508181036000830152610f0c81610e29565b9050919050565b6000602082019050610f286000830184610e4c565b92915050565b600081519050919050565b600082825260208201905092915050565b6000610f55826111dd565b9150610f60836111dd565b9250827fffffffffffffffffffffffffffffffffffffffffffffffffffffffffffffffff03821115610f9557610f9461124c565b5b828201905092915050565b6000808291508390505b6001851115610fea57808604811115610fc657610fc561124c565b5b6001851615610fd55780820291505b8081029050610fe3856112bb565b9450610faa565b94509492505050565b6000610ffe826111dd565b9150611009836111dd565b92506110367fffffffffffffffffffffffffffffffffffffffffffffffffffffffffffffffff848461103e565b905092915050565b60008261104e576001905061110a565b8161105c576000905061110a565b8160018114611072576002811461107c576110ab565b600191505061110a565b60ff84111561108e5761108d61124c565b5b8360020a9150848211156110a5576110a461124c565b5b5061110a565b5060208310610133831016604e8410600b84101617156110e05782820a9050838111156110db576110da61124c565b5b61110a565b6110ed8484846001610fa0565b925090508184048111156111045761110361124c565b5b81810290505b9392505050565b600061111c826111dd565b9150611127836111dd565b9250817fffffffffffffffffffffffffffffffffffffffffffffffffffffffffffffffff04831182151516156111605761115f61124c565b5b828202905092915050565b6000611176826111dd565b9150611181836111dd565b9250828210156111945761119361124c565b5b828203905092915050565b60006111aa826111bd565b9050919050565b60008115159050919050565b600073ffffffffffffffffffffffffffffffffffffffff82169050919050565b6000819050919050565b60005b838110156112055780820151818401526020810190506111ea565b83811115611214576000848401525b50505050565b6000600282049050600182168061123257607f821691505b602082108114156112465761124561127b565b5b50919050565b7f4e487b7100000000000000000000000000000000000000000000000000000000600052601160045260246000fd5b7f4e487b7100000000000000000000000000000000000000000000000000000000600052602260045260246000fd5b6000601f19601f8301169050919050565b60008160011c9050919050565b7f496e76616c696420616464726573730000000000000000000000000000000000600082015250565b7f496e73756666696369656e7420616c6c6f77616e636500000000000000000000600082015250565b7f496e73756666696369656e742062616c616e6365000000000000000000000000600082015250565b61134c8161119f565b811461135757600080fd5b50565b611363816111dd565b811461136e57600080fd5b5056fea264697066735822122031ec4ad6c1ef50b4467ccf69beecddc0fc2549289a83f85aaca3b93a22aa2e9f64736f6c63430008040033",
  "linkReferences": {},
  "deployedLinkReferences": {}
}