{
  "_format": "hh-sol-artifact-1",
  "contractName": "SimpleERC20",
  "sourceName": "contracts/ERC20/BaoPG/ERC20.sol",
  "abi": [
    {
      "inputs": [
        {
          "internalType": "string",
          "name": "initSymbol",
          "type": "string"
        },
        {
          "internalType": "string",
          "name": "initName",
          "type": "string"
        },
        {
          "internalType": "uint256",
          "name": "initialSupply",
          "type": "uint256"
        }
      ],
      "stateMutability": "nonpayable",
      "type": "constructor"
    },
    {
      "anonymous": false,
      "inputs": [
        {
          "indexed": true,
          "internalType": "address",
          "name": "owner",
          "type": "address"
        },
        {
          "indexed": true,
          "internalType": "address",
          "name": "spender",
          "type": "address"
        },
        {
          "indexed": false,
          "internalType": "uint256",
          "name": "value",
          "type": "uint256"
        }
      ],
      "name": "Approval",
      "type": "event"
    },
    {
      "anonymous": false,
      "inputs": [
        {
          "indexed": true,
          "internalType": "address",
          "name": "previousOwner",
          "type": "address"
        },
        {
          "indexed": true,
          "internalType": "address",
          "name": "newOwner",
          "type": "address"
        }
      ],
      "name": "OwnershipTransferred",
      "type": "event"
    },
    {
      "anonymous": false,
      "inputs": [
        {
          "indexed": true,
          "internalType": "address",
          "name": "from",
          "type": "address"
        },
        {
          "indexed": true,
          "internalType": "address",
          "name": "to",
          "type": "address"
        },
        {
          "indexed": false,
          "internalType": "uint256",
          "name": "value",
          "type": "uint256"
        }
      ],
      "name": "Transfer",
      "type": "event"
    },
    {
      "inputs": [],
      "name": "MAX_TOTAL_SUPPLY",
      "outputs": [
        {
          "internalType": "uint256",
          "name": "",
          "type": "uint256"
        }
      ],
      "stateMutability": "view",
      "type": "function"
    },
    {
      "inputs": [
        {
          "internalType": "address",
          "name": "",
          "type": "address"
        },
        {
          "internalType": "address",
          "name": "",
          "type": "address"
        }
      ],
      "name": "allowance",
      "outputs": [
        {
          "internalType": "uint256",
          "name": "",
          "type": "uint256"
        }
      ],
      "stateMutability": "view",
      "type": "function"
    },
    {
      "inputs": [
        {
          "internalType": "address",
          "name": "_spender",
          "type": "address"
        },
        {
          "internalType": "uint256",
          "name": "_value",
          "type": "uint256"
        }
      ],
      "name": "approve",
      "outputs": [
        {
          "internalType": "bool",
          "name": "",
          "type": "bool"
        }
      ],
      "stateMutability": "nonpayable",
      "type": "function"
    },
    {
      "inputs": [
        {
          "internalType": "address",
          "name": "",
          "type": "address"
        }
      ],
      "name": "balanceOf",
      "outputs": [
        {
          "internalType": "uint256",
          "name": "",
          "type": "uint256"
        }
      ],
      "stateMutability": "view",
      "type": "function"
    },
    {
      "inputs": [],
      "name": "decimals",
      "outputs": [
        {
          "internalType": "uint256",
          "name": "",
          "type": "uint256"
        }
      ],
      "stateMutability": "view",
      "type": "function"
    },
    {
      "inputs": [
        {
          "internalType": "address",
          "name": "_to",
          "type": "address"
        },
        {
          "internalType": "uint256",
          "name": "_value",
          "type": "uint256"
        }
      ],
      "name": "mint",
      "outputs": [
        {
          "internalType": "bool",
          "name": "",
          "type": "bool"
        }
      ],
      "stateMutability": "nonpayable",
      "type": "function"
    },
    {
      "inputs": [],
      "name": "minter",
      "outputs": [
        {
          "internalType": "address",
          "name": "",
          "type": "address"
        }
      ],
      "stateMutability": "view",
      "type": "function"
    },
    {
      "inputs": [],
      "name": "name",
      "outputs": [
        {
          "internalType": "string",
          "name": "",
          "type": "string"
        }
      ],
      "stateMutability": "view",
      "type": "function"
    },
    {
      "inputs": [],
      "name": "owner",
      "outputs": [
        {
          "internalType": "address",
          "name": "",
          "type": "address"
        }
      ],
      "stateMutability": "view",
      "type": "function"
    },
    {
      "inputs": [],
      "name": "renounceOwnership",
      "outputs": [],
      "stateMutability": "nonpayable",
      "type": "function"
    },
    {
      "inputs": [
        {
          "internalType": "address",
          "name": "_minter",
          "type": "address"
        }
      ],
      "name": "setMinter",
      "outputs": [
        {
          "internalType": "bool",
          "name": "",
          "type": "bool"
        }
      ],
      "stateMutability": "nonpayable",
      "type": "function"
    },
    {
      "inputs": [],
      "name": "symbol",
      "outputs": [
        {
          "internalType": "string",
          "name": "",
          "type": "string"
        }
      ],
      "stateMutability": "view",
      "type": "function"
    },
    {
      "inputs": [],
      "name": "totalSupply",
      "outputs": [
        {
          "internalType": "uint256",
          "name": "",
          "type": "uint256"
        }
      ],
      "stateMutability": "view",
      "type": "function"
    },
    {
      "inputs": [
        {
          "internalType": "address",
          "name": "_to",
          "type": "address"
        },
        {
          "internalType": "uint256",
          "name": "_value",
          "type": "uint256"
        }
      ],
      "name": "transfer",
      "outputs": [
        {
          "internalType": "bool",
          "name": "",
          "type": "bool"
        }
      ],
      "stateMutability": "nonpayable",
      "type": "function"
    },
    {
      "inputs": [
        {
          "internalType": "address",
          "name": "_from",
          "type": "address"
        },
        {
          "internalType": "address",
          "name": "_to",
          "type": "address"
        },
        {
          "internalType": "uint256",
          "name": "_value",
          "type": "uint256"
        }
      ],
      "name": "transferFrom",
      "outputs": [
        {
          "internalType": "bool",
          "name": "",
          "type": "bool"
        }
      ],
      "stateMutability": "nonpayable",
      "type": "function"
    },
    {
      "inputs": [
        {
          "internalType": "address",
          "name": "newOwner",
          "type": "address"
        }
      ],
      "name": "transferOwnership",
      "outputs": [],
      "stateMutability": "nonpayable",
      "type": "function"
    }
  ],
  "bytecode": "0x60806040523480156200001157600080fd5b5060405162000ff238038062000ff283398101604081905262000034916200029b565b6200003f33620000f2565b6200004d600c600a62000354565b6200005b906103e86200041f565b8111156200006857600080fd5b600081116200007657600080fd5b62000084600c600a62000354565b6200009090826200041f565b6003819055336000908152600560209081526040909120919091558251620000bf916002919085019062000142565b508251620000d590600190602086019062000142565b5050600480546001600160a01b0319163317905550620004aa9050565b600080546001600160a01b038381166001600160a01b0319831681178455604051919092169283917f8be0079c531659141344cd1fd0a4f28419497f9722a3daafe3b4186f6b6457e09190a35050565b828054620001509062000441565b90600052602060002090601f016020900481019282620001745760008555620001bf565b82601f106200018f57805160ff1916838001178555620001bf565b82800160010185558215620001bf579182015b82811115620001bf578251825591602001919060010190620001a2565b50620001cd929150620001d1565b5090565b5b80821115620001cd5760008155600101620001d2565b600082601f830112620001f9578081fd5b81516001600160401b038082111562000216576200021662000494565b604051601f8301601f19908116603f0116810190828211818310171562000241576200024162000494565b816040528381526020925086838588010111156200025d578485fd5b8491505b8382101562000280578582018301518183018401529082019062000261565b838211156200029157848385830101525b9695505050505050565b600080600060608486031215620002b0578283fd5b83516001600160401b0380821115620002c7578485fd5b620002d587838801620001e8565b94506020860151915080821115620002eb578384fd5b50620002fa86828701620001e8565b925050604084015190509250925092565b600181815b808511156200034c5781600019048211156200033057620003306200047e565b808516156200033e57918102915b93841c939080029062000310565b509250929050565b600062000362838362000369565b9392505050565b6000826200037a5750600162000419565b81620003895750600062000419565b8160018114620003a25760028114620003ad57620003cd565b600191505062000419565b60ff841115620003c157620003c16200047e565b50506001821b62000419565b5060208310610133831016604e8410600b8410161715620003f2575081810a62000419565b620003fe83836200030b565b80600019048211156200041557620004156200047e565b0290505b92915050565b60008160001904831182151516156200043c576200043c6200047e565b500290565b600181811c908216806200045657607f821691505b602082108114156200047857634e487b7160e01b600052602260045260246000fd5b50919050565b634e487b7160e01b600052601160045260246000fd5b634e487b7160e01b600052604160045260246000fd5b610b3880620004ba6000396000f3fe608060405234801561001057600080fd5b50600436106101005760003560e01c806370a0823111610097578063a9059cbb11610066578063a9059cbb14610201578063dd62ed3e14610214578063f2fde38b1461023f578063fca3b5aa1461025257600080fd5b806370a08231146101be578063715018a6146101de5780638da5cb5b146101e857806395d89b41146101f957600080fd5b806323b872dd116100d357806323b872dd14610188578063313ce5671461019b57806333039d3d146101a357806340c10f19146101ab57600080fd5b806306fdde03146101055780630754617214610123578063095ea7b31461014e57806318160ddd14610171575b600080fd5b61010d610265565b60405161011a91906108f0565b60405180910390f35b600454610136906001600160a01b031681565b6040516001600160a01b03909116815260200161011a565b61016161015c3660046108c7565b6102f3565b604051901515815260200161011a565b61017a60035481565b60405190815260200161011a565b61016161019636600461088c565b610360565b61017a600c81565b61017a610439565b6101616101b93660046108c7565b610454565b61017a6101cc366004610840565b60056020526000908152604090205481565b6101e661051d565b005b6000546001600160a01b0316610136565b61010d610553565b61016161020f3660046108c7565b610560565b61017a61022236600461085a565b600660209081526000928352604080842090915290825290205481565b6101e661024d366004610840565b610576565b610161610260366004610840565b610611565b6002805461027290610ab1565b80601f016020809104026020016040519081016040528092919081815260200182805461029e90610ab1565b80156102eb5780601f106102c0576101008083540402835291602001916102eb565b820191906000526020600020905b8154815290600101906020018083116102ce57829003601f168201915b505050505081565b3360008181526006602090815260408083206001600160a01b038716808552925280832085905551919290917f8c5be1e5ebec7d5bd14f71427d1e84f3dd0314c0f7b2291e5b200ac8c7c3b9259061034e9086815260200190565b60405180910390a35060015b92915050565b6001600160a01b03831660009081526006602090815260408083203384529091528120548211156103d15760405162461bcd60e51b8152602060048201526016602482015275496e73756666696369656e7420616c6c6f77616e636560501b60448201526064015b60405180910390fd5b6001600160a01b03841660009081526006602090815260408083203384529091529020546103ff8184610660565b6001600160a01b038616600090815260066020908152604080832033845290915290205561042e858585610673565b506001949350505050565b610445600c600a6109d3565b610451906103e8610a7b565b81565b6004546000906001600160a01b0316331461046e57600080fd5b6001600160a01b03831660009081526005602052604090205461049190836107cd565b6001600160a01b0384166000908152600560205260409020556003546104b790836107cd565b60038190556104c8600c600a6109d3565b6104d4906103e8610a7b565b10156104df57600080fd5b6040518281526001600160a01b038416906000907fddf252ad1be2c89b69c2b068fc378daa952ba7f163c4a11628f55a4df523b3ef9060200161034e565b6000546001600160a01b031633146105475760405162461bcd60e51b81526004016103c890610943565b61055160006107d9565b565b6001805461027290610ab1565b600061056d338484610673565b50600192915050565b6000546001600160a01b031633146105a05760405162461bcd60e51b81526004016103c890610943565b6001600160a01b0381166106055760405162461bcd60e51b815260206004820152602660248201527f4f776e61626c653a206e6577206f776e657220697320746865207a65726f206160448201526564647265737360d01b60648201526084016103c8565b61060e816107d9565b50565b600080546001600160a01b0316331461063c5760405162461bcd60e51b81526004016103c890610943565b50600480546001600160a01b0319166001600160a01b03831617905560015b919050565b600061066c8284610a9a565b9392505050565b6001600160a01b0382166106bb5760405162461bcd60e51b815260206004820152600f60248201526e496e76616c6964206164647265737360881b60448201526064016103c8565b6001600160a01b03831660009081526005602052604090205481111561071a5760405162461bcd60e51b8152602060048201526014602482015273496e73756666696369656e742062616c616e636560601b60448201526064016103c8565b6001600160a01b03831660009081526005602052604090205461073d9082610660565b6001600160a01b03808516600090815260056020526040808220939093559084168152205461076c90826107cd565b6001600160a01b0380841660008181526005602052604090819020939093559151908516907fddf252ad1be2c89b69c2b068fc378daa952ba7f163c4a11628f55a4df523b3ef906107c09085815260200190565b60405180910390a3505050565b600061066c8284610978565b600080546001600160a01b038381166001600160a01b0319831681178455604051919092169283917f8be0079c531659141344cd1fd0a4f28419497f9722a3daafe3b4186f6b6457e09190a35050565b80356001600160a01b038116811461065b57600080fd5b600060208284031215610851578081fd5b61066c82610829565b6000806040838503121561086c578081fd5b61087583610829565b915061088360208401610829565b90509250929050565b6000806000606084860312156108a0578081fd5b6108a984610829565b92506108b760208501610829565b9150604084013590509250925092565b600080604083850312156108d9578182fd5b6108e283610829565b946020939093013593505050565b6000602080835283518082850152825b8181101561091c57858101830151858201604001528201610900565b8181111561092d5783604083870101525b50601f01601f1916929092016040019392505050565b6020808252818101527f4f776e61626c653a2063616c6c6572206973206e6f7420746865206f776e6572604082015260600190565b6000821982111561098b5761098b610aec565b500190565b600181815b808511156109cb5781600019048211156109b1576109b1610aec565b808516156109be57918102915b93841c9390800290610995565b509250929050565b600061066c83836000826109e95750600161035a565b816109f65750600061035a565b8160018114610a0c5760028114610a1657610a32565b600191505061035a565b60ff841115610a2757610a27610aec565b50506001821b61035a565b5060208310610133831016604e8410600b8410161715610a55575081810a61035a565b610a5f8383610990565b8060001904821115610a7357610a73610aec565b029392505050565b6000816000190483118215151615610a9557610a95610aec565b500290565b600082821015610aac57610aac610aec565b500390565b600181811c90821680610ac557607f821691505b60208210811415610ae657634e487b7160e01b600052602260045260246000fd5b50919050565b634e487b7160e01b600052601160045260246000fdfea26469706673582212206547bdc8a94983782a3a6ff4dcd3099a44bf5f8343871c74ba8cddea05e63c3e64736f6c63430008040033",
  "linkReferences": {},
  "deployedLinkReferences": {}
}