{
  "address": "0xe7f1725E7734CE288F8367e1Bb143E90bb3F0512",
  "abi": [
    {
      "inputs": [
        {
          "internalType": "contract SimpleERC20",
          "name": "_sushi",
          "type": "address"
        },
        {
          "internalType": "address",
          "name": "_devaddr",
          "type": "address"
        },
        {
          "internalType": "uint256",
          "name": "_sushiPerDay",
          "type": "uint256"
        },
        {
          "internalType": "uint256",
          "name": "_startBlock",
          "type": "uint256"
        },
        {
          "internalType": "uint256",
          "name": "_bonusEndBlock",
          "type": "uint256"
        }
      ],
      "stateMutability": "nonpayable",
      "type": "constructor"
    },
    {
      "anonymous": false,
      "inputs": [
        {
          "indexed": true,
          "internalType": "address",
          "name": "user",
          "type": "address"
        },
        {
          "indexed": true,
          "internalType": "uint256",
          "name": "pid",
          "type": "uint256"
        },
        {
          "indexed": false,
          "internalType": "uint256",
          "name": "amount",
          "type": "uint256"
        }
      ],
      "name": "Deposit",
      "type": "event"
    },
    {
      "anonymous": false,
      "inputs": [
        {
          "indexed": true,
          "internalType": "address",
          "name": "user",
          "type": "address"
        },
        {
          "indexed": true,
          "internalType": "uint256",
          "name": "pid",
          "type": "uint256"
        },
        {
          "indexed": false,
          "internalType": "uint256",
          "name": "amount",
          "type": "uint256"
        }
      ],
      "name": "EmergencyWithdraw",
      "type": "event"
    },
    {
      "anonymous": false,
      "inputs": [
        {
          "indexed": true,
          "internalType": "address",
          "name": "previousOwner",
          "type": "address"
        },
        {
          "indexed": true,
          "internalType": "address",
          "name": "newOwner",
          "type": "address"
        }
      ],
      "name": "OwnershipTransferred",
      "type": "event"
    },
    {
      "anonymous": false,
      "inputs": [
        {
          "indexed": true,
          "internalType": "address",
          "name": "user",
          "type": "address"
        },
        {
          "indexed": true,
          "internalType": "uint256",
          "name": "pid",
          "type": "uint256"
        },
        {
          "indexed": false,
          "internalType": "uint256",
          "name": "amount",
          "type": "uint256"
        }
      ],
      "name": "Withdraw",
      "type": "event"
    },
    {
      "inputs": [],
      "name": "BONUS_MULTIPLIER",
      "outputs": [
        {
          "internalType": "uint256",
          "name": "",
          "type": "uint256"
        }
      ],
      "stateMutability": "view",
      "type": "function"
    },
    {
      "inputs": [
        {
          "internalType": "uint256",
          "name": "_allocPoint",
          "type": "uint256"
        },
        {
          "internalType": "contract IERC20",
          "name": "_lpToken",
          "type": "address"
        },
        {
          "internalType": "bool",
          "name": "_withUpdate",
          "type": "bool"
        }
      ],
      "name": "add",
      "outputs": [],
      "stateMutability": "nonpayable",
      "type": "function"
    },
    {
      "inputs": [],
      "name": "bonusEndBlock",
      "outputs": [
        {
          "internalType": "uint256",
          "name": "",
          "type": "uint256"
        }
      ],
      "stateMutability": "view",
      "type": "function"
    },
    {
      "inputs": [
        {
          "internalType": "uint256",
          "name": "_pid",
          "type": "uint256"
        },
        {
          "internalType": "uint256",
          "name": "_amount",
          "type": "uint256"
        }
      ],
      "name": "deposit",
      "outputs": [],
      "stateMutability": "nonpayable",
      "type": "function"
    },
    {
      "inputs": [
        {
          "internalType": "address",
          "name": "_devaddr",
          "type": "address"
        }
      ],
      "name": "dev",
      "outputs": [],
      "stateMutability": "nonpayable",
      "type": "function"
    },
    {
      "inputs": [],
      "name": "devaddr",
      "outputs": [
        {
          "internalType": "address",
          "name": "",
          "type": "address"
        }
      ],
      "stateMutability": "view",
      "type": "function"
    },
    {
      "inputs": [
        {
          "internalType": "uint256",
          "name": "_pid",
          "type": "uint256"
        }
      ],
      "name": "emergencyWithdraw",
      "outputs": [],
      "stateMutability": "nonpayable",
      "type": "function"
    },
    {
      "inputs": [],
      "name": "massUpdatePools",
      "outputs": [],
      "stateMutability": "nonpayable",
      "type": "function"
    },
    {
      "inputs": [
        {
          "internalType": "uint256",
          "name": "_pid",
          "type": "uint256"
        }
      ],
      "name": "migrate",
      "outputs": [],
      "stateMutability": "nonpayable",
      "type": "function"
    },
    {
      "inputs": [],
      "name": "migrator",
      "outputs": [
        {
          "internalType": "contract IMigratorChef",
          "name": "",
          "type": "address"
        }
      ],
      "stateMutability": "view",
      "type": "function"
    },
    {
      "inputs": [],
      "name": "owner",
      "outputs": [
        {
          "internalType": "address",
          "name": "",
          "type": "address"
        }
      ],
      "stateMutability": "view",
      "type": "function"
    },
    {
      "inputs": [
        {
          "internalType": "uint256",
          "name": "_pid",
          "type": "uint256"
        },
        {
          "internalType": "address",
          "name": "_user",
          "type": "address"
        }
      ],
      "name": "pendingSushi",
      "outputs": [
        {
          "internalType": "uint256",
          "name": "",
          "type": "uint256"
        }
      ],
      "stateMutability": "view",
      "type": "function"
    },
    {
      "inputs": [
        {
          "internalType": "uint256",
          "name": "",
          "type": "uint256"
        }
      ],
      "name": "poolInfo",
      "outputs": [
        {
          "internalType": "contract IERC20",
          "name": "lpToken",
          "type": "address"
        },
        {
          "internalType": "uint256",
          "name": "allocPoint",
          "type": "uint256"
        },
        {
          "internalType": "uint256",
          "name": "lastRewardTime",
          "type": "uint256"
        },
        {
          "internalType": "uint256",
          "name": "accSushiPerShare",
          "type": "uint256"
        }
      ],
      "stateMutability": "view",
      "type": "function"
    },
    {
      "inputs": [],
      "name": "poolLength",
      "outputs": [
        {
          "internalType": "uint256",
          "name": "",
          "type": "uint256"
        }
      ],
      "stateMutability": "view",
      "type": "function"
    },
    {
      "inputs": [],
      "name": "renounceOwnership",
      "outputs": [],
      "stateMutability": "nonpayable",
      "type": "function"
    },
    {
      "inputs": [
        {
          "internalType": "uint256",
          "name": "_pid",
          "type": "uint256"
        },
        {
          "internalType": "uint256",
          "name": "_allocPoint",
          "type": "uint256"
        },
        {
          "internalType": "bool",
          "name": "_withUpdate",
          "type": "bool"
        }
      ],
      "name": "set",
      "outputs": [],
      "stateMutability": "nonpayable",
      "type": "function"
    },
    {
      "inputs": [
        {
          "internalType": "contract IMigratorChef",
          "name": "_migrator",
          "type": "address"
        }
      ],
      "name": "setMigrator",
      "outputs": [],
      "stateMutability": "nonpayable",
      "type": "function"
    },
    {
      "inputs": [],
      "name": "startBlock",
      "outputs": [
        {
          "internalType": "uint256",
          "name": "",
          "type": "uint256"
        }
      ],
      "stateMutability": "view",
      "type": "function"
    },
    {
      "inputs": [],
      "name": "sushi",
      "outputs": [
        {
          "internalType": "contract SimpleERC20",
          "name": "",
          "type": "address"
        }
      ],
      "stateMutability": "view",
      "type": "function"
    },
    {
      "inputs": [],
      "name": "sushiPerDay",
      "outputs": [
        {
          "internalType": "uint256",
          "name": "",
          "type": "uint256"
        }
      ],
      "stateMutability": "view",
      "type": "function"
    },
    {
      "inputs": [],
      "name": "totalAllocPoint",
      "outputs": [
        {
          "internalType": "uint256",
          "name": "",
          "type": "uint256"
        }
      ],
      "stateMutability": "view",
      "type": "function"
    },
    {
      "inputs": [
        {
          "internalType": "address",
          "name": "newOwner",
          "type": "address"
        }
      ],
      "name": "transferOwnership",
      "outputs": [],
      "stateMutability": "nonpayable",
      "type": "function"
    },
    {
      "inputs": [
        {
          "internalType": "uint256",
          "name": "_pid",
          "type": "uint256"
        }
      ],
      "name": "updatePool",
      "outputs": [],
      "stateMutability": "nonpayable",
      "type": "function"
    },
    {
      "inputs": [
        {
          "internalType": "uint256",
          "name": "",
          "type": "uint256"
        },
        {
          "internalType": "address",
          "name": "",
          "type": "address"
        }
      ],
      "name": "userInfo",
      "outputs": [
        {
          "internalType": "uint256",
          "name": "amount",
          "type": "uint256"
        },
        {
          "internalType": "uint256",
          "name": "rewardDebt",
          "type": "uint256"
        }
      ],
      "stateMutability": "view",
      "type": "function"
    },
    {
      "inputs": [
        {
          "internalType": "uint256",
          "name": "_pid",
          "type": "uint256"
        },
        {
          "internalType": "uint256",
          "name": "_amount",
          "type": "uint256"
        }
      ],
      "name": "withdraw",
      "outputs": [],
      "stateMutability": "nonpayable",
      "type": "function"
    }
  ],
  "transactionHash": "0x0ba8a9b50a435ab18d383539fe612e6873ece1cc160919e6e6c7a53a2876fcbf",
  "args": [
    "0x5FbDB2315678afecb367f032d93F642f64180aa3",
    "0xf39Fd6e51aad88F6F4ce6aB8827279cffFb92266",
    100000,
    0,
    1000000000
  ],
  "numDeployments": 1,
  "solcInputHash": "5deeaa4cdaf45bbb83512b8e0fc5a927",
  "bytecode": "0x608060405260006008553480156200001657600080fd5b50604051620034453803806200344583398181016040528101906200003c91906200020f565b6200005c62000050620000fe60201b60201c565b6200010660201b60201c565b84600160006101000a81548173ffffffffffffffffffffffffffffffffffffffff021916908373ffffffffffffffffffffffffffffffffffffffff16021790555083600260006101000a81548173ffffffffffffffffffffffffffffffffffffffff021916908373ffffffffffffffffffffffffffffffffffffffff160217905550826004819055508060038190555081600981905550505050505062000331565b600033905090565b60008060009054906101000a900473ffffffffffffffffffffffffffffffffffffffff169050816000806101000a81548173ffffffffffffffffffffffffffffffffffffffff021916908373ffffffffffffffffffffffffffffffffffffffff1602179055508173ffffffffffffffffffffffffffffffffffffffff168173ffffffffffffffffffffffffffffffffffffffff167f8be0079c531659141344cd1fd0a4f28419497f9722a3daafe3b4186f6b6457e060405160405180910390a35050565b600081519050620001db81620002e3565b92915050565b600081519050620001f281620002fd565b92915050565b600081519050620002098162000317565b92915050565b600080600080600060a086880312156200022857600080fd5b60006200023888828901620001e1565b95505060206200024b88828901620001ca565b94505060406200025e88828901620001f8565b93505060606200027188828901620001f8565b92505060806200028488828901620001f8565b9150509295509295909350565b60006200029e82620002b9565b9050919050565b6000620002b28262000291565b9050919050565b600073ffffffffffffffffffffffffffffffffffffffff82169050919050565b6000819050919050565b620002ee8162000291565b8114620002fa57600080fd5b50565b6200030881620002a5565b81146200031457600080fd5b50565b6200032281620002d9565b81146200032e57600080fd5b50565b61310480620003416000396000f3fe608060405234801561001057600080fd5b50600436106101735760003560e01c80635312ea8e116100de5780638d88a90e11610097578063af81061011610071578063af810610146103f0578063d49e77cd1461040e578063e2bbb1581461042c578063f2fde38b1461044857610173565b80638d88a90e146103855780638da5cb5b146103a157806393f1a40b146103bf57610173565b80635312ea8e146102fd578063630b5ba11461031957806364482f7914610323578063715018a61461033f5780637cd07e47146103495780638aa285501461036757610173565b80631eaaa045116101305780631eaaa0451461025357806323cf31181461026f578063441a3e701461028b578063454b0608146102a757806348cd4cb1146102c357806351eb05a6146102e157610173565b8063081e3eda146101785780630a087903146101965780631526fe27146101b457806317caf6f1146101e7578063195426ec146102055780631aed655314610235575b600080fd5b610180610464565b60405161018d9190612adb565b60405180910390f35b61019e610471565b6040516101ab919061295e565b60405180910390f35b6101ce60048036038101906101c991906124ad565b610497565b6040516101de94939291906128fe565b60405180910390f35b6101ef6104f7565b6040516101fc9190612adb565b60405180910390f35b61021f600480360381019061021a91906124ff565b6104fd565b60405161022c9190612adb565b60405180910390f35b61023d61077d565b60405161024a9190612adb565b60405180910390f35b61026d6004803603810190610268919061253b565b610783565b005b61028960048036038101906102849190612484565b6108fe565b005b6102a560048036038101906102a0919061258a565b6109be565b005b6102c160048036038101906102bc91906124ad565b610c02565b005b6102cb610fa8565b6040516102d89190612adb565b60405180910390f35b6102fb60048036038101906102f691906124ad565b610fae565b005b610317600480360381019061031291906124ad565b611345565b005b6103216114a4565b005b61033d600480360381019061033891906125c6565b6114d7565b005b61034761162f565b005b6103516116b7565b60405161035e9190612943565b60405180910390f35b61036f6116dd565b60405161037c9190612adb565b60405180910390f35b61039f600480360381019061039a9190612409565b6116e2565b005b6103a96117b6565b6040516103b6919061283f565b60405180910390f35b6103d960048036038101906103d491906124ff565b6117df565b6040516103e7929190612af6565b60405180910390f35b6103f8611810565b6040516104059190612adb565b60405180910390f35b610416611816565b604051610423919061283f565b60405180910390f35b6104466004803603810190610441919061258a565b61183c565b005b610462600480360381019061045d9190612409565b611a49565b005b6000600680549050905090565b600160009054906101000a900473ffffffffffffffffffffffffffffffffffffffff1681565b600681815481106104a757600080fd5b90600052602060002090600402016000915090508060000160009054906101000a900473ffffffffffffffffffffffffffffffffffffffff16908060010154908060020154908060030154905084565b60085481565b6000806006848154811061053a577f4e487b7100000000000000000000000000000000000000000000000000000000600052603260045260246000fd5b9060005260206000209060040201905060006007600086815260200190815260200160002060008573ffffffffffffffffffffffffffffffffffffffff1673ffffffffffffffffffffffffffffffffffffffff168152602001908152602001600020905060008260030154905060008360000160009054906101000a900473ffffffffffffffffffffffffffffffffffffffff1673ffffffffffffffffffffffffffffffffffffffff166370a08231306040518263ffffffff1660e01b8152600401610606919061283f565b60206040518083038186803b15801561061e57600080fd5b505afa158015610632573d6000803e3d6000fd5b505050506040513d601f19601f8201168201806040525081019061065691906124d6565b905083600201544211801561066c575060008114155b1561072d5760006106bc60186106ae603c6106a0603c8a60020154426106929190612c32565b611b4190919063ffffffff16565b611b4190919063ffffffff16565b611b4190919063ffffffff16565b905060006008548660010154600454846106d69190612bd8565b6106e09190612bd8565b6106ea9190612ba7565b90506107286107198461070b64e8d4a5100085611b5790919063ffffffff16565b611b4190919063ffffffff16565b85611b6d90919063ffffffff16565b935050505b610771836001015461076364e8d4a51000610755868860000154611b5790919063ffffffff16565b611b4190919063ffffffff16565b611b8390919063ffffffff16565b94505050505092915050565b60035481565b61078b611b99565b73ffffffffffffffffffffffffffffffffffffffff166107a96117b6565b73ffffffffffffffffffffffffffffffffffffffff16146107ff576040517f08c379a00000000000000000000000000000000000000000000000000000000081526004016107f6906129fb565b60405180910390fd5b801561080e5761080d6114a4565b5b600042905061082884600854611b6d90919063ffffffff16565b600881905550600660405180608001604052808573ffffffffffffffffffffffffffffffffffffffff1681526020018681526020018381526020016000815250908060018154018082558091505060019003906000526020600020906004020160009091909190915060008201518160000160006101000a81548173ffffffffffffffffffffffffffffffffffffffff021916908373ffffffffffffffffffffffffffffffffffffffff160217905550602082015181600101556040820151816002015560608201518160030155505050505050565b610906611b99565b73ffffffffffffffffffffffffffffffffffffffff166109246117b6565b73ffffffffffffffffffffffffffffffffffffffff161461097a576040517f08c379a0000000000000000000000000000000000000000000000000000000008152600401610971906129fb565b60405180910390fd5b80600560006101000a81548173ffffffffffffffffffffffffffffffffffffffff021916908373ffffffffffffffffffffffffffffffffffffffff16021790555050565b6000600683815481106109fa577f4e487b7100000000000000000000000000000000000000000000000000000000600052603260045260246000fd5b9060005260206000209060040201905060006007600085815260200190815260200160002060003373ffffffffffffffffffffffffffffffffffffffff1673ffffffffffffffffffffffffffffffffffffffff16815260200190815260200160002090508281600001541015610aa5576040517f08c379a0000000000000000000000000000000000000000000000000000000008152600401610a9c90612a3b565b60405180910390fd5b610aae84610fae565b6000610af88260010154610aea64e8d4a51000610adc87600301548760000154611b5790919063ffffffff16565b611b4190919063ffffffff16565b611b8390919063ffffffff16565b9050610b043382611ba1565b610b1b848360000154611b8390919063ffffffff16565b8260000181905550610b5564e8d4a51000610b4785600301548560000154611b5790919063ffffffff16565b611b4190919063ffffffff16565b8260010181905550610bac33858560000160009054906101000a900473ffffffffffffffffffffffffffffffffffffffff1673ffffffffffffffffffffffffffffffffffffffff16611dc39092919063ffffffff16565b843373ffffffffffffffffffffffffffffffffffffffff167ff279e6a1f5e320cca91135676d9cb6e44ca8a08c0b88342bcdb1144f6511b56886604051610bf39190612adb565b60405180910390a35050505050565b600073ffffffffffffffffffffffffffffffffffffffff16600560009054906101000a900473ffffffffffffffffffffffffffffffffffffffff1673ffffffffffffffffffffffffffffffffffffffff161415610c94576040517f08c379a0000000000000000000000000000000000000000000000000000000008152600401610c8b90612abb565b60405180910390fd5b600060068281548110610cd0577f4e487b7100000000000000000000000000000000000000000000000000000000600052603260045260246000fd5b9060005260206000209060040201905060008160000160009054906101000a900473ffffffffffffffffffffffffffffffffffffffff16905060008173ffffffffffffffffffffffffffffffffffffffff166370a08231306040518263ffffffff1660e01b8152600401610d44919061283f565b60206040518083038186803b158015610d5c57600080fd5b505afa158015610d70573d6000803e3d6000fd5b505050506040513d601f19601f82011682018060405250810190610d9491906124d6565b9050610de3600560009054906101000a900473ffffffffffffffffffffffffffffffffffffffff16828473ffffffffffffffffffffffffffffffffffffffff16611e499092919063ffffffff16565b6000600560009054906101000a900473ffffffffffffffffffffffffffffffffffffffff1673ffffffffffffffffffffffffffffffffffffffff1663ce5494bb846040518263ffffffff1660e01b8152600401610e4091906128e3565b602060405180830381600087803b158015610e5a57600080fd5b505af1158015610e6e573d6000803e3d6000fd5b505050506040513d601f19601f82011682018060405250810190610e92919061245b565b90508073ffffffffffffffffffffffffffffffffffffffff166370a08231306040518263ffffffff1660e01b8152600401610ecd919061283f565b60206040518083038186803b158015610ee557600080fd5b505afa158015610ef9573d6000803e3d6000fd5b505050506040513d601f19601f82011682018060405250810190610f1d91906124d6565b8214610f5e576040517f08c379a0000000000000000000000000000000000000000000000000000000008152600401610f5590612a7b565b60405180910390fd5b808460000160006101000a81548173ffffffffffffffffffffffffffffffffffffffff021916908373ffffffffffffffffffffffffffffffffffffffff1602179055505050505050565b60095481565b600060068281548110610fea577f4e487b7100000000000000000000000000000000000000000000000000000000600052603260045260246000fd5b906000526020600020906004020190508060020154421161100b5750611342565b60008160000160009054906101000a900473ffffffffffffffffffffffffffffffffffffffff1673ffffffffffffffffffffffffffffffffffffffff166370a08231306040518263ffffffff1660e01b815260040161106a919061283f565b60206040518083038186803b15801561108257600080fd5b505afa158015611096573d6000803e3d6000fd5b505050506040513d601f19601f820116820180604052508101906110ba91906124d6565b905060008114156110d5574282600201819055505050611342565b60006111276018611119603c61110b603c6110fd896002015442611b8390919063ffffffff16565b611b4190919063ffffffff16565b611b4190919063ffffffff16565b611b4190919063ffffffff16565b905060006008548460010154600454846111419190612bd8565b61114b9190612bd8565b6111559190612ba7565b9050600160009054906101000a900473ffffffffffffffffffffffffffffffffffffffff1673ffffffffffffffffffffffffffffffffffffffff166340c10f19600260009054906101000a900473ffffffffffffffffffffffffffffffffffffffff166111cc600a85611b4190919063ffffffff16565b6040518363ffffffff1660e01b81526004016111e99291906128ba565b602060405180830381600087803b15801561120357600080fd5b505af1158015611217573d6000803e3d6000fd5b505050506040513d601f19601f8201168201806040525081019061123b9190612432565b50600160009054906101000a900473ffffffffffffffffffffffffffffffffffffffff1673ffffffffffffffffffffffffffffffffffffffff166340c10f1930836040518363ffffffff1660e01b81526004016112999291906128ba565b602060405180830381600087803b1580156112b357600080fd5b505af11580156112c7573d6000803e3d6000fd5b505050506040513d601f19601f820116820180604052508101906112eb9190612432565b5061132c6113198461130b64e8d4a5100085611b5790919063ffffffff16565b611b4190919063ffffffff16565b8560030154611b6d90919063ffffffff16565b8460030181905550428460020181905550505050505b50565b600060068281548110611381577f4e487b7100000000000000000000000000000000000000000000000000000000600052603260045260246000fd5b9060005260206000209060040201905060006007600084815260200190815260200160002060003373ffffffffffffffffffffffffffffffffffffffff1673ffffffffffffffffffffffffffffffffffffffff16815260200190815260200160002090506114383382600001548460000160009054906101000a900473ffffffffffffffffffffffffffffffffffffffff1673ffffffffffffffffffffffffffffffffffffffff16611dc39092919063ffffffff16565b823373ffffffffffffffffffffffffffffffffffffffff167fbb757047c2b5f3974fe26b7c10f732e7bce710b0952a71082702781e62ae059583600001546040516114839190612adb565b60405180910390a36000816000018190555060008160010181905550505050565b6000600680549050905060005b818110156114d3576114c281610fae565b806114cc90612d71565b90506114b1565b5050565b6114df611b99565b73ffffffffffffffffffffffffffffffffffffffff166114fd6117b6565b73ffffffffffffffffffffffffffffffffffffffff1614611553576040517f08c379a000000000000000000000000000000000000000000000000000000000815260040161154a906129fb565b60405180910390fd5b8015611562576115616114a4565b5b6115d4826115c6600686815481106115a3577f4e487b7100000000000000000000000000000000000000000000000000000000600052603260045260246000fd5b906000526020600020906004020160010154600854611b8390919063ffffffff16565b611b6d90919063ffffffff16565b6008819055508160068481548110611615577f4e487b7100000000000000000000000000000000000000000000000000000000600052603260045260246000fd5b906000526020600020906004020160010181905550505050565b611637611b99565b73ffffffffffffffffffffffffffffffffffffffff166116556117b6565b73ffffffffffffffffffffffffffffffffffffffff16146116ab576040517f08c379a00000000000000000000000000000000000000000000000000000000081526004016116a2906129fb565b60405180910390fd5b6116b56000611fa7565b565b600560009054906101000a900473ffffffffffffffffffffffffffffffffffffffff1681565b600a81565b600260009054906101000a900473ffffffffffffffffffffffffffffffffffffffff1673ffffffffffffffffffffffffffffffffffffffff163373ffffffffffffffffffffffffffffffffffffffff1614611772576040517f08c379a0000000000000000000000000000000000000000000000000000000008152600401611769906129db565b60405180910390fd5b80600260006101000a81548173ffffffffffffffffffffffffffffffffffffffff021916908373ffffffffffffffffffffffffffffffffffffffff16021790555050565b60008060009054906101000a900473ffffffffffffffffffffffffffffffffffffffff16905090565b6007602052816000526040600020602052806000526040600020600091509150508060000154908060010154905082565b60045481565b600260009054906101000a900473ffffffffffffffffffffffffffffffffffffffff1681565b600060068381548110611878577f4e487b7100000000000000000000000000000000000000000000000000000000600052603260045260246000fd5b9060005260206000209060040201905060006007600085815260200190815260200160002060003373ffffffffffffffffffffffffffffffffffffffff1673ffffffffffffffffffffffffffffffffffffffff16815260200190815260200160002090506118e584610fae565b60008160000154111561194a57600061193c826001015461192e64e8d4a5100061192087600301548760000154611b5790919063ffffffff16565b611b4190919063ffffffff16565b611b8390919063ffffffff16565b90506119483382611ba1565b505b61199b3330858560000160009054906101000a900473ffffffffffffffffffffffffffffffffffffffff1673ffffffffffffffffffffffffffffffffffffffff1661206b909392919063ffffffff16565b6119b2838260000154611b6d90919063ffffffff16565b81600001819055506119ec64e8d4a510006119de84600301548460000154611b5790919063ffffffff16565b611b4190919063ffffffff16565b8160010181905550833373ffffffffffffffffffffffffffffffffffffffff167f90890809c654f11d6e72a28fa60149770a0d11ec6c92319d6ceb2bb0a4ea1a1585604051611a3b9190612adb565b60405180910390a350505050565b611a51611b99565b73ffffffffffffffffffffffffffffffffffffffff16611a6f6117b6565b73ffffffffffffffffffffffffffffffffffffffff1614611ac5576040517f08c379a0000000000000000000000000000000000000000000000000000000008152600401611abc906129fb565b60405180910390fd5b600073ffffffffffffffffffffffffffffffffffffffff168173ffffffffffffffffffffffffffffffffffffffff161415611b35576040517f08c379a0000000000000000000000000000000000000000000000000000000008152600401611b2c9061299b565b60405180910390fd5b611b3e81611fa7565b50565b60008183611b4f9190612ba7565b905092915050565b60008183611b659190612bd8565b905092915050565b60008183611b7b9190612b51565b905092915050565b60008183611b919190612c32565b905092915050565b600033905090565b6000600160009054906101000a900473ffffffffffffffffffffffffffffffffffffffff1673ffffffffffffffffffffffffffffffffffffffff166370a08231306040518263ffffffff1660e01b8152600401611bfe919061283f565b60206040518083038186803b158015611c1657600080fd5b505afa158015611c2a573d6000803e3d6000fd5b505050506040513d601f19601f82011682018060405250810190611c4e91906124d6565b905080821115611d0d57600160009054906101000a900473ffffffffffffffffffffffffffffffffffffffff1673ffffffffffffffffffffffffffffffffffffffff1663a9059cbb84836040518363ffffffff1660e01b8152600401611cb59291906128ba565b602060405180830381600087803b158015611ccf57600080fd5b505af1158015611ce3573d6000803e3d6000fd5b505050506040513d601f19601f82011682018060405250810190611d079190612432565b50611dbe565b600160009054906101000a900473ffffffffffffffffffffffffffffffffffffffff1673ffffffffffffffffffffffffffffffffffffffff1663a9059cbb84846040518363ffffffff1660e01b8152600401611d6a9291906128ba565b602060405180830381600087803b158015611d8457600080fd5b505af1158015611d98573d6000803e3d6000fd5b505050506040513d601f19601f82011682018060405250810190611dbc9190612432565b505b505050565b611e448363a9059cbb60e01b8484604051602401611de29291906128ba565b604051602081830303815290604052907bffffffffffffffffffffffffffffffffffffffffffffffffffffffff19166020820180517bffffffffffffffffffffffffffffffffffffffffffffffffffffffff83818316178352505050506120f4565b505050565b6000811480611ee2575060008373ffffffffffffffffffffffffffffffffffffffff1663dd62ed3e30856040518363ffffffff1660e01b8152600401611e9092919061285a565b60206040518083038186803b158015611ea857600080fd5b505afa158015611ebc573d6000803e3d6000fd5b505050506040513d601f19601f82011682018060405250810190611ee091906124d6565b145b611f21576040517f08c379a0000000000000000000000000000000000000000000000000000000008152600401611f1890612a9b565b60405180910390fd5b611fa28363095ea7b360e01b8484604051602401611f409291906128ba565b604051602081830303815290604052907bffffffffffffffffffffffffffffffffffffffffffffffffffffffff19166020820180517bffffffffffffffffffffffffffffffffffffffffffffffffffffffff83818316178352505050506120f4565b505050565b60008060009054906101000a900473ffffffffffffffffffffffffffffffffffffffff169050816000806101000a81548173ffffffffffffffffffffffffffffffffffffffff021916908373ffffffffffffffffffffffffffffffffffffffff1602179055508173ffffffffffffffffffffffffffffffffffffffff168173ffffffffffffffffffffffffffffffffffffffff167f8be0079c531659141344cd1fd0a4f28419497f9722a3daafe3b4186f6b6457e060405160405180910390a35050565b6120ee846323b872dd60e01b85858560405160240161208c93929190612883565b604051602081830303815290604052907bffffffffffffffffffffffffffffffffffffffffffffffffffffffff19166020820180517bffffffffffffffffffffffffffffffffffffffffffffffffffffffff83818316178352505050506120f4565b50505050565b6000612156826040518060400160405280602081526020017f5361666545524332303a206c6f772d6c6576656c2063616c6c206661696c65648152508573ffffffffffffffffffffffffffffffffffffffff166121bb9092919063ffffffff16565b90506000815111156121b657808060200190518101906121769190612432565b6121b5576040517f08c379a00000000000000000000000000000000000000000000000000000000081526004016121ac90612a5b565b60405180910390fd5b5b505050565b60606121ca84846000856121d3565b90509392505050565b606082471015612218576040517f08c379a000000000000000000000000000000000000000000000000000000000815260040161220f906129bb565b60405180910390fd5b612221856122e7565b612260576040517f08c379a000000000000000000000000000000000000000000000000000000000815260040161225790612a1b565b60405180910390fd5b6000808673ffffffffffffffffffffffffffffffffffffffff1685876040516122899190612828565b60006040518083038185875af1925050503d80600081146122c6576040519150601f19603f3d011682016040523d82523d6000602084013e6122cb565b606091505b50915091506122db8282866122fa565b92505050949350505050565b600080823b905060008111915050919050565b6060831561230a5782905061235a565b60008351111561231d5782518084602001fd5b816040517f08c379a00000000000000000000000000000000000000000000000000000000081526004016123519190612979565b60405180910390fd5b9392505050565b6000813590506123708161305b565b92915050565b60008135905061238581613072565b92915050565b60008151905061239a81613072565b92915050565b6000813590506123af81613089565b92915050565b6000815190506123c481613089565b92915050565b6000813590506123d9816130a0565b92915050565b6000813590506123ee816130b7565b92915050565b600081519050612403816130b7565b92915050565b60006020828403121561241b57600080fd5b600061242984828501612361565b91505092915050565b60006020828403121561244457600080fd5b60006124528482850161238b565b91505092915050565b60006020828403121561246d57600080fd5b600061247b848285016123b5565b91505092915050565b60006020828403121561249657600080fd5b60006124a4848285016123ca565b91505092915050565b6000602082840312156124bf57600080fd5b60006124cd848285016123df565b91505092915050565b6000602082840312156124e857600080fd5b60006124f6848285016123f4565b91505092915050565b6000806040838503121561251257600080fd5b6000612520858286016123df565b925050602061253185828601612361565b9150509250929050565b60008060006060848603121561255057600080fd5b600061255e868287016123df565b935050602061256f868287016123a0565b925050604061258086828701612376565b9150509250925092565b6000806040838503121561259d57600080fd5b60006125ab858286016123df565b92505060206125bc858286016123df565b9150509250929050565b6000806000606084860312156125db57600080fd5b60006125e9868287016123df565b93505060206125fa868287016123df565b925050604061260b86828701612376565b9150509250925092565b61261e81612c66565b82525050565b600061262f82612b1f565b6126398185612b35565b9350612649818560208601612d3e565b80840191505092915050565b61265e81612cd2565b82525050565b61266d81612cf6565b82525050565b61267c81612d1a565b82525050565b600061268d82612b2a565b6126978185612b40565b93506126a7818560208601612d3e565b6126b081612e18565b840191505092915050565b60006126c8602683612b40565b91506126d382612e29565b604082019050919050565b60006126eb602683612b40565b91506126f682612e78565b604082019050919050565b600061270e600983612b40565b915061271982612ec7565b602082019050919050565b6000612731602083612b40565b915061273c82612ef0565b602082019050919050565b6000612754601d83612b40565b915061275f82612f19565b602082019050919050565b6000612777601283612b40565b915061278282612f42565b602082019050919050565b600061279a602a83612b40565b91506127a582612f6b565b604082019050919050565b60006127bd600c83612b40565b91506127c882612fba565b602082019050919050565b60006127e0603683612b40565b91506127eb82612fe3565b604082019050919050565b6000612803601483612b40565b915061280e82613032565b602082019050919050565b61282281612cc8565b82525050565b60006128348284612624565b915081905092915050565b60006020820190506128546000830184612615565b92915050565b600060408201905061286f6000830185612615565b61287c6020830184612615565b9392505050565b60006060820190506128986000830186612615565b6128a56020830185612615565b6128b26040830184612819565b949350505050565b60006040820190506128cf6000830185612615565b6128dc6020830184612819565b9392505050565b60006020820190506128f86000830184612655565b92915050565b60006080820190506129136000830187612655565b6129206020830186612819565b61292d6040830185612819565b61293a6060830184612819565b95945050505050565b60006020820190506129586000830184612664565b92915050565b60006020820190506129736000830184612673565b92915050565b600060208201905081810360008301526129938184612682565b905092915050565b600060208201905081810360008301526129b4816126bb565b9050919050565b600060208201905081810360008301526129d4816126de565b9050919050565b600060208201905081810360008301526129f481612701565b9050919050565b60006020820190508181036000830152612a1481612724565b9050919050565b60006020820190508181036000830152612a3481612747565b9050919050565b60006020820190508181036000830152612a548161276a565b9050919050565b60006020820190508181036000830152612a748161278d565b9050919050565b60006020820190508181036000830152612a94816127b0565b9050919050565b60006020820190508181036000830152612ab4816127d3565b9050919050565b60006020820190508181036000830152612ad4816127f6565b9050919050565b6000602082019050612af06000830184612819565b92915050565b6000604082019050612b0b6000830185612819565b612b186020830184612819565b9392505050565b600081519050919050565b600081519050919050565b600081905092915050565b600082825260208201905092915050565b6000612b5c82612cc8565b9150612b6783612cc8565b9250827fffffffffffffffffffffffffffffffffffffffffffffffffffffffffffffffff03821115612b9c57612b9b612dba565b5b828201905092915050565b6000612bb282612cc8565b9150612bbd83612cc8565b925082612bcd57612bcc612de9565b5b828204905092915050565b6000612be382612cc8565b9150612bee83612cc8565b9250817fffffffffffffffffffffffffffffffffffffffffffffffffffffffffffffffff0483118215151615612c2757612c26612dba565b5b828202905092915050565b6000612c3d82612cc8565b9150612c4883612cc8565b925082821015612c5b57612c5a612dba565b5b828203905092915050565b6000612c7182612ca8565b9050919050565b60008115159050919050565b6000612c8f82612c66565b9050919050565b6000612ca182612c66565b9050919050565b600073ffffffffffffffffffffffffffffffffffffffff82169050919050565b6000819050919050565b6000612cdd82612ce4565b9050919050565b6000612cef82612ca8565b9050919050565b6000612d0182612d08565b9050919050565b6000612d1382612ca8565b9050919050565b6000612d2582612d2c565b9050919050565b6000612d3782612ca8565b9050919050565b60005b83811015612d5c578082015181840152602081019050612d41565b83811115612d6b576000848401525b50505050565b6000612d7c82612cc8565b91507fffffffffffffffffffffffffffffffffffffffffffffffffffffffffffffffff821415612daf57612dae612dba565b5b600182019050919050565b7f4e487b7100000000000000000000000000000000000000000000000000000000600052601160045260246000fd5b7f4e487b7100000000000000000000000000000000000000000000000000000000600052601260045260246000fd5b6000601f19601f8301169050919050565b7f4f776e61626c653a206e6577206f776e657220697320746865207a65726f206160008201527f6464726573730000000000000000000000000000000000000000000000000000602082015250565b7f416464726573733a20696e73756666696369656e742062616c616e636520666f60008201527f722063616c6c0000000000000000000000000000000000000000000000000000602082015250565b7f6465763a207775743f0000000000000000000000000000000000000000000000600082015250565b7f4f776e61626c653a2063616c6c6572206973206e6f7420746865206f776e6572600082015250565b7f416464726573733a2063616c6c20746f206e6f6e2d636f6e7472616374000000600082015250565b7f77697468647261773a206e6f7420676f6f640000000000000000000000000000600082015250565b7f5361666545524332303a204552433230206f7065726174696f6e20646964206e60008201527f6f74207375636365656400000000000000000000000000000000000000000000602082015250565b7f6d6967726174653a206261640000000000000000000000000000000000000000600082015250565b7f5361666545524332303a20617070726f76652066726f6d206e6f6e2d7a65726f60008201527f20746f206e6f6e2d7a65726f20616c6c6f77616e636500000000000000000000602082015250565b7f6d6967726174653a206e6f206d69677261746f72000000000000000000000000600082015250565b61306481612c66565b811461306f57600080fd5b50565b61307b81612c78565b811461308657600080fd5b50565b61309281612c84565b811461309d57600080fd5b50565b6130a981612c96565b81146130b457600080fd5b50565b6130c081612cc8565b81146130cb57600080fd5b5056fea264697066735822122012bb2a91a09beeeaa3c918521324d13f18d1e104545a0d1bde1f995b68b8b12d64736f6c63430008040033",
  "devdoc": {
    "kind": "dev",
    "methods": {
      "owner()": {
        "details": "Returns the address of the current owner."
      },
      "renounceOwnership()": {
        "details": "Leaves the contract without owner. It will not be possible to call `onlyOwner` functions anymore. Can only be called by the current owner. NOTE: Renouncing ownership will leave the contract without an owner, thereby removing any functionality that is only available to the owner."
      },
      "transferOwnership(address)": {
        "details": "Transfers ownership of the contract to a new account (`newOwner`). Can only be called by the current owner."
      }
    },
    "version": 1
  },
  "userdoc": {
    "kind": "user",
    "methods": {},
    "version": 1
  },
  "storageLayout": {
    "storage": [
      {
        "astId": 326,
        "contract": "contracts/MasterChef/BaoPG/MasterChef.sol:MasterChef",
        "label": "_owner",
        "offset": 0,
        "slot": "0",
        "type": "t_address"
      },
      {
        "astId": 2904,
        "contract": "contracts/MasterChef/BaoPG/MasterChef.sol:MasterChef",
        "label": "sushi",
        "offset": 0,
        "slot": "1",
        "type": "t_contract(SimpleERC20)2857"
      },
      {
        "astId": 2906,
        "contract": "contracts/MasterChef/BaoPG/MasterChef.sol:MasterChef",
        "label": "devaddr",
        "offset": 0,
        "slot": "2",
        "type": "t_address"
      },
      {
        "astId": 2908,
        "contract": "contracts/MasterChef/BaoPG/MasterChef.sol:MasterChef",
        "label": "bonusEndBlock",
        "offset": 0,
        "slot": "3",
        "type": "t_uint256"
      },
      {
        "astId": 2910,
        "contract": "contracts/MasterChef/BaoPG/MasterChef.sol:MasterChef",
        "label": "sushiPerDay",
        "offset": 0,
        "slot": "4",
        "type": "t_uint256"
      },
      {
        "astId": 2916,
        "contract": "contracts/MasterChef/BaoPG/MasterChef.sol:MasterChef",
        "label": "migrator",
        "offset": 0,
        "slot": "5",
        "type": "t_contract(IMigratorChef)2877"
      },
      {
        "astId": 2920,
        "contract": "contracts/MasterChef/BaoPG/MasterChef.sol:MasterChef",
        "label": "poolInfo",
        "offset": 0,
        "slot": "6",
        "type": "t_array(t_struct(PoolInfo)2901_storage)dyn_storage"
      },
      {
        "astId": 2927,
        "contract": "contracts/MasterChef/BaoPG/MasterChef.sol:MasterChef",
        "label": "userInfo",
        "offset": 0,
        "slot": "7",
        "type": "t_mapping(t_uint256,t_mapping(t_address,t_struct(UserInfo)2891_storage))"
      },
      {
        "astId": 2930,
        "contract": "contracts/MasterChef/BaoPG/MasterChef.sol:MasterChef",
        "label": "totalAllocPoint",
        "offset": 0,
        "slot": "8",
        "type": "t_uint256"
      },
      {
        "astId": 2932,
        "contract": "contracts/MasterChef/BaoPG/MasterChef.sol:MasterChef",
        "label": "startBlock",
        "offset": 0,
        "slot": "9",
        "type": "t_uint256"
      }
    ],
    "types": {
      "t_address": {
        "encoding": "inplace",
        "label": "address",
        "numberOfBytes": "20"
      },
      "t_array(t_struct(PoolInfo)2901_storage)dyn_storage": {
        "base": "t_struct(PoolInfo)2901_storage",
        "encoding": "dynamic_array",
        "label": "struct MasterChef.PoolInfo[]",
        "numberOfBytes": "32"
      },
      "t_contract(IERC20)1047": {
        "encoding": "inplace",
        "label": "contract IERC20",
        "numberOfBytes": "20"
      },
      "t_contract(IMigratorChef)2877": {
        "encoding": "inplace",
        "label": "contract IMigratorChef",
        "numberOfBytes": "20"
      },
      "t_contract(SimpleERC20)2857": {
        "encoding": "inplace",
        "label": "contract SimpleERC20",
        "numberOfBytes": "20"
      },
      "t_mapping(t_address,t_struct(UserInfo)2891_storage)": {
        "encoding": "mapping",
        "key": "t_address",
        "label": "mapping(address => struct MasterChef.UserInfo)",
        "numberOfBytes": "32",
        "value": "t_struct(UserInfo)2891_storage"
      },
      "t_mapping(t_uint256,t_mapping(t_address,t_struct(UserInfo)2891_storage))": {
        "encoding": "mapping",
        "key": "t_uint256",
        "label": "mapping(uint256 => mapping(address => struct MasterChef.UserInfo))",
        "numberOfBytes": "32",
        "value": "t_mapping(t_address,t_struct(UserInfo)2891_storage)"
      },
      "t_struct(PoolInfo)2901_storage": {
        "encoding": "inplace",
        "label": "struct MasterChef.PoolInfo",
        "members": [
          {
            "astId": 2894,
            "contract": "contracts/MasterChef/BaoPG/MasterChef.sol:MasterChef",
            "label": "lpToken",
            "offset": 0,
            "slot": "0",
            "type": "t_contract(IERC20)1047"
          },
          {
            "astId": 2896,
            "contract": "contracts/MasterChef/BaoPG/MasterChef.sol:MasterChef",
            "label": "allocPoint",
            "offset": 0,
            "slot": "1",
            "type": "t_uint256"
          },
          {
            "astId": 2898,
            "contract": "contracts/MasterChef/BaoPG/MasterChef.sol:MasterChef",
            "label": "lastRewardTime",
            "offset": 0,
            "slot": "2",
            "type": "t_uint256"
          },
          {
            "astId": 2900,
            "contract": "contracts/MasterChef/BaoPG/MasterChef.sol:MasterChef",
            "label": "accSushiPerShare",
            "offset": 0,
            "slot": "3",
            "type": "t_uint256"
          }
        ],
        "numberOfBytes": "128"
      },
      "t_struct(UserInfo)2891_storage": {
        "encoding": "inplace",
        "label": "struct MasterChef.UserInfo",
        "members": [
          {
            "astId": 2888,
            "contract": "contracts/MasterChef/BaoPG/MasterChef.sol:MasterChef",
            "label": "amount",
            "offset": 0,
            "slot": "0",
            "type": "t_uint256"
          },
          {
            "astId": 2890,
            "contract": "contracts/MasterChef/BaoPG/MasterChef.sol:MasterChef",
            "label": "rewardDebt",
            "offset": 0,
            "slot": "1",
            "type": "t_uint256"
          }
        ],
        "numberOfBytes": "64"
      },
      "t_uint256": {
        "encoding": "inplace",
        "label": "uint256",
        "numberOfBytes": "32"
      }
    }
  }
}