{
  "address": "0x7e70d2A6962393F40E373E26c77d5E18bb354998",
  "abi": [
    {
      "inputs": [
        {
          "internalType": "contract SimpleERC20",
          "name": "_sushi",
          "type": "address"
        },
        {
          "internalType": "address",
          "name": "_devaddr",
          "type": "address"
        },
        {
          "internalType": "uint256",
          "name": "_sushiPerDay",
          "type": "uint256"
        },
        {
          "internalType": "uint256",
          "name": "_startBlock",
          "type": "uint256"
        },
        {
          "internalType": "uint256",
          "name": "_bonusEndBlock",
          "type": "uint256"
        }
      ],
      "stateMutability": "nonpayable",
      "type": "constructor"
    },
    {
      "anonymous": false,
      "inputs": [
        {
          "indexed": true,
          "internalType": "address",
          "name": "user",
          "type": "address"
        },
        {
          "indexed": true,
          "internalType": "uint256",
          "name": "pid",
          "type": "uint256"
        },
        {
          "indexed": false,
          "internalType": "uint256",
          "name": "amount",
          "type": "uint256"
        }
      ],
      "name": "Deposit",
      "type": "event"
    },
    {
      "anonymous": false,
      "inputs": [
        {
          "indexed": true,
          "internalType": "address",
          "name": "user",
          "type": "address"
        },
        {
          "indexed": true,
          "internalType": "uint256",
          "name": "pid",
          "type": "uint256"
        },
        {
          "indexed": false,
          "internalType": "uint256",
          "name": "amount",
          "type": "uint256"
        }
      ],
      "name": "EmergencyWithdraw",
      "type": "event"
    },
    {
      "anonymous": false,
      "inputs": [
        {
          "indexed": true,
          "internalType": "address",
          "name": "previousOwner",
          "type": "address"
        },
        {
          "indexed": true,
          "internalType": "address",
          "name": "newOwner",
          "type": "address"
        }
      ],
      "name": "OwnershipTransferred",
      "type": "event"
    },
    {
      "anonymous": false,
      "inputs": [
        {
          "indexed": true,
          "internalType": "address",
          "name": "user",
          "type": "address"
        },
        {
          "indexed": true,
          "internalType": "uint256",
          "name": "pid",
          "type": "uint256"
        },
        {
          "indexed": false,
          "internalType": "uint256",
          "name": "amount",
          "type": "uint256"
        }
      ],
      "name": "Withdraw",
      "type": "event"
    },
    {
      "inputs": [],
      "name": "BONUS_MULTIPLIER",
      "outputs": [
        {
          "internalType": "uint256",
          "name": "",
          "type": "uint256"
        }
      ],
      "stateMutability": "view",
      "type": "function"
    },
    {
      "inputs": [
        {
          "internalType": "uint256",
          "name": "_allocPoint",
          "type": "uint256"
        },
        {
          "internalType": "contract IERC20",
          "name": "_lpToken",
          "type": "address"
        },
        {
          "internalType": "bool",
          "name": "_withUpdate",
          "type": "bool"
        }
      ],
      "name": "add",
      "outputs": [],
      "stateMutability": "nonpayable",
      "type": "function"
    },
    {
      "inputs": [],
      "name": "bonusEndBlock",
      "outputs": [
        {
          "internalType": "uint256",
          "name": "",
          "type": "uint256"
        }
      ],
      "stateMutability": "view",
      "type": "function"
    },
    {
      "inputs": [
        {
          "internalType": "uint256",
          "name": "_pid",
          "type": "uint256"
        },
        {
          "internalType": "uint256",
          "name": "_amount",
          "type": "uint256"
        }
      ],
      "name": "deposit",
      "outputs": [],
      "stateMutability": "nonpayable",
      "type": "function"
    },
    {
      "inputs": [
        {
          "internalType": "address",
          "name": "_devaddr",
          "type": "address"
        }
      ],
      "name": "dev",
      "outputs": [],
      "stateMutability": "nonpayable",
      "type": "function"
    },
    {
      "inputs": [],
      "name": "devaddr",
      "outputs": [
        {
          "internalType": "address",
          "name": "",
          "type": "address"
        }
      ],
      "stateMutability": "view",
      "type": "function"
    },
    {
      "inputs": [
        {
          "internalType": "uint256",
          "name": "_pid",
          "type": "uint256"
        }
      ],
      "name": "emergencyWithdraw",
      "outputs": [],
      "stateMutability": "nonpayable",
      "type": "function"
    },
    {
      "inputs": [],
      "name": "massUpdatePools",
      "outputs": [],
      "stateMutability": "nonpayable",
      "type": "function"
    },
    {
      "inputs": [
        {
          "internalType": "uint256",
          "name": "_pid",
          "type": "uint256"
        }
      ],
      "name": "migrate",
      "outputs": [],
      "stateMutability": "nonpayable",
      "type": "function"
    },
    {
      "inputs": [],
      "name": "migrator",
      "outputs": [
        {
          "internalType": "contract IMigratorChef",
          "name": "",
          "type": "address"
        }
      ],
      "stateMutability": "view",
      "type": "function"
    },
    {
      "inputs": [],
      "name": "owner",
      "outputs": [
        {
          "internalType": "address",
          "name": "",
          "type": "address"
        }
      ],
      "stateMutability": "view",
      "type": "function"
    },
    {
      "inputs": [
        {
          "internalType": "uint256",
          "name": "_pid",
          "type": "uint256"
        },
        {
          "internalType": "address",
          "name": "_user",
          "type": "address"
        }
      ],
      "name": "pendingSushi",
      "outputs": [
        {
          "internalType": "uint256",
          "name": "",
          "type": "uint256"
        }
      ],
      "stateMutability": "view",
      "type": "function"
    },
    {
      "inputs": [
        {
          "internalType": "uint256",
          "name": "",
          "type": "uint256"
        }
      ],
      "name": "poolInfo",
      "outputs": [
        {
          "internalType": "contract IERC20",
          "name": "lpToken",
          "type": "address"
        },
        {
          "internalType": "uint256",
          "name": "allocPoint",
          "type": "uint256"
        },
        {
          "internalType": "uint256",
          "name": "lastRewardTime",
          "type": "uint256"
        },
        {
          "internalType": "uint256",
          "name": "accSushiPerShare",
          "type": "uint256"
        }
      ],
      "stateMutability": "view",
      "type": "function"
    },
    {
      "inputs": [],
      "name": "poolLength",
      "outputs": [
        {
          "internalType": "uint256",
          "name": "",
          "type": "uint256"
        }
      ],
      "stateMutability": "view",
      "type": "function"
    },
    {
      "inputs": [],
      "name": "renounceOwnership",
      "outputs": [],
      "stateMutability": "nonpayable",
      "type": "function"
    },
    {
      "inputs": [
        {
          "internalType": "uint256",
          "name": "_pid",
          "type": "uint256"
        },
        {
          "internalType": "uint256",
          "name": "_allocPoint",
          "type": "uint256"
        },
        {
          "internalType": "bool",
          "name": "_withUpdate",
          "type": "bool"
        }
      ],
      "name": "set",
      "outputs": [],
      "stateMutability": "nonpayable",
      "type": "function"
    },
    {
      "inputs": [
        {
          "internalType": "contract IMigratorChef",
          "name": "_migrator",
          "type": "address"
        }
      ],
      "name": "setMigrator",
      "outputs": [],
      "stateMutability": "nonpayable",
      "type": "function"
    },
    {
      "inputs": [],
      "name": "startBlock",
      "outputs": [
        {
          "internalType": "uint256",
          "name": "",
          "type": "uint256"
        }
      ],
      "stateMutability": "view",
      "type": "function"
    },
    {
      "inputs": [],
      "name": "sushi",
      "outputs": [
        {
          "internalType": "contract SimpleERC20",
          "name": "",
          "type": "address"
        }
      ],
      "stateMutability": "view",
      "type": "function"
    },
    {
      "inputs": [],
      "name": "sushiPerDay",
      "outputs": [
        {
          "internalType": "uint256",
          "name": "",
          "type": "uint256"
        }
      ],
      "stateMutability": "view",
      "type": "function"
    },
    {
      "inputs": [],
      "name": "totalAllocPoint",
      "outputs": [
        {
          "internalType": "uint256",
          "name": "",
          "type": "uint256"
        }
      ],
      "stateMutability": "view",
      "type": "function"
    },
    {
      "inputs": [
        {
          "internalType": "address",
          "name": "newOwner",
          "type": "address"
        }
      ],
      "name": "transferOwnership",
      "outputs": [],
      "stateMutability": "nonpayable",
      "type": "function"
    },
    {
      "inputs": [
        {
          "internalType": "uint256",
          "name": "_pid",
          "type": "uint256"
        }
      ],
      "name": "updatePool",
      "outputs": [],
      "stateMutability": "nonpayable",
      "type": "function"
    },
    {
      "inputs": [
        {
          "internalType": "uint256",
          "name": "",
          "type": "uint256"
        },
        {
          "internalType": "address",
          "name": "",
          "type": "address"
        }
      ],
      "name": "userInfo",
      "outputs": [
        {
          "internalType": "uint256",
          "name": "amount",
          "type": "uint256"
        },
        {
          "internalType": "uint256",
          "name": "rewardDebt",
          "type": "uint256"
        }
      ],
      "stateMutability": "view",
      "type": "function"
    },
    {
      "inputs": [
        {
          "internalType": "uint256",
          "name": "_pid",
          "type": "uint256"
        },
        {
          "internalType": "uint256",
          "name": "_amount",
          "type": "uint256"
        }
      ],
      "name": "withdraw",
      "outputs": [],
      "stateMutability": "nonpayable",
      "type": "function"
    }
  ],
  "transactionHash": "0x6b5f3ccbc7e210d6da05f2d9357592203bb206ecd6b2ffbf308ee25e4fc148a4",
  "args": [
    "0x8a4Db16D0e861C5bfD2c163a28Ef36a17ba5b5A3",
    "0x46bEC8B77d117fDC69b0681c3697a81B43585C8b",
    100000,
    0,
    1000000000
  ],
  "numDeployments": 1,
  "solcInputHash": "9c1ada410e6c472eae1dc6ef1f2e8435",
  "bytecode": "0x608060405260006008553480156200001657600080fd5b506040516200345a3803806200345a83398181016040528101906200003c91906200020f565b6200005c62000050620000fe60201b60201c565b6200010660201b60201c565b84600160006101000a81548173ffffffffffffffffffffffffffffffffffffffff021916908373ffffffffffffffffffffffffffffffffffffffff16021790555083600260006101000a81548173ffffffffffffffffffffffffffffffffffffffff021916908373ffffffffffffffffffffffffffffffffffffffff160217905550826004819055508060038190555081600981905550505050505062000331565b600033905090565b60008060009054906101000a900473ffffffffffffffffffffffffffffffffffffffff169050816000806101000a81548173ffffffffffffffffffffffffffffffffffffffff021916908373ffffffffffffffffffffffffffffffffffffffff1602179055508173ffffffffffffffffffffffffffffffffffffffff168173ffffffffffffffffffffffffffffffffffffffff167f8be0079c531659141344cd1fd0a4f28419497f9722a3daafe3b4186f6b6457e060405160405180910390a35050565b600081519050620001db81620002e3565b92915050565b600081519050620001f281620002fd565b92915050565b600081519050620002098162000317565b92915050565b600080600080600060a086880312156200022857600080fd5b60006200023888828901620001e1565b95505060206200024b88828901620001ca565b94505060406200025e88828901620001f8565b93505060606200027188828901620001f8565b92505060806200028488828901620001f8565b9150509295509295909350565b60006200029e82620002b9565b9050919050565b6000620002b28262000291565b9050919050565b600073ffffffffffffffffffffffffffffffffffffffff82169050919050565b6000819050919050565b620002ee8162000291565b8114620002fa57600080fd5b50565b6200030881620002a5565b81146200031457600080fd5b50565b6200032281620002d9565b81146200032e57600080fd5b50565b61311980620003416000396000f3fe608060405234801561001057600080fd5b50600436106101735760003560e01c80635312ea8e116100de5780638d88a90e11610097578063af81061011610071578063af810610146103f0578063d49e77cd1461040e578063e2bbb1581461042c578063f2fde38b1461044857610173565b80638d88a90e146103855780638da5cb5b146103a157806393f1a40b146103bf57610173565b80635312ea8e146102fd578063630b5ba11461031957806364482f7914610323578063715018a61461033f5780637cd07e47146103495780638aa285501461036757610173565b80631eaaa045116101305780631eaaa0451461025357806323cf31181461026f578063441a3e701461028b578063454b0608146102a757806348cd4cb1146102c357806351eb05a6146102e157610173565b8063081e3eda146101785780630a087903146101965780631526fe27146101b457806317caf6f1146101e7578063195426ec146102055780631aed655314610235575b600080fd5b610180610464565b60405161018d9190612af0565b60405180910390f35b61019e610471565b6040516101ab9190612973565b60405180910390f35b6101ce60048036038101906101c991906124c2565b610497565b6040516101de9493929190612913565b60405180910390f35b6101ef6104f7565b6040516101fc9190612af0565b60405180910390f35b61021f600480360381019061021a9190612514565b6104fd565b60405161022c9190612af0565b60405180910390f35b61023d61077d565b60405161024a9190612af0565b60405180910390f35b61026d60048036038101906102689190612550565b610783565b005b61028960048036038101906102849190612499565b6108fe565b005b6102a560048036038101906102a0919061259f565b6109be565b005b6102c160048036038101906102bc91906124c2565b610c02565b005b6102cb610fa8565b6040516102d89190612af0565b60405180910390f35b6102fb60048036038101906102f691906124c2565b610fae565b005b610317600480360381019061031291906124c2565b61135a565b005b6103216114b9565b005b61033d600480360381019061033891906125db565b6114ec565b005b610347611644565b005b6103516116cc565b60405161035e9190612958565b60405180910390f35b61036f6116f2565b60405161037c9190612af0565b60405180910390f35b61039f600480360381019061039a919061241e565b6116f7565b005b6103a96117cb565b6040516103b69190612854565b60405180910390f35b6103d960048036038101906103d49190612514565b6117f4565b6040516103e7929190612b0b565b60405180910390f35b6103f8611825565b6040516104059190612af0565b60405180910390f35b61041661182b565b6040516104239190612854565b60405180910390f35b6104466004803603810190610441919061259f565b611851565b005b610462600480360381019061045d919061241e565b611a5e565b005b6000600680549050905090565b600160009054906101000a900473ffffffffffffffffffffffffffffffffffffffff1681565b600681815481106104a757600080fd5b90600052602060002090600402016000915090508060000160009054906101000a900473ffffffffffffffffffffffffffffffffffffffff16908060010154908060020154908060030154905084565b60085481565b6000806006848154811061053a577f4e487b7100000000000000000000000000000000000000000000000000000000600052603260045260246000fd5b9060005260206000209060040201905060006007600086815260200190815260200160002060008573ffffffffffffffffffffffffffffffffffffffff1673ffffffffffffffffffffffffffffffffffffffff168152602001908152602001600020905060008260030154905060008360000160009054906101000a900473ffffffffffffffffffffffffffffffffffffffff1673ffffffffffffffffffffffffffffffffffffffff166370a08231306040518263ffffffff1660e01b81526004016106069190612854565b60206040518083038186803b15801561061e57600080fd5b505afa158015610632573d6000803e3d6000fd5b505050506040513d601f19601f8201168201806040525081019061065691906124eb565b905083600201544211801561066c575060008114155b1561072d5760006106bc60186106ae603c6106a0603c8a60020154426106929190612c47565b611b5690919063ffffffff16565b611b5690919063ffffffff16565b611b5690919063ffffffff16565b905060006008548660010154600454846106d69190612bed565b6106e09190612bed565b6106ea9190612bbc565b90506107286107198461070b64e8d4a5100085611b6c90919063ffffffff16565b611b5690919063ffffffff16565b85611b8290919063ffffffff16565b935050505b610771836001015461076364e8d4a51000610755868860000154611b6c90919063ffffffff16565b611b5690919063ffffffff16565b611b9890919063ffffffff16565b94505050505092915050565b60035481565b61078b611bae565b73ffffffffffffffffffffffffffffffffffffffff166107a96117cb565b73ffffffffffffffffffffffffffffffffffffffff16146107ff576040517f08c379a00000000000000000000000000000000000000000000000000000000081526004016107f690612a10565b60405180910390fd5b801561080e5761080d6114b9565b5b600042905061082884600854611b8290919063ffffffff16565b600881905550600660405180608001604052808573ffffffffffffffffffffffffffffffffffffffff1681526020018681526020018381526020016000815250908060018154018082558091505060019003906000526020600020906004020160009091909190915060008201518160000160006101000a81548173ffffffffffffffffffffffffffffffffffffffff021916908373ffffffffffffffffffffffffffffffffffffffff160217905550602082015181600101556040820151816002015560608201518160030155505050505050565b610906611bae565b73ffffffffffffffffffffffffffffffffffffffff166109246117cb565b73ffffffffffffffffffffffffffffffffffffffff161461097a576040517f08c379a000000000000000000000000000000000000000000000000000000000815260040161097190612a10565b60405180910390fd5b80600560006101000a81548173ffffffffffffffffffffffffffffffffffffffff021916908373ffffffffffffffffffffffffffffffffffffffff16021790555050565b6000600683815481106109fa577f4e487b7100000000000000000000000000000000000000000000000000000000600052603260045260246000fd5b9060005260206000209060040201905060006007600085815260200190815260200160002060003373ffffffffffffffffffffffffffffffffffffffff1673ffffffffffffffffffffffffffffffffffffffff16815260200190815260200160002090508281600001541015610aa5576040517f08c379a0000000000000000000000000000000000000000000000000000000008152600401610a9c90612a50565b60405180910390fd5b610aae84610fae565b6000610af88260010154610aea64e8d4a51000610adc87600301548760000154611b6c90919063ffffffff16565b611b5690919063ffffffff16565b611b9890919063ffffffff16565b9050610b043382611bb6565b610b1b848360000154611b9890919063ffffffff16565b8260000181905550610b5564e8d4a51000610b4785600301548560000154611b6c90919063ffffffff16565b611b5690919063ffffffff16565b8260010181905550610bac33858560000160009054906101000a900473ffffffffffffffffffffffffffffffffffffffff1673ffffffffffffffffffffffffffffffffffffffff16611dd89092919063ffffffff16565b843373ffffffffffffffffffffffffffffffffffffffff167ff279e6a1f5e320cca91135676d9cb6e44ca8a08c0b88342bcdb1144f6511b56886604051610bf39190612af0565b60405180910390a35050505050565b600073ffffffffffffffffffffffffffffffffffffffff16600560009054906101000a900473ffffffffffffffffffffffffffffffffffffffff1673ffffffffffffffffffffffffffffffffffffffff161415610c94576040517f08c379a0000000000000000000000000000000000000000000000000000000008152600401610c8b90612ad0565b60405180910390fd5b600060068281548110610cd0577f4e487b7100000000000000000000000000000000000000000000000000000000600052603260045260246000fd5b9060005260206000209060040201905060008160000160009054906101000a900473ffffffffffffffffffffffffffffffffffffffff16905060008173ffffffffffffffffffffffffffffffffffffffff166370a08231306040518263ffffffff1660e01b8152600401610d449190612854565b60206040518083038186803b158015610d5c57600080fd5b505afa158015610d70573d6000803e3d6000fd5b505050506040513d601f19601f82011682018060405250810190610d9491906124eb565b9050610de3600560009054906101000a900473ffffffffffffffffffffffffffffffffffffffff16828473ffffffffffffffffffffffffffffffffffffffff16611e5e9092919063ffffffff16565b6000600560009054906101000a900473ffffffffffffffffffffffffffffffffffffffff1673ffffffffffffffffffffffffffffffffffffffff1663ce5494bb846040518263ffffffff1660e01b8152600401610e4091906128f8565b602060405180830381600087803b158015610e5a57600080fd5b505af1158015610e6e573d6000803e3d6000fd5b505050506040513d601f19601f82011682018060405250810190610e929190612470565b90508073ffffffffffffffffffffffffffffffffffffffff166370a08231306040518263ffffffff1660e01b8152600401610ecd9190612854565b60206040518083038186803b158015610ee557600080fd5b505afa158015610ef9573d6000803e3d6000fd5b505050506040513d601f19601f82011682018060405250810190610f1d91906124eb565b8214610f5e576040517f08c379a0000000000000000000000000000000000000000000000000000000008152600401610f5590612a90565b60405180910390fd5b808460000160006101000a81548173ffffffffffffffffffffffffffffffffffffffff021916908373ffffffffffffffffffffffffffffffffffffffff1602179055505050505050565b60095481565b600060068281548110610fea577f4e487b7100000000000000000000000000000000000000000000000000000000600052603260045260246000fd5b90600052602060002090600402019050611014620151808260020154611b8290919063ffffffff16565b42116110205750611357565b60008160000160009054906101000a900473ffffffffffffffffffffffffffffffffffffffff1673ffffffffffffffffffffffffffffffffffffffff166370a08231306040518263ffffffff1660e01b815260040161107f9190612854565b60206040518083038186803b15801561109757600080fd5b505afa1580156110ab573d6000803e3d6000fd5b505050506040513d601f19601f820116820180604052508101906110cf91906124eb565b905060008114156110ea574282600201819055505050611357565b600061113c601861112e603c611120603c611112896002015442611b9890919063ffffffff16565b611b5690919063ffffffff16565b611b5690919063ffffffff16565b611b5690919063ffffffff16565b905060006008548460010154600454846111569190612bed565b6111609190612bed565b61116a9190612bbc565b9050600160009054906101000a900473ffffffffffffffffffffffffffffffffffffffff1673ffffffffffffffffffffffffffffffffffffffff166340c10f19600260009054906101000a900473ffffffffffffffffffffffffffffffffffffffff166111e1600a85611b5690919063ffffffff16565b6040518363ffffffff1660e01b81526004016111fe9291906128cf565b602060405180830381600087803b15801561121857600080fd5b505af115801561122c573d6000803e3d6000fd5b505050506040513d601f19601f820116820180604052508101906112509190612447565b50600160009054906101000a900473ffffffffffffffffffffffffffffffffffffffff1673ffffffffffffffffffffffffffffffffffffffff166340c10f1930836040518363ffffffff1660e01b81526004016112ae9291906128cf565b602060405180830381600087803b1580156112c857600080fd5b505af11580156112dc573d6000803e3d6000fd5b505050506040513d601f19601f820116820180604052508101906113009190612447565b5061134161132e8461132064e8d4a5100085611b6c90919063ffffffff16565b611b5690919063ffffffff16565b8560030154611b8290919063ffffffff16565b8460030181905550428460020181905550505050505b50565b600060068281548110611396577f4e487b7100000000000000000000000000000000000000000000000000000000600052603260045260246000fd5b9060005260206000209060040201905060006007600084815260200190815260200160002060003373ffffffffffffffffffffffffffffffffffffffff1673ffffffffffffffffffffffffffffffffffffffff168152602001908152602001600020905061144d3382600001548460000160009054906101000a900473ffffffffffffffffffffffffffffffffffffffff1673ffffffffffffffffffffffffffffffffffffffff16611dd89092919063ffffffff16565b823373ffffffffffffffffffffffffffffffffffffffff167fbb757047c2b5f3974fe26b7c10f732e7bce710b0952a71082702781e62ae059583600001546040516114989190612af0565b60405180910390a36000816000018190555060008160010181905550505050565b6000600680549050905060005b818110156114e8576114d781610fae565b806114e190612d86565b90506114c6565b5050565b6114f4611bae565b73ffffffffffffffffffffffffffffffffffffffff166115126117cb565b73ffffffffffffffffffffffffffffffffffffffff1614611568576040517f08c379a000000000000000000000000000000000000000000000000000000000815260040161155f90612a10565b60405180910390fd5b8015611577576115766114b9565b5b6115e9826115db600686815481106115b8577f4e487b7100000000000000000000000000000000000000000000000000000000600052603260045260246000fd5b906000526020600020906004020160010154600854611b9890919063ffffffff16565b611b8290919063ffffffff16565b600881905550816006848154811061162a577f4e487b7100000000000000000000000000000000000000000000000000000000600052603260045260246000fd5b906000526020600020906004020160010181905550505050565b61164c611bae565b73ffffffffffffffffffffffffffffffffffffffff1661166a6117cb565b73ffffffffffffffffffffffffffffffffffffffff16146116c0576040517f08c379a00000000000000000000000000000000000000000000000000000000081526004016116b790612a10565b60405180910390fd5b6116ca6000611fbc565b565b600560009054906101000a900473ffffffffffffffffffffffffffffffffffffffff1681565b600a81565b600260009054906101000a900473ffffffffffffffffffffffffffffffffffffffff1673ffffffffffffffffffffffffffffffffffffffff163373ffffffffffffffffffffffffffffffffffffffff1614611787576040517f08c379a000000000000000000000000000000000000000000000000000000000815260040161177e906129f0565b60405180910390fd5b80600260006101000a81548173ffffffffffffffffffffffffffffffffffffffff021916908373ffffffffffffffffffffffffffffffffffffffff16021790555050565b60008060009054906101000a900473ffffffffffffffffffffffffffffffffffffffff16905090565b6007602052816000526040600020602052806000526040600020600091509150508060000154908060010154905082565b60045481565b600260009054906101000a900473ffffffffffffffffffffffffffffffffffffffff1681565b60006006838154811061188d577f4e487b7100000000000000000000000000000000000000000000000000000000600052603260045260246000fd5b9060005260206000209060040201905060006007600085815260200190815260200160002060003373ffffffffffffffffffffffffffffffffffffffff1673ffffffffffffffffffffffffffffffffffffffff16815260200190815260200160002090506118fa84610fae565b60008160000154111561195f576000611951826001015461194364e8d4a5100061193587600301548760000154611b6c90919063ffffffff16565b611b5690919063ffffffff16565b611b9890919063ffffffff16565b905061195d3382611bb6565b505b6119b03330858560000160009054906101000a900473ffffffffffffffffffffffffffffffffffffffff1673ffffffffffffffffffffffffffffffffffffffff16612080909392919063ffffffff16565b6119c7838260000154611b8290919063ffffffff16565b8160000181905550611a0164e8d4a510006119f384600301548460000154611b6c90919063ffffffff16565b611b5690919063ffffffff16565b8160010181905550833373ffffffffffffffffffffffffffffffffffffffff167f90890809c654f11d6e72a28fa60149770a0d11ec6c92319d6ceb2bb0a4ea1a1585604051611a509190612af0565b60405180910390a350505050565b611a66611bae565b73ffffffffffffffffffffffffffffffffffffffff16611a846117cb565b73ffffffffffffffffffffffffffffffffffffffff1614611ada576040517f08c379a0000000000000000000000000000000000000000000000000000000008152600401611ad190612a10565b60405180910390fd5b600073ffffffffffffffffffffffffffffffffffffffff168173ffffffffffffffffffffffffffffffffffffffff161415611b4a576040517f08c379a0000000000000000000000000000000000000000000000000000000008152600401611b41906129b0565b60405180910390fd5b611b5381611fbc565b50565b60008183611b649190612bbc565b905092915050565b60008183611b7a9190612bed565b905092915050565b60008183611b909190612b66565b905092915050565b60008183611ba69190612c47565b905092915050565b600033905090565b6000600160009054906101000a900473ffffffffffffffffffffffffffffffffffffffff1673ffffffffffffffffffffffffffffffffffffffff166370a08231306040518263ffffffff1660e01b8152600401611c139190612854565b60206040518083038186803b158015611c2b57600080fd5b505afa158015611c3f573d6000803e3d6000fd5b505050506040513d601f19601f82011682018060405250810190611c6391906124eb565b905080821115611d2257600160009054906101000a900473ffffffffffffffffffffffffffffffffffffffff1673ffffffffffffffffffffffffffffffffffffffff1663a9059cbb84836040518363ffffffff1660e01b8152600401611cca9291906128cf565b602060405180830381600087803b158015611ce457600080fd5b505af1158015611cf8573d6000803e3d6000fd5b505050506040513d601f19601f82011682018060405250810190611d1c9190612447565b50611dd3565b600160009054906101000a900473ffffffffffffffffffffffffffffffffffffffff1673ffffffffffffffffffffffffffffffffffffffff1663a9059cbb84846040518363ffffffff1660e01b8152600401611d7f9291906128cf565b602060405180830381600087803b158015611d9957600080fd5b505af1158015611dad573d6000803e3d6000fd5b505050506040513d601f19601f82011682018060405250810190611dd19190612447565b505b505050565b611e598363a9059cbb60e01b8484604051602401611df79291906128cf565b604051602081830303815290604052907bffffffffffffffffffffffffffffffffffffffffffffffffffffffff19166020820180517bffffffffffffffffffffffffffffffffffffffffffffffffffffffff8381831617835250505050612109565b505050565b6000811480611ef7575060008373ffffffffffffffffffffffffffffffffffffffff1663dd62ed3e30856040518363ffffffff1660e01b8152600401611ea592919061286f565b60206040518083038186803b158015611ebd57600080fd5b505afa158015611ed1573d6000803e3d6000fd5b505050506040513d601f19601f82011682018060405250810190611ef591906124eb565b145b611f36576040517f08c379a0000000000000000000000000000000000000000000000000000000008152600401611f2d90612ab0565b60405180910390fd5b611fb78363095ea7b360e01b8484604051602401611f559291906128cf565b604051602081830303815290604052907bffffffffffffffffffffffffffffffffffffffffffffffffffffffff19166020820180517bffffffffffffffffffffffffffffffffffffffffffffffffffffffff8381831617835250505050612109565b505050565b60008060009054906101000a900473ffffffffffffffffffffffffffffffffffffffff169050816000806101000a81548173ffffffffffffffffffffffffffffffffffffffff021916908373ffffffffffffffffffffffffffffffffffffffff1602179055508173ffffffffffffffffffffffffffffffffffffffff168173ffffffffffffffffffffffffffffffffffffffff167f8be0079c531659141344cd1fd0a4f28419497f9722a3daafe3b4186f6b6457e060405160405180910390a35050565b612103846323b872dd60e01b8585856040516024016120a193929190612898565b604051602081830303815290604052907bffffffffffffffffffffffffffffffffffffffffffffffffffffffff19166020820180517bffffffffffffffffffffffffffffffffffffffffffffffffffffffff8381831617835250505050612109565b50505050565b600061216b826040518060400160405280602081526020017f5361666545524332303a206c6f772d6c6576656c2063616c6c206661696c65648152508573ffffffffffffffffffffffffffffffffffffffff166121d09092919063ffffffff16565b90506000815111156121cb578080602001905181019061218b9190612447565b6121ca576040517f08c379a00000000000000000000000000000000000000000000000000000000081526004016121c190612a70565b60405180910390fd5b5b505050565b60606121df84846000856121e8565b90509392505050565b60608247101561222d576040517f08c379a0000000000000000000000000000000000000000000000000000000008152600401612224906129d0565b60405180910390fd5b612236856122fc565b612275576040517f08c379a000000000000000000000000000000000000000000000000000000000815260040161226c90612a30565b60405180910390fd5b6000808673ffffffffffffffffffffffffffffffffffffffff16858760405161229e919061283d565b60006040518083038185875af1925050503d80600081146122db576040519150601f19603f3d011682016040523d82523d6000602084013e6122e0565b606091505b50915091506122f082828661230f565b92505050949350505050565b600080823b905060008111915050919050565b6060831561231f5782905061236f565b6000835111156123325782518084602001fd5b816040517f08c379a0000000000000000000000000000000000000000000000000000000008152600401612366919061298e565b60405180910390fd5b9392505050565b60008135905061238581613070565b92915050565b60008135905061239a81613087565b92915050565b6000815190506123af81613087565b92915050565b6000813590506123c48161309e565b92915050565b6000815190506123d98161309e565b92915050565b6000813590506123ee816130b5565b92915050565b600081359050612403816130cc565b92915050565b600081519050612418816130cc565b92915050565b60006020828403121561243057600080fd5b600061243e84828501612376565b91505092915050565b60006020828403121561245957600080fd5b6000612467848285016123a0565b91505092915050565b60006020828403121561248257600080fd5b6000612490848285016123ca565b91505092915050565b6000602082840312156124ab57600080fd5b60006124b9848285016123df565b91505092915050565b6000602082840312156124d457600080fd5b60006124e2848285016123f4565b91505092915050565b6000602082840312156124fd57600080fd5b600061250b84828501612409565b91505092915050565b6000806040838503121561252757600080fd5b6000612535858286016123f4565b925050602061254685828601612376565b9150509250929050565b60008060006060848603121561256557600080fd5b6000612573868287016123f4565b9350506020612584868287016123b5565b92505060406125958682870161238b565b9150509250925092565b600080604083850312156125b257600080fd5b60006125c0858286016123f4565b92505060206125d1858286016123f4565b9150509250929050565b6000806000606084860312156125f057600080fd5b60006125fe868287016123f4565b935050602061260f868287016123f4565b92505060406126208682870161238b565b9150509250925092565b61263381612c7b565b82525050565b600061264482612b34565b61264e8185612b4a565b935061265e818560208601612d53565b80840191505092915050565b61267381612ce7565b82525050565b61268281612d0b565b82525050565b61269181612d2f565b82525050565b60006126a282612b3f565b6126ac8185612b55565b93506126bc818560208601612d53565b6126c581612e2d565b840191505092915050565b60006126dd602683612b55565b91506126e882612e3e565b604082019050919050565b6000612700602683612b55565b915061270b82612e8d565b604082019050919050565b6000612723600983612b55565b915061272e82612edc565b602082019050919050565b6000612746602083612b55565b915061275182612f05565b602082019050919050565b6000612769601d83612b55565b915061277482612f2e565b602082019050919050565b600061278c601283612b55565b915061279782612f57565b602082019050919050565b60006127af602a83612b55565b91506127ba82612f80565b604082019050919050565b60006127d2600c83612b55565b91506127dd82612fcf565b602082019050919050565b60006127f5603683612b55565b915061280082612ff8565b604082019050919050565b6000612818601483612b55565b915061282382613047565b602082019050919050565b61283781612cdd565b82525050565b60006128498284612639565b915081905092915050565b6000602082019050612869600083018461262a565b92915050565b6000604082019050612884600083018561262a565b612891602083018461262a565b9392505050565b60006060820190506128ad600083018661262a565b6128ba602083018561262a565b6128c7604083018461282e565b949350505050565b60006040820190506128e4600083018561262a565b6128f1602083018461282e565b9392505050565b600060208201905061290d600083018461266a565b92915050565b6000608082019050612928600083018761266a565b612935602083018661282e565b612942604083018561282e565b61294f606083018461282e565b95945050505050565b600060208201905061296d6000830184612679565b92915050565b60006020820190506129886000830184612688565b92915050565b600060208201905081810360008301526129a88184612697565b905092915050565b600060208201905081810360008301526129c9816126d0565b9050919050565b600060208201905081810360008301526129e9816126f3565b9050919050565b60006020820190508181036000830152612a0981612716565b9050919050565b60006020820190508181036000830152612a2981612739565b9050919050565b60006020820190508181036000830152612a498161275c565b9050919050565b60006020820190508181036000830152612a698161277f565b9050919050565b60006020820190508181036000830152612a89816127a2565b9050919050565b60006020820190508181036000830152612aa9816127c5565b9050919050565b60006020820190508181036000830152612ac9816127e8565b9050919050565b60006020820190508181036000830152612ae98161280b565b9050919050565b6000602082019050612b05600083018461282e565b92915050565b6000604082019050612b20600083018561282e565b612b2d602083018461282e565b9392505050565b600081519050919050565b600081519050919050565b600081905092915050565b600082825260208201905092915050565b6000612b7182612cdd565b9150612b7c83612cdd565b9250827fffffffffffffffffffffffffffffffffffffffffffffffffffffffffffffffff03821115612bb157612bb0612dcf565b5b828201905092915050565b6000612bc782612cdd565b9150612bd283612cdd565b925082612be257612be1612dfe565b5b828204905092915050565b6000612bf882612cdd565b9150612c0383612cdd565b9250817fffffffffffffffffffffffffffffffffffffffffffffffffffffffffffffffff0483118215151615612c3c57612c3b612dcf565b5b828202905092915050565b6000612c5282612cdd565b9150612c5d83612cdd565b925082821015612c7057612c6f612dcf565b5b828203905092915050565b6000612c8682612cbd565b9050919050565b60008115159050919050565b6000612ca482612c7b565b9050919050565b6000612cb682612c7b565b9050919050565b600073ffffffffffffffffffffffffffffffffffffffff82169050919050565b6000819050919050565b6000612cf282612cf9565b9050919050565b6000612d0482612cbd565b9050919050565b6000612d1682612d1d565b9050919050565b6000612d2882612cbd565b9050919050565b6000612d3a82612d41565b9050919050565b6000612d4c82612cbd565b9050919050565b60005b83811015612d71578082015181840152602081019050612d56565b83811115612d80576000848401525b50505050565b6000612d9182612cdd565b91507fffffffffffffffffffffffffffffffffffffffffffffffffffffffffffffffff821415612dc457612dc3612dcf565b5b600182019050919050565b7f4e487b7100000000000000000000000000000000000000000000000000000000600052601160045260246000fd5b7f4e487b7100000000000000000000000000000000000000000000000000000000600052601260045260246000fd5b6000601f19601f8301169050919050565b7f4f776e61626c653a206e6577206f776e657220697320746865207a65726f206160008201527f6464726573730000000000000000000000000000000000000000000000000000602082015250565b7f416464726573733a20696e73756666696369656e742062616c616e636520666f60008201527f722063616c6c0000000000000000000000000000000000000000000000000000602082015250565b7f6465763a207775743f0000000000000000000000000000000000000000000000600082015250565b7f4f776e61626c653a2063616c6c6572206973206e6f7420746865206f776e6572600082015250565b7f416464726573733a2063616c6c20746f206e6f6e2d636f6e7472616374000000600082015250565b7f77697468647261773a206e6f7420676f6f640000000000000000000000000000600082015250565b7f5361666545524332303a204552433230206f7065726174696f6e20646964206e60008201527f6f74207375636365656400000000000000000000000000000000000000000000602082015250565b7f6d6967726174653a206261640000000000000000000000000000000000000000600082015250565b7f5361666545524332303a20617070726f76652066726f6d206e6f6e2d7a65726f60008201527f20746f206e6f6e2d7a65726f20616c6c6f77616e636500000000000000000000602082015250565b7f6d6967726174653a206e6f206d69677261746f72000000000000000000000000600082015250565b61307981612c7b565b811461308457600080fd5b50565b61309081612c8d565b811461309b57600080fd5b50565b6130a781612c99565b81146130b257600080fd5b50565b6130be81612cab565b81146130c957600080fd5b50565b6130d581612cdd565b81146130e057600080fd5b5056fea264697066735822122063e94860a93f83a197186fee1f868946cc8fbba9f0db6f4e87641e65907f434064736f6c63430008040033",
  "devdoc": {
    "kind": "dev",
    "methods": {
      "owner()": {
        "details": "Returns the address of the current owner."
      },
      "renounceOwnership()": {
        "details": "Leaves the contract without owner. It will not be possible to call `onlyOwner` functions anymore. Can only be called by the current owner. NOTE: Renouncing ownership will leave the contract without an owner, thereby removing any functionality that is only available to the owner."
      },
      "transferOwnership(address)": {
        "details": "Transfers ownership of the contract to a new account (`newOwner`). Can only be called by the current owner."
      }
    },
    "version": 1
  },
  "userdoc": {
    "kind": "user",
    "methods": {},
    "version": 1
  },
  "storageLayout": {
    "storage": [
      {
        "astId": 326,
        "contract": "contracts/MasterChef/BaoPG/MasterChef.sol:MasterChef",
        "label": "_owner",
        "offset": 0,
        "slot": "0",
        "type": "t_address"
      },
      {
        "astId": 2944,
        "contract": "contracts/MasterChef/BaoPG/MasterChef.sol:MasterChef",
        "label": "sushi",
        "offset": 0,
        "slot": "1",
        "type": "t_contract(SimpleERC20)2897"
      },
      {
        "astId": 2946,
        "contract": "contracts/MasterChef/BaoPG/MasterChef.sol:MasterChef",
        "label": "devaddr",
        "offset": 0,
        "slot": "2",
        "type": "t_address"
      },
      {
        "astId": 2948,
        "contract": "contracts/MasterChef/BaoPG/MasterChef.sol:MasterChef",
        "label": "bonusEndBlock",
        "offset": 0,
        "slot": "3",
        "type": "t_uint256"
      },
      {
        "astId": 2950,
        "contract": "contracts/MasterChef/BaoPG/MasterChef.sol:MasterChef",
        "label": "sushiPerDay",
        "offset": 0,
        "slot": "4",
        "type": "t_uint256"
      },
      {
        "astId": 2956,
        "contract": "contracts/MasterChef/BaoPG/MasterChef.sol:MasterChef",
        "label": "migrator",
        "offset": 0,
        "slot": "5",
        "type": "t_contract(IMigratorChef)2917"
      },
      {
        "astId": 2960,
        "contract": "contracts/MasterChef/BaoPG/MasterChef.sol:MasterChef",
        "label": "poolInfo",
        "offset": 0,
        "slot": "6",
        "type": "t_array(t_struct(PoolInfo)2941_storage)dyn_storage"
      },
      {
        "astId": 2967,
        "contract": "contracts/MasterChef/BaoPG/MasterChef.sol:MasterChef",
        "label": "userInfo",
        "offset": 0,
        "slot": "7",
        "type": "t_mapping(t_uint256,t_mapping(t_address,t_struct(UserInfo)2931_storage))"
      },
      {
        "astId": 2970,
        "contract": "contracts/MasterChef/BaoPG/MasterChef.sol:MasterChef",
        "label": "totalAllocPoint",
        "offset": 0,
        "slot": "8",
        "type": "t_uint256"
      },
      {
        "astId": 2972,
        "contract": "contracts/MasterChef/BaoPG/MasterChef.sol:MasterChef",
        "label": "startBlock",
        "offset": 0,
        "slot": "9",
        "type": "t_uint256"
      }
    ],
    "types": {
      "t_address": {
        "encoding": "inplace",
        "label": "address",
        "numberOfBytes": "20"
      },
      "t_array(t_struct(PoolInfo)2941_storage)dyn_storage": {
        "base": "t_struct(PoolInfo)2941_storage",
        "encoding": "dynamic_array",
        "label": "struct MasterChef.PoolInfo[]",
        "numberOfBytes": "32"
      },
      "t_contract(IERC20)1087": {
        "encoding": "inplace",
        "label": "contract IERC20",
        "numberOfBytes": "20"
      },
      "t_contract(IMigratorChef)2917": {
        "encoding": "inplace",
        "label": "contract IMigratorChef",
        "numberOfBytes": "20"
      },
      "t_contract(SimpleERC20)2897": {
        "encoding": "inplace",
        "label": "contract SimpleERC20",
        "numberOfBytes": "20"
      },
      "t_mapping(t_address,t_struct(UserInfo)2931_storage)": {
        "encoding": "mapping",
        "key": "t_address",
        "label": "mapping(address => struct MasterChef.UserInfo)",
        "numberOfBytes": "32",
        "value": "t_struct(UserInfo)2931_storage"
      },
      "t_mapping(t_uint256,t_mapping(t_address,t_struct(UserInfo)2931_storage))": {
        "encoding": "mapping",
        "key": "t_uint256",
        "label": "mapping(uint256 => mapping(address => struct MasterChef.UserInfo))",
        "numberOfBytes": "32",
        "value": "t_mapping(t_address,t_struct(UserInfo)2931_storage)"
      },
      "t_struct(PoolInfo)2941_storage": {
        "encoding": "inplace",
        "label": "struct MasterChef.PoolInfo",
        "members": [
          {
            "astId": 2934,
            "contract": "contracts/MasterChef/BaoPG/MasterChef.sol:MasterChef",
            "label": "lpToken",
            "offset": 0,
            "slot": "0",
            "type": "t_contract(IERC20)1087"
          },
          {
            "astId": 2936,
            "contract": "contracts/MasterChef/BaoPG/MasterChef.sol:MasterChef",
            "label": "allocPoint",
            "offset": 0,
            "slot": "1",
            "type": "t_uint256"
          },
          {
            "astId": 2938,
            "contract": "contracts/MasterChef/BaoPG/MasterChef.sol:MasterChef",
            "label": "lastRewardTime",
            "offset": 0,
            "slot": "2",
            "type": "t_uint256"
          },
          {
            "astId": 2940,
            "contract": "contracts/MasterChef/BaoPG/MasterChef.sol:MasterChef",
            "label": "accSushiPerShare",
            "offset": 0,
            "slot": "3",
            "type": "t_uint256"
          }
        ],
        "numberOfBytes": "128"
      },
      "t_struct(UserInfo)2931_storage": {
        "encoding": "inplace",
        "label": "struct MasterChef.UserInfo",
        "members": [
          {
            "astId": 2928,
            "contract": "contracts/MasterChef/BaoPG/MasterChef.sol:MasterChef",
            "label": "amount",
            "offset": 0,
            "slot": "0",
            "type": "t_uint256"
          },
          {
            "astId": 2930,
            "contract": "contracts/MasterChef/BaoPG/MasterChef.sol:MasterChef",
            "label": "rewardDebt",
            "offset": 0,
            "slot": "1",
            "type": "t_uint256"
          }
        ],
        "numberOfBytes": "64"
      },
      "t_uint256": {
        "encoding": "inplace",
        "label": "uint256",
        "numberOfBytes": "32"
      }
    }
  }
}