{
  "address": "0x17092237cEC0b16c6C3229EE68Ee4DFBFE04d156",
  "abi": [
    {
      "inputs": [
        {
          "internalType": "contract SimpleERC20",
          "name": "_sushi",
          "type": "address"
        },
        {
          "internalType": "address",
          "name": "_devaddr",
          "type": "address"
        },
        {
          "internalType": "uint256",
          "name": "_sushiPerDay",
          "type": "uint256"
        },
        {
          "internalType": "uint256",
          "name": "_startBlock",
          "type": "uint256"
        },
        {
          "internalType": "uint256",
          "name": "_bonusEndBlock",
          "type": "uint256"
        }
      ],
      "stateMutability": "nonpayable",
      "type": "constructor"
    },
    {
      "anonymous": false,
      "inputs": [
        {
          "indexed": true,
          "internalType": "address",
          "name": "user",
          "type": "address"
        },
        {
          "indexed": true,
          "internalType": "uint256",
          "name": "pid",
          "type": "uint256"
        },
        {
          "indexed": false,
          "internalType": "uint256",
          "name": "amount",
          "type": "uint256"
        }
      ],
      "name": "Deposit",
      "type": "event"
    },
    {
      "anonymous": false,
      "inputs": [
        {
          "indexed": true,
          "internalType": "address",
          "name": "user",
          "type": "address"
        },
        {
          "indexed": true,
          "internalType": "uint256",
          "name": "pid",
          "type": "uint256"
        },
        {
          "indexed": false,
          "internalType": "uint256",
          "name": "amount",
          "type": "uint256"
        }
      ],
      "name": "EmergencyWithdraw",
      "type": "event"
    },
    {
      "anonymous": false,
      "inputs": [
        {
          "indexed": true,
          "internalType": "address",
          "name": "previousOwner",
          "type": "address"
        },
        {
          "indexed": true,
          "internalType": "address",
          "name": "newOwner",
          "type": "address"
        }
      ],
      "name": "OwnershipTransferred",
      "type": "event"
    },
    {
      "anonymous": false,
      "inputs": [
        {
          "indexed": true,
          "internalType": "address",
          "name": "user",
          "type": "address"
        },
        {
          "indexed": true,
          "internalType": "uint256",
          "name": "pid",
          "type": "uint256"
        },
        {
          "indexed": false,
          "internalType": "uint256",
          "name": "amount",
          "type": "uint256"
        }
      ],
      "name": "Withdraw",
      "type": "event"
    },
    {
      "inputs": [],
      "name": "BONUS_MULTIPLIER",
      "outputs": [
        {
          "internalType": "uint256",
          "name": "",
          "type": "uint256"
        }
      ],
      "stateMutability": "view",
      "type": "function"
    },
    {
      "inputs": [
        {
          "internalType": "uint256",
          "name": "_allocPoint",
          "type": "uint256"
        },
        {
          "internalType": "contract IERC20",
          "name": "_lpToken",
          "type": "address"
        },
        {
          "internalType": "bool",
          "name": "_withUpdate",
          "type": "bool"
        }
      ],
      "name": "add",
      "outputs": [],
      "stateMutability": "nonpayable",
      "type": "function"
    },
    {
      "inputs": [],
      "name": "bonusEndBlock",
      "outputs": [
        {
          "internalType": "uint256",
          "name": "",
          "type": "uint256"
        }
      ],
      "stateMutability": "view",
      "type": "function"
    },
    {
      "inputs": [
        {
          "internalType": "uint256",
          "name": "_pid",
          "type": "uint256"
        },
        {
          "internalType": "uint256",
          "name": "_amount",
          "type": "uint256"
        }
      ],
      "name": "deposit",
      "outputs": [],
      "stateMutability": "nonpayable",
      "type": "function"
    },
    {
      "inputs": [
        {
          "internalType": "address",
          "name": "_devaddr",
          "type": "address"
        }
      ],
      "name": "dev",
      "outputs": [],
      "stateMutability": "nonpayable",
      "type": "function"
    },
    {
      "inputs": [],
      "name": "devaddr",
      "outputs": [
        {
          "internalType": "address",
          "name": "",
          "type": "address"
        }
      ],
      "stateMutability": "view",
      "type": "function"
    },
    {
      "inputs": [
        {
          "internalType": "uint256",
          "name": "_pid",
          "type": "uint256"
        }
      ],
      "name": "emergencyWithdraw",
      "outputs": [],
      "stateMutability": "nonpayable",
      "type": "function"
    },
    {
      "inputs": [],
      "name": "massUpdatePools",
      "outputs": [],
      "stateMutability": "nonpayable",
      "type": "function"
    },
    {
      "inputs": [
        {
          "internalType": "uint256",
          "name": "_pid",
          "type": "uint256"
        }
      ],
      "name": "migrate",
      "outputs": [],
      "stateMutability": "nonpayable",
      "type": "function"
    },
    {
      "inputs": [],
      "name": "migrator",
      "outputs": [
        {
          "internalType": "contract IMigratorChef",
          "name": "",
          "type": "address"
        }
      ],
      "stateMutability": "view",
      "type": "function"
    },
    {
      "inputs": [],
      "name": "owner",
      "outputs": [
        {
          "internalType": "address",
          "name": "",
          "type": "address"
        }
      ],
      "stateMutability": "view",
      "type": "function"
    },
    {
      "inputs": [
        {
          "internalType": "uint256",
          "name": "_pid",
          "type": "uint256"
        },
        {
          "internalType": "address",
          "name": "_user",
          "type": "address"
        }
      ],
      "name": "pendingReward",
      "outputs": [
        {
          "internalType": "uint256",
          "name": "",
          "type": "uint256"
        }
      ],
      "stateMutability": "view",
      "type": "function"
    },
    {
      "inputs": [
        {
          "internalType": "uint256",
          "name": "",
          "type": "uint256"
        }
      ],
      "name": "poolInfo",
      "outputs": [
        {
          "internalType": "contract IERC20",
          "name": "lpToken",
          "type": "address"
        },
        {
          "internalType": "uint256",
          "name": "allocPoint",
          "type": "uint256"
        },
        {
          "internalType": "uint256",
          "name": "lastRewardTime",
          "type": "uint256"
        },
        {
          "internalType": "uint256",
          "name": "accSushiPerShare",
          "type": "uint256"
        }
      ],
      "stateMutability": "view",
      "type": "function"
    },
    {
      "inputs": [],
      "name": "poolLength",
      "outputs": [
        {
          "internalType": "uint256",
          "name": "",
          "type": "uint256"
        }
      ],
      "stateMutability": "view",
      "type": "function"
    },
    {
      "inputs": [],
      "name": "renounceOwnership",
      "outputs": [],
      "stateMutability": "nonpayable",
      "type": "function"
    },
    {
      "inputs": [],
      "name": "rewardToken",
      "outputs": [
        {
          "internalType": "address",
          "name": "",
          "type": "address"
        }
      ],
      "stateMutability": "view",
      "type": "function"
    },
    {
      "inputs": [
        {
          "internalType": "uint256",
          "name": "_pid",
          "type": "uint256"
        },
        {
          "internalType": "uint256",
          "name": "_allocPoint",
          "type": "uint256"
        },
        {
          "internalType": "bool",
          "name": "_withUpdate",
          "type": "bool"
        }
      ],
      "name": "set",
      "outputs": [],
      "stateMutability": "nonpayable",
      "type": "function"
    },
    {
      "inputs": [
        {
          "internalType": "contract IMigratorChef",
          "name": "_migrator",
          "type": "address"
        }
      ],
      "name": "setMigrator",
      "outputs": [],
      "stateMutability": "nonpayable",
      "type": "function"
    },
    {
      "inputs": [],
      "name": "startBlock",
      "outputs": [
        {
          "internalType": "uint256",
          "name": "",
          "type": "uint256"
        }
      ],
      "stateMutability": "view",
      "type": "function"
    },
    {
      "inputs": [],
      "name": "sushi",
      "outputs": [
        {
          "internalType": "contract SimpleERC20",
          "name": "",
          "type": "address"
        }
      ],
      "stateMutability": "view",
      "type": "function"
    },
    {
      "inputs": [],
      "name": "sushiPerDay",
      "outputs": [
        {
          "internalType": "uint256",
          "name": "",
          "type": "uint256"
        }
      ],
      "stateMutability": "view",
      "type": "function"
    },
    {
      "inputs": [],
      "name": "totalAllocPoint",
      "outputs": [
        {
          "internalType": "uint256",
          "name": "",
          "type": "uint256"
        }
      ],
      "stateMutability": "view",
      "type": "function"
    },
    {
      "inputs": [
        {
          "internalType": "address",
          "name": "newOwner",
          "type": "address"
        }
      ],
      "name": "transferOwnership",
      "outputs": [],
      "stateMutability": "nonpayable",
      "type": "function"
    },
    {
      "inputs": [
        {
          "internalType": "uint256",
          "name": "_pid",
          "type": "uint256"
        }
      ],
      "name": "updatePool",
      "outputs": [],
      "stateMutability": "nonpayable",
      "type": "function"
    },
    {
      "inputs": [
        {
          "internalType": "uint256",
          "name": "",
          "type": "uint256"
        },
        {
          "internalType": "address",
          "name": "",
          "type": "address"
        }
      ],
      "name": "userInfo",
      "outputs": [
        {
          "internalType": "uint256",
          "name": "amount",
          "type": "uint256"
        },
        {
          "internalType": "uint256",
          "name": "rewardDebt",
          "type": "uint256"
        }
      ],
      "stateMutability": "view",
      "type": "function"
    },
    {
      "inputs": [
        {
          "internalType": "uint256",
          "name": "_pid",
          "type": "uint256"
        },
        {
          "internalType": "uint256",
          "name": "_amount",
          "type": "uint256"
        }
      ],
      "name": "withdraw",
      "outputs": [],
      "stateMutability": "nonpayable",
      "type": "function"
    }
  ],
  "transactionHash": "0x84f9fbf1438dcff8fbdf1c699653f946d6e03c48e00eb015527c7b4fb0ecf5f3",
  "args": [
    "0x8a4Db16D0e861C5bfD2c163a28Ef36a17ba5b5A3",
    "0x46bEC8B77d117fDC69b0681c3697a81B43585C8b",
    100000,
    0,
    1000000000
  ],
  "numDeployments": 2,
  "solcInputHash": "f38414b1552bde0a8310ab46a8f3b0cc",
  "bytecode": "0x608060405260006008553480156200001657600080fd5b5060405162001b8b38038062001b8b8339810160408190526200003991620000d3565b620000443362000083565b600180546001600160a01b039687166001600160a01b031991821617909155600280549590961694169390931790935560045560035560095562000143565b600080546001600160a01b038381166001600160a01b0319831681178455604051919092169283917f8be0079c531659141344cd1fd0a4f28419497f9722a3daafe3b4186f6b6457e09190a35050565b600080600080600060a08688031215620000eb578081fd5b8551620000f8816200012a565b60208701519095506200010b816200012a565b6040870151606088015160809098015196999198509695945092505050565b6001600160a01b03811681146200014057600080fd5b50565b611a3880620001536000396000f3fe608060405234801561001057600080fd5b506004361061018e5760003560e01c806364482f79116100de57806393f1a40b11610097578063d49e77cd11610071578063d49e77cd14610366578063e2bbb15814610379578063f2fde38b1461038c578063f7c618c11461039f57600080fd5b806393f1a40b1461030357806398969e821461034a578063af8106101461035d57600080fd5b806364482f79146102a9578063715018a6146102bc5780637cd07e47146102c45780638aa28550146102d75780638d88a90e146102df5780638da5cb5b146102f257600080fd5b806323cf31181161014b57806348cd4cb11161012557806348cd4cb11461027257806351eb05a61461027b5780635312ea8e1461028e578063630b5ba1146102a157600080fd5b806323cf311814610239578063441a3e701461024c578063454b06081461025f57600080fd5b8063081e3eda146101935780630a087903146101aa5780631526fe27146101d557806317caf6f1146102125780631aed65531461021b5780631eaaa04514610224575b600080fd5b6006545b6040519081526020015b60405180910390f35b6001546101bd906001600160a01b031681565b6040516001600160a01b0390911681526020016101a1565b6101e86101e33660046117a2565b6103b0565b604080516001600160a01b03909516855260208501939093529183015260608201526080016101a1565b61019760085481565b61019760035481565b610237610232366004611801565b6103f4565b005b61023761024736600461174e565b610534565b61023761025a366004611842565b610580565b61023761026d3660046117a2565b6106e2565b61019760095481565b6102376102893660046117a2565b610958565b61023761029c3660046117a2565b610bf3565b610237610ca3565b6102376102b7366004611863565b610cce565b610237610d99565b6005546101bd906001600160a01b031681565b610197600a81565b6102376102ed36600461174e565b610dcf565b6000546001600160a01b03166101bd565b6103356103113660046117d2565b60076020908152600092835260408084209091529082529020805460019091015482565b604080519283526020830191909152016101a1565b6101976103583660046117d2565b610e37565b61019760045481565b6002546101bd906001600160a01b031681565b610237610387366004611842565b610fc9565b61023761039a36600461174e565b6110e2565b6001546001600160a01b03166101bd565b600681815481106103c057600080fd5b600091825260209091206004909102018054600182015460028301546003909301546001600160a01b039092169350919084565b6000546001600160a01b031633146104275760405162461bcd60e51b815260040161041e906118df565b60405180910390fd5b801561043557610435610ca3565b6008544290610444908561117d565b600855604080516080810182526001600160a01b0394851681526020810195865290810191825260006060820181815260068054600181018255925291517ff652222313e28459528d920b65115c16c04f3efc82aaedc97be59f3f377c0d3f600490920291820180546001600160a01b031916919096161790945593517ff652222313e28459528d920b65115c16c04f3efc82aaedc97be59f3f377c0d40840155517ff652222313e28459528d920b65115c16c04f3efc82aaedc97be59f3f377c0d418301555090517ff652222313e28459528d920b65115c16c04f3efc82aaedc97be59f3f377c0d4290910155565b6000546001600160a01b0316331461055e5760405162461bcd60e51b815260040161041e906118df565b600580546001600160a01b0319166001600160a01b0392909216919091179055565b6000600683815481106105a357634e487b7160e01b600052603260045260246000fd5b6000918252602080832086845260078252604080852033865290925292208054600490920290920192508311156106115760405162461bcd60e51b81526020600482015260126024820152711dda5d1a191c985dce881b9bdd0819dbdbd960721b604482015260640161041e565b61061a84610958565b6000610654826001015461064e64e8d4a510006106488760030154876000015461119090919063ffffffff16565b9061119c565b906111a8565b905061066033826111b4565b815461066c90856111a8565b80835560038401546106899164e8d4a51000916106489190611190565b600183015582546106a4906001600160a01b03163386611305565b604051848152859033907ff279e6a1f5e320cca91135676d9cb6e44ca8a08c0b88342bcdb1144f6511b5689060200160405180910390a35050505050565b6005546001600160a01b03166107315760405162461bcd60e51b815260206004820152601460248201527336b4b3b930ba329d1037379036b4b3b930ba37b960611b604482015260640161041e565b60006006828154811061075457634e487b7160e01b600052603260045260246000fd5b60009182526020822060049182020180546040516370a0823160e01b815230938101939093529093506001600160a01b0316919082906370a082319060240160206040518083038186803b1580156107ab57600080fd5b505afa1580156107bf573d6000803e3d6000fd5b505050506040513d601f19601f820116820180604052508101906107e391906117ba565b600554909150610800906001600160a01b03848116911683611368565b60055460405163ce5494bb60e01b81526001600160a01b038481166004830152600092169063ce5494bb90602401602060405180830381600087803b15801561084857600080fd5b505af115801561085c573d6000803e3d6000fd5b505050506040513d601f19601f820116820180604052508101906108809190611786565b6040516370a0823160e01b81523060048201529091506001600160a01b038216906370a082319060240160206040518083038186803b1580156108c257600080fd5b505afa1580156108d6573d6000803e3d6000fd5b505050506040513d601f19601f820116820180604052508101906108fa91906117ba565b82146109375760405162461bcd60e51b815260206004820152600c60248201526b1b5a59dc985d194e8818985960a21b604482015260640161041e565b83546001600160a01b0319166001600160a01b039190911617909255505050565b60006006828154811061097b57634e487b7160e01b600052603260045260246000fd5b906000526020600020906004020190506109a562015180826002015461117d90919063ffffffff16565b42116109af575050565b80546040516370a0823160e01b81523060048201526000916001600160a01b0316906370a082319060240160206040518083038186803b1580156109f257600080fd5b505afa158015610a06573d6000803e3d6000fd5b505050506040513d601f19601f82011682018060405250810190610a2a91906117ba565b905080610a3c57504260029091015550565b6000610a646018610648603c610648603c6106488960020154426111a890919063ffffffff16565b90506000600854846001015460045484610a7e919061194c565b610a88919061194c565b610a92919061192c565b6001546002549192506001600160a01b03908116916340c10f199116610ab984600a61119c565b6040516001600160e01b031960e085901b1681526001600160a01b0390921660048301526024820152604401602060405180830381600087803b158015610aff57600080fd5b505af1158015610b13573d6000803e3d6000fd5b505050506040513d601f19601f82011682018060405250810190610b37919061176a565b506001546040516340c10f1960e01b8152306004820152602481018390526001600160a01b03909116906340c10f1990604401602060405180830381600087803b158015610b8457600080fd5b505af1158015610b98573d6000803e3d6000fd5b505050506040513d601f19601f82011682018060405250810190610bbc919061176a565b50610bde610bd3846106488464e8d4a51000611190565b60038601549061117d565b60038501555050426002909201919091555050565b600060068281548110610c1657634e487b7160e01b600052603260045260246000fd5b60009182526020808320858452600782526040808520338087529352909320805460049093029093018054909450610c5b926001600160a01b03919091169190611305565b8054604051908152839033907fbb757047c2b5f3974fe26b7c10f732e7bce710b0952a71082702781e62ae05959060200160405180910390a360008082556001909101555050565b60065460005b81811015610cca57610cba81610958565b610cc3816119ae565b9050610ca9565b5050565b6000546001600160a01b03163314610cf85760405162461bcd60e51b815260040161041e906118df565b8015610d0657610d06610ca3565b610d5782610d5160068681548110610d2e57634e487b7160e01b600052603260045260246000fd5b9060005260206000209060040201600101546008546111a890919063ffffffff16565b9061117d565b6008819055508160068481548110610d7f57634e487b7160e01b600052603260045260246000fd5b906000526020600020906004020160010181905550505050565b6000546001600160a01b03163314610dc35760405162461bcd60e51b815260040161041e906118df565b610dcd600061148c565b565b6002546001600160a01b03163314610e155760405162461bcd60e51b81526020600482015260096024820152686465763a207775743f60b81b604482015260640161041e565b600280546001600160a01b0319166001600160a01b0392909216919091179055565b60008060068481548110610e5b57634e487b7160e01b600052603260045260246000fd5b600091825260208083208784526007825260408085206001600160a01b038981168752935280852060049485029092016003810154815492516370a0823160e01b8152309681019690965290965091949193919216906370a082319060240160206040518083038186803b158015610ed257600080fd5b505afa158015610ee6573d6000803e3d6000fd5b505050506040513d601f19601f82011682018060405250810190610f0a91906117ba565b9050836002015442118015610f1e57508015155b15610f96576000610f446018610648603c610648603c8a6002015442610648919061196b565b90506000600854866001015460045484610f5e919061194c565b610f68919061194c565b610f72919061192c565b9050610f91610f8a846106488464e8d4a51000611190565b859061117d565b935050505b610fbe836001015461064e64e8d4a5100061064886886000015461119090919063ffffffff16565b979650505050505050565b600060068381548110610fec57634e487b7160e01b600052603260045260246000fd5b6000918252602080832086845260078252604080852033865290925292206004909102909101915061101d84610958565b805415611060576000611052826001015461064e64e8d4a510006106488760030154876000015461119090919063ffffffff16565b905061105e33826111b4565b505b8154611077906001600160a01b03163330866114dc565b8054611083908461117d565b80825560038301546110a09164e8d4a51000916106489190611190565b6001820155604051838152849033907f90890809c654f11d6e72a28fa60149770a0d11ec6c92319d6ceb2bb0a4ea1a159060200160405180910390a350505050565b6000546001600160a01b0316331461110c5760405162461bcd60e51b815260040161041e906118df565b6001600160a01b0381166111715760405162461bcd60e51b815260206004820152602660248201527f4f776e61626c653a206e6577206f776e657220697320746865207a65726f206160448201526564647265737360d01b606482015260840161041e565b61117a8161148c565b50565b60006111898284611914565b9392505050565b6000611189828461194c565b6000611189828461192c565b6000611189828461196b565b6001546040516370a0823160e01b81523060048201526000916001600160a01b0316906370a082319060240160206040518083038186803b1580156111f857600080fd5b505afa15801561120c573d6000803e3d6000fd5b505050506040513d601f19601f8201168201806040525081019061123091906117ba565b9050808211156112c75760015460405163a9059cbb60e01b81526001600160a01b038581166004830152602482018490529091169063a9059cbb906044015b602060405180830381600087803b15801561128957600080fd5b505af115801561129d573d6000803e3d6000fd5b505050506040513d601f19601f820116820180604052508101906112c1919061176a565b50505050565b60015460405163a9059cbb60e01b81526001600160a01b038581166004830152602482018590529091169063a9059cbb9060440161126f565b505050565b6040516001600160a01b03831660248201526044810182905261130090849063a9059cbb60e01b906064015b60408051601f198184030181529190526020810180516001600160e01b03166001600160e01b031990931692909217909152611514565b8015806113f15750604051636eb1769f60e11b81523060048201526001600160a01b03838116602483015284169063dd62ed3e9060440160206040518083038186803b1580156113b757600080fd5b505afa1580156113cb573d6000803e3d6000fd5b505050506040513d601f19601f820116820180604052508101906113ef91906117ba565b155b61145c5760405162461bcd60e51b815260206004820152603660248201527f5361666545524332303a20617070726f76652066726f6d206e6f6e2d7a65726f60448201527520746f206e6f6e2d7a65726f20616c6c6f77616e636560501b606482015260840161041e565b6040516001600160a01b03831660248201526044810182905261130090849063095ea7b360e01b90606401611331565b600080546001600160a01b038381166001600160a01b0319831681178455604051919092169283917f8be0079c531659141344cd1fd0a4f28419497f9722a3daafe3b4186f6b6457e09190a35050565b6040516001600160a01b03808516602483015283166044820152606481018290526112c19085906323b872dd60e01b90608401611331565b6000611569826040518060400160405280602081526020017f5361666545524332303a206c6f772d6c6576656c2063616c6c206661696c6564815250856001600160a01b03166115e69092919063ffffffff16565b8051909150156113005780806020019051810190611587919061176a565b6113005760405162461bcd60e51b815260206004820152602a60248201527f5361666545524332303a204552433230206f7065726174696f6e20646964206e6044820152691bdd081cdd58d8d9595960b21b606482015260840161041e565b60606115f584846000856115fd565b949350505050565b60608247101561165e5760405162461bcd60e51b815260206004820152602660248201527f416464726573733a20696e73756666696369656e742062616c616e636520666f6044820152651c8818d85b1b60d21b606482015260840161041e565b843b6116ac5760405162461bcd60e51b815260206004820152601d60248201527f416464726573733a2063616c6c20746f206e6f6e2d636f6e7472616374000000604482015260640161041e565b600080866001600160a01b031685876040516116c89190611890565b60006040518083038185875af1925050503d8060008114611705576040519150601f19603f3d011682016040523d82523d6000602084013e61170a565b606091505b5091509150610fbe82828660608315611724575081611189565b8251156117345782518084602001fd5b8160405162461bcd60e51b815260040161041e91906118ac565b60006020828403121561175f578081fd5b8135611189816119df565b60006020828403121561177b578081fd5b8151611189816119f4565b600060208284031215611797578081fd5b8151611189816119df565b6000602082840312156117b3578081fd5b5035919050565b6000602082840312156117cb578081fd5b5051919050565b600080604083850312156117e4578081fd5b8235915060208301356117f6816119df565b809150509250929050565b600080600060608486031215611815578081fd5b833592506020840135611827816119df565b91506040840135611837816119f4565b809150509250925092565b60008060408385031215611854578182fd5b50508035926020909101359150565b600080600060608486031215611877578283fd5b83359250602084013591506040840135611837816119f4565b600082516118a2818460208701611982565b9190910192915050565b60208152600082518060208401526118cb816040850160208701611982565b601f01601f19169190910160400192915050565b6020808252818101527f4f776e61626c653a2063616c6c6572206973206e6f7420746865206f776e6572604082015260600190565b60008219821115611927576119276119c9565b500190565b60008261194757634e487b7160e01b81526012600452602481fd5b500490565b6000816000190483118215151615611966576119666119c9565b500290565b60008282101561197d5761197d6119c9565b500390565b60005b8381101561199d578181015183820152602001611985565b838111156112c15750506000910152565b60006000198214156119c2576119c26119c9565b5060010190565b634e487b7160e01b600052601160045260246000fd5b6001600160a01b038116811461117a57600080fd5b801515811461117a57600080fdfea264697066735822122092c48ebbb49176161359f7473b11adf6712b735803e1f079a597dd43660c0f3c64736f6c63430008040033",
  "devdoc": {
    "kind": "dev",
    "methods": {
      "owner()": {
        "details": "Returns the address of the current owner."
      },
      "renounceOwnership()": {
        "details": "Leaves the contract without owner. It will not be possible to call `onlyOwner` functions anymore. Can only be called by the current owner. NOTE: Renouncing ownership will leave the contract without an owner, thereby removing any functionality that is only available to the owner."
      },
      "transferOwnership(address)": {
        "details": "Transfers ownership of the contract to a new account (`newOwner`). Can only be called by the current owner."
      }
    },
    "version": 1
  },
  "userdoc": {
    "kind": "user",
    "methods": {},
    "version": 1
  },
  "storageLayout": {
    "storage": [
      {
        "astId": 326,
        "contract": "contracts/MasterChef/BaoPG/MasterChef.sol:MasterChef",
        "label": "_owner",
        "offset": 0,
        "slot": "0",
        "type": "t_address"
      },
      {
        "astId": 3110,
        "contract": "contracts/MasterChef/BaoPG/MasterChef.sol:MasterChef",
        "label": "sushi",
        "offset": 0,
        "slot": "1",
        "type": "t_contract(SimpleERC20)3063"
      },
      {
        "astId": 3112,
        "contract": "contracts/MasterChef/BaoPG/MasterChef.sol:MasterChef",
        "label": "devaddr",
        "offset": 0,
        "slot": "2",
        "type": "t_address"
      },
      {
        "astId": 3114,
        "contract": "contracts/MasterChef/BaoPG/MasterChef.sol:MasterChef",
        "label": "bonusEndBlock",
        "offset": 0,
        "slot": "3",
        "type": "t_uint256"
      },
      {
        "astId": 3116,
        "contract": "contracts/MasterChef/BaoPG/MasterChef.sol:MasterChef",
        "label": "sushiPerDay",
        "offset": 0,
        "slot": "4",
        "type": "t_uint256"
      },
      {
        "astId": 3122,
        "contract": "contracts/MasterChef/BaoPG/MasterChef.sol:MasterChef",
        "label": "migrator",
        "offset": 0,
        "slot": "5",
        "type": "t_contract(IMigratorChef)3083"
      },
      {
        "astId": 3126,
        "contract": "contracts/MasterChef/BaoPG/MasterChef.sol:MasterChef",
        "label": "poolInfo",
        "offset": 0,
        "slot": "6",
        "type": "t_array(t_struct(PoolInfo)3107_storage)dyn_storage"
      },
      {
        "astId": 3133,
        "contract": "contracts/MasterChef/BaoPG/MasterChef.sol:MasterChef",
        "label": "userInfo",
        "offset": 0,
        "slot": "7",
        "type": "t_mapping(t_uint256,t_mapping(t_address,t_struct(UserInfo)3097_storage))"
      },
      {
        "astId": 3136,
        "contract": "contracts/MasterChef/BaoPG/MasterChef.sol:MasterChef",
        "label": "totalAllocPoint",
        "offset": 0,
        "slot": "8",
        "type": "t_uint256"
      },
      {
        "astId": 3138,
        "contract": "contracts/MasterChef/BaoPG/MasterChef.sol:MasterChef",
        "label": "startBlock",
        "offset": 0,
        "slot": "9",
        "type": "t_uint256"
      }
    ],
    "types": {
      "t_address": {
        "encoding": "inplace",
        "label": "address",
        "numberOfBytes": "20"
      },
      "t_array(t_struct(PoolInfo)3107_storage)dyn_storage": {
        "base": "t_struct(PoolInfo)3107_storage",
        "encoding": "dynamic_array",
        "label": "struct MasterChef.PoolInfo[]",
        "numberOfBytes": "32"
      },
      "t_contract(IERC20)1253": {
        "encoding": "inplace",
        "label": "contract IERC20",
        "numberOfBytes": "20"
      },
      "t_contract(IMigratorChef)3083": {
        "encoding": "inplace",
        "label": "contract IMigratorChef",
        "numberOfBytes": "20"
      },
      "t_contract(SimpleERC20)3063": {
        "encoding": "inplace",
        "label": "contract SimpleERC20",
        "numberOfBytes": "20"
      },
      "t_mapping(t_address,t_struct(UserInfo)3097_storage)": {
        "encoding": "mapping",
        "key": "t_address",
        "label": "mapping(address => struct MasterChef.UserInfo)",
        "numberOfBytes": "32",
        "value": "t_struct(UserInfo)3097_storage"
      },
      "t_mapping(t_uint256,t_mapping(t_address,t_struct(UserInfo)3097_storage))": {
        "encoding": "mapping",
        "key": "t_uint256",
        "label": "mapping(uint256 => mapping(address => struct MasterChef.UserInfo))",
        "numberOfBytes": "32",
        "value": "t_mapping(t_address,t_struct(UserInfo)3097_storage)"
      },
      "t_struct(PoolInfo)3107_storage": {
        "encoding": "inplace",
        "label": "struct MasterChef.PoolInfo",
        "members": [
          {
            "astId": 3100,
            "contract": "contracts/MasterChef/BaoPG/MasterChef.sol:MasterChef",
            "label": "lpToken",
            "offset": 0,
            "slot": "0",
            "type": "t_contract(IERC20)1253"
          },
          {
            "astId": 3102,
            "contract": "contracts/MasterChef/BaoPG/MasterChef.sol:MasterChef",
            "label": "allocPoint",
            "offset": 0,
            "slot": "1",
            "type": "t_uint256"
          },
          {
            "astId": 3104,
            "contract": "contracts/MasterChef/BaoPG/MasterChef.sol:MasterChef",
            "label": "lastRewardTime",
            "offset": 0,
            "slot": "2",
            "type": "t_uint256"
          },
          {
            "astId": 3106,
            "contract": "contracts/MasterChef/BaoPG/MasterChef.sol:MasterChef",
            "label": "accSushiPerShare",
            "offset": 0,
            "slot": "3",
            "type": "t_uint256"
          }
        ],
        "numberOfBytes": "128"
      },
      "t_struct(UserInfo)3097_storage": {
        "encoding": "inplace",
        "label": "struct MasterChef.UserInfo",
        "members": [
          {
            "astId": 3094,
            "contract": "contracts/MasterChef/BaoPG/MasterChef.sol:MasterChef",
            "label": "amount",
            "offset": 0,
            "slot": "0",
            "type": "t_uint256"
          },
          {
            "astId": 3096,
            "contract": "contracts/MasterChef/BaoPG/MasterChef.sol:MasterChef",
            "label": "rewardDebt",
            "offset": 0,
            "slot": "1",
            "type": "t_uint256"
          }
        ],
        "numberOfBytes": "64"
      },
      "t_uint256": {
        "encoding": "inplace",
        "label": "uint256",
        "numberOfBytes": "32"
      }
    }
  }
}