{
  "address": "0xa24C0Ef83BAD808A9Ad0295982B22DA9966747e7",
  "abi": [
    {
      "anonymous": false,
      "inputs": [
        {
          "indexed": true,
          "internalType": "address",
          "name": "previousOwner",
          "type": "address"
        },
        {
          "indexed": true,
          "internalType": "address",
          "name": "newOwner",
          "type": "address"
        }
      ],
      "name": "OwnershipTransferred",
      "type": "event"
    },
    {
      "inputs": [
        {
          "internalType": "address",
          "name": "_from",
          "type": "address"
        },
        {
          "internalType": "address",
          "name": "_to",
          "type": "address"
        },
        {
          "internalType": "address",
          "name": "_router",
          "type": "address"
        },
        {
          "internalType": "address[]",
          "name": "path",
          "type": "address[]"
        }
      ],
      "name": "addRoute",
      "outputs": [],
      "stateMutability": "nonpayable",
      "type": "function"
    },
    {
      "inputs": [
        {
          "internalType": "address",
          "name": "_fromToken",
          "type": "address"
        },
        {
          "internalType": "address",
          "name": "_toToken",
          "type": "address"
        }
      ],
      "name": "getSwapRoute",
      "outputs": [
        {
          "internalType": "address",
          "name": "_router",
          "type": "address"
        },
        {
          "internalType": "address[]",
          "name": "_path",
          "type": "address[]"
        }
      ],
      "stateMutability": "view",
      "type": "function"
    },
    {
      "inputs": [],
      "name": "owner",
      "outputs": [
        {
          "internalType": "address",
          "name": "",
          "type": "address"
        }
      ],
      "stateMutability": "view",
      "type": "function"
    },
    {
      "inputs": [
        {
          "internalType": "address",
          "name": "_from",
          "type": "address"
        },
        {
          "internalType": "address",
          "name": "_to",
          "type": "address"
        }
      ],
      "name": "removeRoute",
      "outputs": [],
      "stateMutability": "nonpayable",
      "type": "function"
    },
    {
      "inputs": [],
      "name": "renounceOwnership",
      "outputs": [],
      "stateMutability": "nonpayable",
      "type": "function"
    },
    {
      "inputs": [
        {
          "internalType": "address",
          "name": "",
          "type": "address"
        },
        {
          "internalType": "address",
          "name": "",
          "type": "address"
        }
      ],
      "name": "routes",
      "outputs": [
        {
          "internalType": "address",
          "name": "router",
          "type": "address"
        }
      ],
      "stateMutability": "view",
      "type": "function"
    },
    {
      "inputs": [
        {
          "internalType": "address",
          "name": "newOwner",
          "type": "address"
        }
      ],
      "name": "transferOwnership",
      "outputs": [],
      "stateMutability": "nonpayable",
      "type": "function"
    }
  ],
  "transactionHash": "0x7e73bf3e6f899358354131fe9cac3d80b97c72f9b1b0f1d9447ca779ac28156b",
  "args": [],
  "numDeployments": 1,
  "solcInputHash": "f38414b1552bde0a8310ab46a8f3b0cc",
  "bytecode": "0x608060405234801561001057600080fd5b5061001a3361001f565b61006f565b600080546001600160a01b038381166001600160a01b0319831681178455604051919092169283917f8be0079c531659141344cd1fd0a4f28419497f9722a3daafe3b4186f6b6457e09190a35050565b61097a8061007e6000396000f3fe608060405234801561001057600080fd5b506004361061007d5760003560e01c80638da5cb5b1161005b5780638da5cb5b14610102578063c290e7c514610113578063c3787e6014610126578063f2fde38b1461013957600080fd5b8063102b34a3146100825780635055374d146100ac578063715018a6146100f8575b600080fd5b6100956100903660046107be565b61014c565b6040516100a3929190610890565b60405180910390f35b6100e06100ba3660046107be565b60016020908152600092835260408084209091529082529020546001600160a01b031681565b6040516001600160a01b0390911681526020016100a3565b6101006101e0565b005b6000546001600160a01b03166100e0565b6101006101213660046107be565b61021f565b6101006101343660046107f0565b6102b6565b61010061014736600461079d565b61061c565b6001600160a01b0380831660009081526001602081815260408084208686168552825292839020805492810180548551818502810185019096528086529390951694606094919391929091908301828280156101d157602002820191906000526020600020905b81546001600160a01b031681526001909101906020018083116101b3575b50505050509150509250929050565b6000546001600160a01b031633146102135760405162461bcd60e51b815260040161020a906108ec565b60405180910390fd5b61021d60006106b7565b565b6000546001600160a01b031633146102495760405162461bcd60e51b815260040161020a906108ec565b6040805180820182526000808252606060208084018281526001600160a01b03888116855260018084528786208983168752845296909420855181546001600160a01b031916951694909417845551805192956102ae93908501929190910190610707565b505050505050565b6000546001600160a01b031633146102e05760405162461bcd60e51b815260040161020a906108ec565b6001600160a01b03851661032d5760405162461bcd60e51b815260206004820152601460248201527314dc98c81d1bdad95b881a5cc81a5b9d985b1a5960621b604482015260640161020a565b6001600160a01b03841661037a5760405162461bcd60e51b8152602060048201526014602482015273111cdd081d1bdad95b881a5cc81a5b9d985b1a5960621b604482015260640161020a565b836001600160a01b0316856001600160a01b031614156103ea5760405162461bcd60e51b815260206004820152602560248201527f53726320746f6b656e206d75737420626520646966662066726f6d20447374206044820152643a37b5b2b760d91b606482015260840161020a565b6001600160a01b0383166104345760405162461bcd60e51b8152602060048201526011602482015270149bdd5d195c881a5cc81a5b9d985b1a59607a1b604482015260640161020a565b846001600160a01b03168282600081811061045f57634e487b7160e01b600052603260045260246000fd5b9050602002016020810190610474919061079d565b6001600160a01b0316146104ca5760405162461bcd60e51b815260206004820152601f60248201527f526f757465206d75737420737461727420776974682073726320746f6b656e00604482015260640161020a565b6001600160a01b03841682826104e1600182610921565b8181106104fe57634e487b7160e01b600052603260045260246000fd5b9050602002016020810190610513919061079d565b6001600160a01b0316146105695760405162461bcd60e51b815260206004820152601d60248201527f526f757465206d75737420656e6420776974682064737420746f6b656e000000604482015260640161020a565b60006040518060400160405280856001600160a01b0316815260200184848080602002602001604051908101604052809392919081815260200183836020028082843760009201829052509390945250506001600160a01b0389811682526001602081815260408085208c851686528252909320855181546001600160a01b031916931692909217825584830151805195965086959294506106119391850192910190610707565b505050505050505050565b6000546001600160a01b031633146106465760405162461bcd60e51b815260040161020a906108ec565b6001600160a01b0381166106ab5760405162461bcd60e51b815260206004820152602660248201527f4f776e61626c653a206e6577206f776e657220697320746865207a65726f206160448201526564647265737360d01b606482015260840161020a565b6106b4816106b7565b50565b600080546001600160a01b038381166001600160a01b0319831681178455604051919092169283917f8be0079c531659141344cd1fd0a4f28419497f9722a3daafe3b4186f6b6457e09190a35050565b82805482825590600052602060002090810192821561075c579160200282015b8281111561075c57825182546001600160a01b0319166001600160a01b03909116178255602090920191600190910190610727565b5061076892915061076c565b5090565b5b80821115610768576000815560010161076d565b80356001600160a01b038116811461079857600080fd5b919050565b6000602082840312156107ae578081fd5b6107b782610781565b9392505050565b600080604083850312156107d0578081fd5b6107d983610781565b91506107e760208401610781565b90509250929050565b600080600080600060808688031215610807578081fd5b61081086610781565b945061081e60208701610781565b935061082c60408701610781565b9250606086013567ffffffffffffffff80821115610848578283fd5b818801915088601f83011261085b578283fd5b813581811115610869578384fd5b8960208260051b850101111561087d578384fd5b9699959850939650602001949392505050565b6001600160a01b038381168252604060208084018290528451918401829052600092858201929091906060860190855b818110156108de5785518516835294830194918301916001016108c0565b509098975050505050505050565b6020808252818101527f4f776e61626c653a2063616c6c6572206973206e6f7420746865206f776e6572604082015260600190565b60008282101561093f57634e487b7160e01b81526011600452602481fd5b50039056fea2646970667358221220bb159e64956dc7135bdb4b52bebef4be66631df966a7e3ca954c3c7712a352cb64736f6c63430008040033",
  "devdoc": {
    "kind": "dev",
    "methods": {
      "owner()": {
        "details": "Returns the address of the current owner."
      },
      "renounceOwnership()": {
        "details": "Leaves the contract without owner. It will not be possible to call `onlyOwner` functions anymore. Can only be called by the current owner. NOTE: Renouncing ownership will leave the contract without an owner, thereby removing any functionality that is only available to the owner."
      },
      "transferOwnership(address)": {
        "details": "Transfers ownership of the contract to a new account (`newOwner`). Can only be called by the current owner."
      }
    },
    "version": 1
  },
  "userdoc": {
    "kind": "user",
    "methods": {},
    "version": 1
  },
  "storageLayout": {
    "storage": [
      {
        "astId": 326,
        "contract": "contracts/Vault/BaoPG/Router.sol:Router",
        "label": "_owner",
        "offset": 0,
        "slot": "0",
        "type": "t_address"
      },
      {
        "astId": 3981,
        "contract": "contracts/Vault/BaoPG/Router.sol:Router",
        "label": "routes",
        "offset": 0,
        "slot": "1",
        "type": "t_mapping(t_address,t_mapping(t_address,t_struct(RouteInfo)5638_storage))"
      }
    ],
    "types": {
      "t_address": {
        "encoding": "inplace",
        "label": "address",
        "numberOfBytes": "20"
      },
      "t_array(t_address)dyn_storage": {
        "base": "t_address",
        "encoding": "dynamic_array",
        "label": "address[]",
        "numberOfBytes": "32"
      },
      "t_mapping(t_address,t_mapping(t_address,t_struct(RouteInfo)5638_storage))": {
        "encoding": "mapping",
        "key": "t_address",
        "label": "mapping(address => mapping(address => struct IRouter.RouteInfo))",
        "numberOfBytes": "32",
        "value": "t_mapping(t_address,t_struct(RouteInfo)5638_storage)"
      },
      "t_mapping(t_address,t_struct(RouteInfo)5638_storage)": {
        "encoding": "mapping",
        "key": "t_address",
        "label": "mapping(address => struct IRouter.RouteInfo)",
        "numberOfBytes": "32",
        "value": "t_struct(RouteInfo)5638_storage"
      },
      "t_struct(RouteInfo)5638_storage": {
        "encoding": "inplace",
        "label": "struct IRouter.RouteInfo",
        "members": [
          {
            "astId": 5634,
            "contract": "contracts/Vault/BaoPG/Router.sol:Router",
            "label": "router",
            "offset": 0,
            "slot": "0",
            "type": "t_address"
          },
          {
            "astId": 5637,
            "contract": "contracts/Vault/BaoPG/Router.sol:Router",
            "label": "path",
            "offset": 0,
            "slot": "1",
            "type": "t_array(t_address)dyn_storage"
          }
        ],
        "numberOfBytes": "64"
      }
    }
  }
}