{
  "address": "0x8AC80aeA95aeF52Bee538e6F38B51564fF8316E1",
  "abi": [
    {
      "inputs": [
        {
          "internalType": "address",
          "name": "_liquidityRouter",
          "type": "address"
        },
        {
          "internalType": "contract IMasterChef",
          "name": "_masterChef",
          "type": "address"
        },
        {
          "internalType": "uint256",
          "name": "_poolId",
          "type": "uint256"
        }
      ],
      "stateMutability": "nonpayable",
      "type": "constructor"
    },
    {
      "anonymous": false,
      "inputs": [
        {
          "indexed": false,
          "internalType": "uint256",
          "name": "_amount",
          "type": "uint256"
        }
      ],
      "name": "Deposited",
      "type": "event"
    },
    {
      "anonymous": false,
      "inputs": [
        {
          "indexed": true,
          "internalType": "address",
          "name": "_earnedToken",
          "type": "address"
        },
        {
          "indexed": false,
          "internalType": "uint256",
          "name": "_amount",
          "type": "uint256"
        }
      ],
      "name": "Earned",
      "type": "event"
    },
    {
      "anonymous": false,
      "inputs": [
        {
          "indexed": false,
          "internalType": "uint256",
          "name": "_lpAmount",
          "type": "uint256"
        }
      ],
      "name": "Exit",
      "type": "event"
    },
    {
      "anonymous": false,
      "inputs": [
        {
          "indexed": false,
          "internalType": "uint256",
          "name": "_amount",
          "type": "uint256"
        }
      ],
      "name": "Withdraw",
      "type": "event"
    },
    {
      "inputs": [],
      "name": "abandon",
      "outputs": [],
      "stateMutability": "nonpayable",
      "type": "function"
    },
    {
      "inputs": [],
      "name": "abandoned",
      "outputs": [
        {
          "internalType": "bool",
          "name": "",
          "type": "bool"
        }
      ],
      "stateMutability": "view",
      "type": "function"
    },
    {
      "inputs": [
        {
          "internalType": "address",
          "name": "_from",
          "type": "address"
        },
        {
          "internalType": "address",
          "name": "_to",
          "type": "address"
        },
        {
          "internalType": "address",
          "name": "_router",
          "type": "address"
        },
        {
          "internalType": "address[]",
          "name": "path",
          "type": "address[]"
        }
      ],
      "name": "addRoute",
      "outputs": [],
      "stateMutability": "nonpayable",
      "type": "function"
    },
    {
      "inputs": [],
      "name": "balanceInFarm",
      "outputs": [
        {
          "internalType": "uint256",
          "name": "",
          "type": "uint256"
        }
      ],
      "stateMutability": "view",
      "type": "function"
    },
    {
      "inputs": [],
      "name": "canAbandon",
      "outputs": [
        {
          "internalType": "bool",
          "name": "",
          "type": "bool"
        }
      ],
      "stateMutability": "view",
      "type": "function"
    },
    {
      "inputs": [],
      "name": "claimRewards",
      "outputs": [],
      "stateMutability": "nonpayable",
      "type": "function"
    },
    {
      "inputs": [],
      "name": "compound",
      "outputs": [],
      "stateMutability": "nonpayable",
      "type": "function"
    },
    {
      "inputs": [
        {
          "internalType": "uint256",
          "name": "_wantAmt",
          "type": "uint256"
        }
      ],
      "name": "deposit",
      "outputs": [
        {
          "internalType": "uint256",
          "name": "",
          "type": "uint256"
        }
      ],
      "stateMutability": "nonpayable",
      "type": "function"
    },
    {
      "inputs": [
        {
          "internalType": "address",
          "name": "target",
          "type": "address"
        },
        {
          "internalType": "uint256",
          "name": "value",
          "type": "uint256"
        },
        {
          "internalType": "string",
          "name": "signature",
          "type": "string"
        },
        {
          "internalType": "bytes",
          "name": "data",
          "type": "bytes"
        }
      ],
      "name": "executeTransaction",
      "outputs": [
        {
          "internalType": "bytes",
          "name": "",
          "type": "bytes"
        }
      ],
      "stateMutability": "nonpayable",
      "type": "function"
    },
    {
      "inputs": [],
      "name": "harvestor",
      "outputs": [
        {
          "internalType": "address",
          "name": "",
          "type": "address"
        }
      ],
      "stateMutability": "view",
      "type": "function"
    },
    {
      "inputs": [],
      "name": "info",
      "outputs": [
        {
          "internalType": "uint256",
          "name": "_balanceInFarm",
          "type": "uint256"
        },
        {
          "internalType": "uint256",
          "name": "_pendingRewards",
          "type": "uint256"
        },
        {
          "internalType": "bool",
          "name": "_abandoned",
          "type": "bool"
        },
        {
          "internalType": "bool",
          "name": "_canDeposit",
          "type": "bool"
        },
        {
          "internalType": "bool",
          "name": "_canAbandon",
          "type": "bool"
        }
      ],
      "stateMutability": "view",
      "type": "function"
    },
    {
      "inputs": [
        {
          "internalType": "address",
          "name": "_owner",
          "type": "address"
        }
      ],
      "name": "initialize",
      "outputs": [],
      "stateMutability": "nonpayable",
      "type": "function"
    },
    {
      "inputs": [],
      "name": "initialized",
      "outputs": [
        {
          "internalType": "bool",
          "name": "",
          "type": "bool"
        }
      ],
      "stateMutability": "view",
      "type": "function"
    },
    {
      "inputs": [],
      "name": "lastEarnBlock",
      "outputs": [
        {
          "internalType": "uint256",
          "name": "",
          "type": "uint256"
        }
      ],
      "stateMutability": "view",
      "type": "function"
    },
    {
      "inputs": [],
      "name": "liquidityRouter",
      "outputs": [
        {
          "internalType": "address",
          "name": "",
          "type": "address"
        }
      ],
      "stateMutability": "view",
      "type": "function"
    },
    {
      "inputs": [],
      "name": "masterChef",
      "outputs": [
        {
          "internalType": "contract IMasterChef",
          "name": "",
          "type": "address"
        }
      ],
      "stateMutability": "view",
      "type": "function"
    },
    {
      "inputs": [],
      "name": "owner",
      "outputs": [
        {
          "internalType": "address",
          "name": "",
          "type": "address"
        }
      ],
      "stateMutability": "view",
      "type": "function"
    },
    {
      "inputs": [],
      "name": "pending",
      "outputs": [
        {
          "internalType": "uint256",
          "name": "",
          "type": "uint256"
        }
      ],
      "stateMutability": "view",
      "type": "function"
    },
    {
      "inputs": [],
      "name": "poolId",
      "outputs": [
        {
          "internalType": "uint256",
          "name": "",
          "type": "uint256"
        }
      ],
      "stateMutability": "view",
      "type": "function"
    },
    {
      "inputs": [
        {
          "internalType": "address",
          "name": "_token",
          "type": "address"
        },
        {
          "internalType": "uint256",
          "name": "_amount",
          "type": "uint256"
        }
      ],
      "name": "rescueFund",
      "outputs": [],
      "stateMutability": "nonpayable",
      "type": "function"
    },
    {
      "inputs": [],
      "name": "rewardToken",
      "outputs": [
        {
          "internalType": "address",
          "name": "",
          "type": "address"
        }
      ],
      "stateMutability": "view",
      "type": "function"
    },
    {
      "inputs": [
        {
          "internalType": "address",
          "name": "",
          "type": "address"
        },
        {
          "internalType": "address",
          "name": "",
          "type": "address"
        }
      ],
      "name": "routes",
      "outputs": [
        {
          "internalType": "address",
          "name": "router",
          "type": "address"
        }
      ],
      "stateMutability": "view",
      "type": "function"
    },
    {
      "inputs": [
        {
          "internalType": "address",
          "name": "_harvestor",
          "type": "address"
        }
      ],
      "name": "setHarvestor",
      "outputs": [],
      "stateMutability": "nonpayable",
      "type": "function"
    },
    {
      "inputs": [],
      "name": "slippage",
      "outputs": [
        {
          "internalType": "uint256",
          "name": "",
          "type": "uint256"
        }
      ],
      "stateMutability": "view",
      "type": "function"
    },
    {
      "inputs": [],
      "name": "swapTimeout",
      "outputs": [
        {
          "internalType": "uint256",
          "name": "",
          "type": "uint256"
        }
      ],
      "stateMutability": "view",
      "type": "function"
    },
    {
      "inputs": [],
      "name": "token0",
      "outputs": [
        {
          "internalType": "address",
          "name": "",
          "type": "address"
        }
      ],
      "stateMutability": "view",
      "type": "function"
    },
    {
      "inputs": [],
      "name": "token1",
      "outputs": [
        {
          "internalType": "address",
          "name": "",
          "type": "address"
        }
      ],
      "stateMutability": "view",
      "type": "function"
    },
    {
      "inputs": [
        {
          "internalType": "uint256",
          "name": "_slippage",
          "type": "uint256"
        }
      ],
      "name": "updateSlippage",
      "outputs": [],
      "stateMutability": "nonpayable",
      "type": "function"
    },
    {
      "inputs": [],
      "name": "wantAddress",
      "outputs": [
        {
          "internalType": "address",
          "name": "",
          "type": "address"
        }
      ],
      "stateMutability": "view",
      "type": "function"
    },
    {
      "inputs": [
        {
          "internalType": "uint256",
          "name": "_wantAmt",
          "type": "uint256"
        }
      ],
      "name": "withdraw",
      "outputs": [
        {
          "internalType": "uint256",
          "name": "",
          "type": "uint256"
        }
      ],
      "stateMutability": "nonpayable",
      "type": "function"
    },
    {
      "inputs": [],
      "name": "withdrawAll",
      "outputs": [
        {
          "internalType": "uint256",
          "name": "_withdrawBalance",
          "type": "uint256"
        }
      ],
      "stateMutability": "nonpayable",
      "type": "function"
    },
    {
      "stateMutability": "payable",
      "type": "receive"
    }
  ],
  "transactionHash": "0xbaffdee451904d75b181ff51272522c13dd9e4fb4d3060d20d41e682b865c4bb",
  "args": [
    "0x1b02dA8Cb0d097eB8D57A175b88c7D8b47997506",
    "0xB94D807cF088D798D007C02948bA4Ac509acFEb4",
    0
  ],
  "numDeployments": 1,
  "solcInputHash": "e41972cc62bed10204dc364dbb3bc1fa",
  "bytecode": "0x608060405261c3506005553480156200001757600080fd5b5060405162002fce38038062002fce8339810160408190526200003a91620002f6565b6001600055600b80546001600160a01b038086166001600160a01b031992831617909255600a839055600680549285169290911682179055604051631526fe2760e01b8152631526fe27906200009890849060040190815260200190565b60806040518083038186803b158015620000b157600080fd5b505afa158015620000c6573d6000803e3d6000fd5b505050506040513d601f19601f82011682018060405250810190620000ec91906200033d565b5050600480546001600160a01b0319166001600160a01b039384161781556040805163f7c618c160e01b815290519386169363f7c618c1935081830192602092829003018186803b1580156200014157600080fd5b505afa15801562000156573d6000803e3d6000fd5b505050506040513d601f19601f820116820180604052508101906200017c9190620002d0565b600980546001600160a01b0319166001600160a01b039283161790556004805460408051630dfe168160e01b815290519190931692630dfe16819281810192602092909190829003018186803b158015620001d657600080fd5b505afa158015620001eb573d6000803e3d6000fd5b505050506040513d601f19601f82011682018060405250810190620002119190620002d0565b600780546001600160a01b0319166001600160a01b03928316179055600480546040805163d21220a760e01b81529051919093169263d21220a79281810192602092909190829003018186803b1580156200026b57600080fd5b505afa15801562000280573d6000803e3d6000fd5b505050506040513d601f19601f82011682018060405250810190620002a69190620002d0565b600880546001600160a01b0319166001600160a01b03929092169190911790555062000397915050565b600060208284031215620002e2578081fd5b8151620002ef816200037e565b9392505050565b6000806000606084860312156200030b578182fd5b835162000318816200037e565b60208501519093506200032b816200037e565b80925050604084015190509250925092565b6000806000806080858703121562000353578081fd5b845162000360816200037e565b60208601516040870151606090970151919890975090945092505050565b6001600160a01b03811681146200039457600080fd5b50565b612c2780620003a76000396000f3fe6080604052600436106101dc5760003560e01c80636e261df111610102578063c3787e6011610095578063e7a0367911610064578063e7a0367914610579578063edc3e87b14610599578063f69e2046146105ae578063f7c618c1146105c357600080fd5b8063c3787e6014610504578063c4d66de814610524578063d21220a714610544578063e20ccec31461056457600080fd5b80638da5cb5b116100d15780638da5cb5b1461048957806394de34f1146104ae578063b6b55f25146104c4578063ba27240d146104e457600080fd5b80636e261df11461042a578063827cdc7f1461044a578063853828b61461045f578063883188341461047457600080fd5b80632e1a7d4d1161017a5780633e0dc34e116101495780633e0dc34e146103935780635055374d146103a9578063575a86b2146103ea57806358a79eb91461040a57600080fd5b80632e1a7d4d14610303578063370158ea14610323578063372500ab146103685780633e032a3b1461037d57600080fd5b8063158ef93e116101b6578063158ef93e1461027a57806315b0d496146102945780632224fa25146102b657806324702944146102e357600080fd5b8063047168e0146101e85780630dfe16811461021e5780630fa4e01e1461025657600080fd5b366101e357005b600080fd5b3480156101f457600080fd5b5060045461020990600160a01b900460ff1681565b60405190151581526020015b60405180910390f35b34801561022a57600080fd5b5060075461023e906001600160a01b031681565b6040516001600160a01b039091168152602001610215565b34801561026257600080fd5b5061026c60035481565b604051908152602001610215565b34801561028657600080fd5b506001546102099060ff1681565b3480156102a057600080fd5b506102b46102af3660046128fa565b6105e3565b005b3480156102c257600080fd5b506102d66102d136600461278e565b610620565b6040516102159190612a36565b3480156102ef57600080fd5b50600b5461023e906001600160a01b031681565b34801561030f57600080fd5b5061026c61031e3660046128fa565b610738565b34801561032f57600080fd5b50610338610899565b6040805195865260208601949094529115159284019290925290151560608301521515608082015260a001610215565b34801561037457600080fd5b506102b46108db565b34801561038957600080fd5b5061026c60055481565b34801561039f57600080fd5b5061026c600a5481565b3480156103b557600080fd5b5061023e6103c4366004612693565b600c6020908152600092835260408084209091529082529020546001600160a01b031681565b3480156103f657600080fd5b5060065461023e906001600160a01b031681565b34801561041657600080fd5b5060025461023e906001600160a01b031681565b34801561043657600080fd5b506102b4610445366004612765565b6109b2565b34801561045657600080fd5b5061026c610a04565b34801561046b57600080fd5b5061026c610a95565b34801561048057600080fd5b506102b4610b25565b34801561049557600080fd5b5060015461023e9061010090046001600160a01b031681565b3480156104ba57600080fd5b5061026c600d5481565b3480156104d057600080fd5b5061026c6104df3660046128fa565b610bbd565b3480156104f057600080fd5b506102b46104ff366004612679565b610c70565b34801561051057600080fd5b506102b461051f3660046126c5565b610d17565b34801561053057600080fd5b506102b461053f366004612679565b611083565b34801561055057600080fd5b5060085461023e906001600160a01b031681565b34801561057057600080fd5b5061026c611106565b34801561058557600080fd5b5060045461023e906001600160a01b031681565b3480156105a557600080fd5b50610209611192565b3480156105ba57600080fd5b506102b46112c0565b3480156105cf57600080fd5b5060095461023e906001600160a01b031681565b60015461010090046001600160a01b0316331461061b5760405162461bcd60e51b815260040161061290612a49565b60405180910390fd5b600555565b60015460609061010090046001600160a01b031633146106525760405162461bcd60e51b815260040161061290612a49565b6060835160001415610665575081610691565b83805190602001208360405160200161067f9291906129e9565b60405160208183030381529060405290505b600080876001600160a01b031687846040516106ad9190612a1a565b60006040518083038185875af1925050503d80600081146106ea576040519150601f19603f3d011682016040523d82523d6000602084013e6106ef565b606091505b5091509150816040518060600160405280603c8152602001612bb6603c91399061072c5760405162461bcd60e51b81526004016106129190612a36565b50979650505050505050565b60015460009061010090046001600160a01b0316331461076a5760405162461bcd60e51b815260040161061290612a49565b600260005414156107bd5760405162461bcd60e51b815260206004820152601f60248201527f5265656e7472616e637947756172643a207265656e7472616e742063616c6c006044820152606401610612565b6002600055816107ff5760405162461bcd60e51b815260206004820152600d60248201526c05f77616e74416d74203c3d203609c1b6044820152606401610612565b61080882611764565b6009546040516370a0823160e01b81523060048201526000916001600160a01b0316906370a082319060240160206040518083038186803b15801561084c57600080fd5b505afa158015610860573d6000803e3d6000fd5b505050506040513d601f19601f820116820180604052508101906108849190612912565b905061088e61180e565b600160005592915050565b60008060008060006108a9610a04565b94506108b3611106565b9350600191506108c1611192565b60045495969495600160a01b900460ff1694929350919050565b60015461010090046001600160a01b0316331461090a5760405162461bcd60e51b815260040161061290612a49565b6109146000611764565b6009546040516370a0823160e01b81523060048201526000916001600160a01b0316906370a082319060240160206040518083038186803b15801561095857600080fd5b505afa15801561096c573d6000803e3d6000fd5b505050506040513d601f19601f820116820180604052508101906109909190612912565b905080156109af576009546109af906001600160a01b03163383611945565b50565b60015461010090046001600160a01b031633146109e15760405162461bcd60e51b815260040161061290612a49565b600154610a00906001600160a01b038481169161010090041683611945565b5050565b600654600a546040516393f1a40b60e01b8152600481019190915230602482015260009182916001600160a01b03909116906393f1a40b90604401604080518083038186803b158015610a5657600080fd5b505afa158015610a6a573d6000803e3d6000fd5b505050506040513d601f19601f82011682018060405250810190610a8e919061292a565b5092915050565b60015460009061010090046001600160a01b03163314610ac75760405162461bcd60e51b815260040161061290612a49565b6000610ad1610a04565b9050610adc81610738565b9150610ae66119ad565b610aee61180e565b6040518281527fb20101a10c7cc8d4a9b5accf3d34c34f89d53ec195fce51620af16429526c7559060200160405180910390a15090565b60015461010090046001600160a01b03163314610b545760405162461bcd60e51b815260040161061290612a49565b610b5c611192565b610ba85760405162461bcd60e51b815260206004820152601960248201527f5661756c742063616e6e6f74206265206162616e646f6e6564000000000000006044820152606401610612565b6004805460ff60a01b1916600160a01b179055565b60015460009061010090046001600160a01b03163314610bef5760405162461bcd60e51b815260040161061290612a49565b60026000541415610c425760405162461bcd60e51b815260206004820152601f60248201527f5265656e7472616e637947756172643a207265656e7472616e742063616c6c006044820152606401610612565b6002600055600454610c5f906001600160a01b0316333085611b31565b610c67611b6f565b50600160005590565b60015461010090046001600160a01b03163314610c9f5760405162461bcd60e51b815260040161061290612a49565b6001600160a01b038116610cf55760405162461bcd60e51b815260206004820152601a60248201527f63616e6e6f7420616464726573732073657420746f207a65726f0000000000006044820152606401610612565b600280546001600160a01b0319166001600160a01b0392909216919091179055565b60015461010090046001600160a01b03163314610d465760405162461bcd60e51b815260040161061290612a49565b6001600160a01b038516610d935760405162461bcd60e51b815260206004820152601460248201527314dc98c81d1bdad95b881a5cc81a5b9d985b1a5960621b6044820152606401610612565b6001600160a01b038416610de05760405162461bcd60e51b8152602060048201526014602482015273111cdd081d1bdad95b881a5cc81a5b9d985b1a5960621b6044820152606401610612565b836001600160a01b0316856001600160a01b03161415610e505760405162461bcd60e51b815260206004820152602560248201527f53726320746f6b656e206d75737420626520646966662066726f6d20447374206044820152643a37b5b2b760d91b6064820152608401610612565b6001600160a01b038316610e9a5760405162461bcd60e51b8152602060048201526011602482015270149bdd5d195c881a5cc81a5b9d985b1a59607a1b6044820152606401610612565b846001600160a01b031682826000818110610ec557634e487b7160e01b600052603260045260246000fd5b9050602002016020810190610eda9190612679565b6001600160a01b031614610f305760405162461bcd60e51b815260206004820152601f60248201527f526f757465206d75737420737461727420776974682073726320746f6b656e006044820152606401610612565b6001600160a01b0384168282610f47600182612b46565b818110610f6457634e487b7160e01b600052603260045260246000fd5b9050602002016020810190610f799190612679565b6001600160a01b031614610fcf5760405162461bcd60e51b815260206004820152601d60248201527f526f757465206d75737420656e6420776974682064737420746f6b656e0000006044820152606401610612565b60006040518060400160405280856001600160a01b0316815260200184848080602002602001604051908101604052809392919081815260200183836020028082843760009201829052509390945250506001600160a01b038981168252600c602090815260408084208b841685528252909220845181546001600160a01b0319169216919091178155838201518051949550859491935061107892600185019291019061258b565b505050505050505050565b60015460ff16156110c55760405162461bcd60e51b815260206004820152600c60248201526b185b1c9958591e481a5b9a5d60a21b6044820152606401610612565b600280546001600160a01b0319166001600160a01b03929092169182179055600180546001600160a81b03191661010090920260ff19169190911781179055565b600654600a54604051634c4b4f4160e11b815260048101919091523060248201526000916001600160a01b0316906398969e829060440160206040518083038186803b15801561115557600080fd5b505afa158015611169573d6000803e3d6000fd5b505050506040513d601f19601f8201168201806040525081019061118d9190612912565b905090565b6009546040516370a0823160e01b815230600482015260009182916001600160a01b03909116906370a082319060240160206040518083038186803b1580156111da57600080fd5b505afa1580156111ee573d6000803e3d6000fd5b505050506040513d601f19601f820116820180604052508101906112129190612912565b600480546040516370a0823160e01b81523092810192909252911592506000916001600160a01b0316906370a082319060240160206040518083038186803b15801561125d57600080fd5b505afa158015611271573d6000803e3d6000fd5b505050506040513d601f19601f820116820180604052508101906112959190612912565b15905060006112a2611106565b1590508280156112af5750815b80156112b85750805b935050505090565b6002546001600160a01b03163314806112e8575060015461010090046001600160a01b031633145b61132b5760405162461bcd60e51b815260206004820152601460248201527310b7bbb732b91013131010b430b93b32b9ba37b960611b6044820152606401610612565b6000611335610a04565b90506113416000611764565b6009546001600160a01b0316737ceb23fd6bc0add59e62ac25578270cff1b9f619141561137057611370611cf2565b6009546040516370a0823160e01b81523060048201526000916001600160a01b0316906370a082319060240160206040518083038186803b1580156113b457600080fd5b505afa1580156113c8573d6000803e3d6000fd5b505050506040513d601f19601f820116820180604052508101906113ec9190612912565b6007546009549192506001600160a01b0391821691161461142e5760095460075461142e916001600160a01b039081169116611429600285612b07565b611d64565b6008546009546001600160a01b0390811691161461146857600954600854611468916001600160a01b039081169116611429600285612b07565b6007546008546040516370a0823160e01b81523060048201526001600160a01b03928316929091169060009083906370a082319060240160206040518083038186803b1580156114b757600080fd5b505afa1580156114cb573d6000803e3d6000fd5b505050506040513d601f19601f820116820180604052508101906114ef9190612912565b6040516370a0823160e01b81523060048201529091506000906001600160a01b038416906370a082319060240160206040518083038186803b15801561153457600080fd5b505afa158015611548573d6000803e3d6000fd5b505050506040513d601f19601f8201168201806040525081019061156c9190612912565b905060008211801561157e5750600081115b156116a257600b5461159d906001600160a01b03868116911684611f31565b600b546115b7906001600160a01b03858116911683611f31565b600b54600754600854600d546001600160a01b039384169363e8e3370093811692169086908690600090819030906115ef9042612aef565b60405160e08a901b6001600160e01b03191681526001600160a01b039889166004820152968816602488015260448701959095526064860193909352608485019190915260a484015290921660c482015260e481019190915261010401606060405180830381600087803b15801561166657600080fd5b505af115801561167a573d6000803e3d6000fd5b505050506040513d601f19601f8201168201806040525081019061169e919061294d565b5050505b436003556116ae611b6f565b6116b66119ad565b60006116c0610a04565b905086811115611717576004546001600160a01b03167f053fa1fc52294a40b4ff1a988765bd298c00caa24d685cc3f767dcfde254ef9a6117018984612b46565b60405190815260200160405180910390a261175b565b600454604051600081526001600160a01b03909116907f053fa1fc52294a40b4ff1a988765bd298c00caa24d685cc3f767dcfde254ef9a9060200160405180910390a25b50505050505050565b600654600a54604051630441a3e760e41b81526001600160a01b039092169163441a3e70916117a0918590600401918252602082015260400190565b600060405180830381600087803b1580156117ba57600080fd5b505af11580156117ce573d6000803e3d6000fd5b505050507f5b6b431d4476a211bb7d41c20d1aab9ae2321deee0d20be3d9fc9b1093fa6e3d8160405161180391815260200190565b60405180910390a150565b6009546040516370a0823160e01b81523060048201526000916001600160a01b0316906370a082319060240160206040518083038186803b15801561185257600080fd5b505afa158015611866573d6000803e3d6000fd5b505050506040513d601f19601f8201168201806040525081019061188a9190612912565b905080156118a9576009546118a9906001600160a01b03163383611945565b600480546040516370a0823160e01b815230928101929092526000916001600160a01b03909116906370a082319060240160206040518083038186803b1580156118f257600080fd5b505afa158015611906573d6000803e3d6000fd5b505050506040513d601f19601f8201168201806040525081019061192a9190612912565b90508015610a0057600454610a00906001600160a01b031633835b6040516001600160a01b0383166024820152604481018290526119a890849063a9059cbb60e01b906064015b60408051601f198184030181529190526020810180516001600160e01b03166001600160e01b031990931692909217909152611ff2565b505050565b6007546040516370a0823160e01b81523060048201526000916001600160a01b0316906370a082319060240160206040518083038186803b1580156119f157600080fd5b505afa158015611a05573d6000803e3d6000fd5b505050506040513d601f19601f82011682018060405250810190611a299190612912565b6009546007549192506001600160a01b03918216911614801590611a4d5750600081115b15611a6f57600754600954611a6f916001600160a01b03908116911683611d64565b6008546040516370a0823160e01b81523060048201526000916001600160a01b0316906370a082319060240160206040518083038186803b158015611ab357600080fd5b505afa158015611ac7573d6000803e3d6000fd5b505050506040513d601f19601f82011682018060405250810190611aeb9190612912565b6009546008549192506001600160a01b03918216911614801590611b0f5750600081115b15610a0057600854600954610a00916001600160a01b03908116911683611d64565b6040516001600160a01b0380851660248301528316604482015260648101829052611b699085906323b872dd60e01b90608401611971565b50505050565b60015460ff16611ba95760405162461bcd60e51b8152602060048201526005602482015264085a5b9a5d60da1b6044820152606401610612565b600480546040516370a0823160e01b815230928101929092526001600160a01b03169060009082906370a082319060240160206040518083038186803b158015611bf257600080fd5b505afa158015611c06573d6000803e3d6000fd5b505050506040513d601f19601f82011682018060405250810190611c2a9190612912565b600654909150611c47906001600160a01b03848116911683611f31565b600654600a54604051631c57762b60e31b81526001600160a01b039092169163e2bbb15891611c83918590600401918252602082015260400190565b600060405180830381600087803b158015611c9d57600080fd5b505af1158015611cb1573d6000803e3d6000fd5b505050507f2a89b2e3d580398d6dc2db5e0f336b52602bbaa51afa9bb5cdf59239cf0d2bea81604051611ce691815260200190565b60405180910390a15050565b4780156109af57737ceb23fd6bc0add59e62ac25578270cff1b9f6196001600160a01b031663d0e30db0826040518263ffffffff1660e01b81526004016000604051808303818588803b158015611d4857600080fd5b505af1158015611d5c573d6000803e3d6000fd5b505050505050565b80611d6e57505050565b600080611d7b85856120c4565b90925090506001600160a01b038216611dc65760405162461bcd60e51b815260206004820152600d60248201526c696e76616c696420726f75746560981b6044820152606401610612565b846001600160a01b031681600081518110611df157634e487b7160e01b600052603260045260246000fd5b60200260200101516001600160a01b031614611e4f5760405162461bcd60e51b815260206004820152601f60248201527f526f757465206d75737420737461727420776974682073726320746f6b656e006044820152606401610612565b836001600160a01b03168160018351611e689190612b46565b81518110611e8657634e487b7160e01b600052603260045260246000fd5b60200260200101516001600160a01b031614611ee45760405162461bcd60e51b815260206004820152601d60248201527f526f757465206d75737420656e6420776974682064737420746f6b656e0000006044820152606401610612565b611ef96001600160a01b038616836000612157565b611f0d6001600160a01b0386168385612157565b611f2a82846005548430600d5442611f259190612aef565b61227b565b5050505050565b604051636eb1769f60e11b81523060048201526001600160a01b038381166024830152600091839186169063dd62ed3e9060440160206040518083038186803b158015611f7d57600080fd5b505afa158015611f91573d6000803e3d6000fd5b505050506040513d601f19601f82011682018060405250810190611fb59190612912565b611fbf9190612aef565b6040516001600160a01b038516602482015260448101829052909150611b6990859063095ea7b360e01b90606401611971565b6000612047826040518060400160405280602081526020017f5361666545524332303a206c6f772d6c6576656c2063616c6c206661696c6564815250856001600160a01b03166124119092919063ffffffff16565b8051909150156119a8578080602001905181019061206591906128da565b6119a85760405162461bcd60e51b815260206004820152602a60248201527f5361666545524332303a204552433230206f7065726174696f6e20646964206e6044820152691bdd081cdd58d8d9595960b21b6064820152608401610612565b6001600160a01b038083166000908152600c60209081526040808320858516845282529182902080546001820180548551818602810186019096528086529190951694606094929390919083018282801561214857602002820191906000526020600020905b81546001600160a01b0316815260019091019060200180831161212a575b50505050509150509250929050565b8015806121e05750604051636eb1769f60e11b81523060048201526001600160a01b03838116602483015284169063dd62ed3e9060440160206040518083038186803b1580156121a657600080fd5b505afa1580156121ba573d6000803e3d6000fd5b505050506040513d601f19601f820116820180604052508101906121de9190612912565b155b61224b5760405162461bcd60e51b815260206004820152603660248201527f5361666545524332303a20617070726f76652066726f6d206e6f6e2d7a65726f60448201527520746f206e6f6e2d7a65726f20616c6c6f77616e636560501b6064820152608401610612565b6040516001600160a01b0383166024820152604481018290526119a890849063095ea7b360e01b90606401611971565b825186906122bd5760405162461bcd60e51b815260206004820152600f60248201526e0d2dcecc2d8d2c8a6eec2e0a0c2e8d608b1b6044820152606401610612565b60405163d06ca61f60e01b81526000906001600160a01b0383169063d06ca61f906122ee908a908990600401612a69565b60006040518083038186803b15801561230657600080fd5b505afa15801561231a573d6000803e3d6000fd5b505050506040513d6000823e601f3d908101601f191682016040526123429190810190612832565b90506000620f42406123548882612b46565b83600185516123639190612b46565b8151811061238157634e487b7160e01b600052603260045260246000fd5b60200260200101516123939190612b27565b61239d9190612b07565b604051635c11d79560e01b81529091506001600160a01b03841690635c11d795906123d4908b9085908b908b908b90600401612a82565b600060405180830381600087803b1580156123ee57600080fd5b505af1158015612402573d6000803e3d6000fd5b50505050505050505050505050565b6060612420848460008561242a565b90505b9392505050565b60608247101561248b5760405162461bcd60e51b815260206004820152602660248201527f416464726573733a20696e73756666696369656e742062616c616e636520666f6044820152651c8818d85b1b60d21b6064820152608401610612565b843b6124d95760405162461bcd60e51b815260206004820152601d60248201527f416464726573733a2063616c6c20746f206e6f6e2d636f6e74726163740000006044820152606401610612565b600080866001600160a01b031685876040516124f59190612a1a565b60006040518083038185875af1925050503d8060008114612532576040519150601f19603f3d011682016040523d82523d6000602084013e612537565b606091505b5091509150612547828286612552565b979650505050505050565b60608315612561575081612423565b8251156125715782518084602001fd5b8160405162461bcd60e51b81526004016106129190612a36565b8280548282559060005260206000209081019282156125e0579160200282015b828111156125e057825182546001600160a01b0319166001600160a01b039091161782556020909201916001909101906125ab565b506125ec9291506125f0565b5090565b5b808211156125ec57600081556001016125f1565b600067ffffffffffffffff83111561261f5761261f612b9f565b612632601f8401601f1916602001612abe565b905082815283838301111561264657600080fd5b828260208301376000602084830101529392505050565b80356001600160a01b038116811461267457600080fd5b919050565b60006020828403121561268a578081fd5b6124238261265d565b600080604083850312156126a5578081fd5b6126ae8361265d565b91506126bc6020840161265d565b90509250929050565b6000806000806000608086880312156126dc578081fd5b6126e58661265d565b94506126f36020870161265d565b93506127016040870161265d565b9250606086013567ffffffffffffffff8082111561271d578283fd5b818801915088601f830112612730578283fd5b81358181111561273e578384fd5b8960208260051b8501011115612752578384fd5b9699959850939650602001949392505050565b60008060408385031215612777578182fd5b6127808361265d565b946020939093013593505050565b600080600080608085870312156127a3578384fd5b6127ac8561265d565b935060208501359250604085013567ffffffffffffffff808211156127cf578384fd5b818701915087601f8301126127e2578384fd5b6127f188833560208501612605565b93506060870135915080821115612806578283fd5b508501601f81018713612817578182fd5b61282687823560208401612605565b91505092959194509250565b60006020808385031215612844578182fd5b825167ffffffffffffffff8082111561285b578384fd5b818501915085601f83011261286e578384fd5b81518181111561288057612880612b9f565b8060051b9150612891848301612abe565b8181528481019084860184860187018a10156128ab578788fd5b8795505b838610156128cd5780518352600195909501949186019186016128af565b5098975050505050505050565b6000602082840312156128eb578081fd5b81518015158114612423578182fd5b60006020828403121561290b578081fd5b5035919050565b600060208284031215612923578081fd5b5051919050565b6000806040838503121561293c578182fd5b505080516020909101519092909150565b600080600060608486031215612961578283fd5b8351925060208401519150604084015190509250925092565b6000815180845260208085019450808401835b838110156129b25781516001600160a01b03168752958201959082019060010161298d565b509495945050505050565b600081518084526129d5816020860160208601612b5d565b601f01601f19169290920160200192915050565b6001600160e01b0319831681528151600090612a0c816004850160208701612b5d565b919091016004019392505050565b60008251612a2c818460208701612b5d565b9190910192915050565b60208152600061242360208301846129bd565b60208082526006908201526510b7bbb732b960d11b604082015260600190565b828152604060208201526000612420604083018461297a565b85815284602082015260a060408201526000612aa160a083018661297a565b6001600160a01b0394909416606083015250608001529392505050565b604051601f8201601f1916810167ffffffffffffffff81118282101715612ae757612ae7612b9f565b604052919050565b60008219821115612b0257612b02612b89565b500190565b600082612b2257634e487b7160e01b81526012600452602481fd5b500490565b6000816000190483118215151615612b4157612b41612b89565b500290565b600082821015612b5857612b58612b89565b500390565b60005b83811015612b78578181015183820152602001612b60565b83811115611b695750506000910152565b634e487b7160e01b600052601160045260246000fd5b634e487b7160e01b600052604160045260246000fdfe44657646756e643a3a657865637574655472616e73616374696f6e3a205472616e73616374696f6e20657865637574696f6e2072657665727465642ea2646970667358221220286a1e5e313ee9f6d864b0857aec012d3a359bec6b5c1cba6e15a424a9f63dd064736f6c63430008040033",
  "devdoc": {
    "kind": "dev",
    "methods": {},
    "version": 1
  },
  "userdoc": {
    "kind": "user",
    "methods": {},
    "version": 1
  },
  "storageLayout": {
    "storage": [
      {
        "astId": 600,
        "contract": "contracts/Vault/BaoPG/VaultLP.sol:VaultLP",
        "label": "_status",
        "offset": 0,
        "slot": "0",
        "type": "t_uint256"
      },
      {
        "astId": 5301,
        "contract": "contracts/Vault/BaoPG/VaultLP.sol:VaultLP",
        "label": "initialized",
        "offset": 0,
        "slot": "1",
        "type": "t_bool"
      },
      {
        "astId": 5304,
        "contract": "contracts/Vault/BaoPG/VaultLP.sol:VaultLP",
        "label": "owner",
        "offset": 1,
        "slot": "1",
        "type": "t_address"
      },
      {
        "astId": 5306,
        "contract": "contracts/Vault/BaoPG/VaultLP.sol:VaultLP",
        "label": "harvestor",
        "offset": 0,
        "slot": "2",
        "type": "t_address"
      },
      {
        "astId": 5308,
        "contract": "contracts/Vault/BaoPG/VaultLP.sol:VaultLP",
        "label": "lastEarnBlock",
        "offset": 0,
        "slot": "3",
        "type": "t_uint256"
      },
      {
        "astId": 5311,
        "contract": "contracts/Vault/BaoPG/VaultLP.sol:VaultLP",
        "label": "wantAddress",
        "offset": 0,
        "slot": "4",
        "type": "t_address"
      },
      {
        "astId": 5314,
        "contract": "contracts/Vault/BaoPG/VaultLP.sol:VaultLP",
        "label": "abandoned",
        "offset": 20,
        "slot": "4",
        "type": "t_bool"
      },
      {
        "astId": 5317,
        "contract": "contracts/Vault/BaoPG/VaultLP.sol:VaultLP",
        "label": "slippage",
        "offset": 0,
        "slot": "5",
        "type": "t_uint256"
      },
      {
        "astId": 5722,
        "contract": "contracts/Vault/BaoPG/VaultLP.sol:VaultLP",
        "label": "masterChef",
        "offset": 0,
        "slot": "6",
        "type": "t_contract(IMasterChef)6700"
      },
      {
        "astId": 5724,
        "contract": "contracts/Vault/BaoPG/VaultLP.sol:VaultLP",
        "label": "token0",
        "offset": 0,
        "slot": "7",
        "type": "t_address"
      },
      {
        "astId": 5726,
        "contract": "contracts/Vault/BaoPG/VaultLP.sol:VaultLP",
        "label": "token1",
        "offset": 0,
        "slot": "8",
        "type": "t_address"
      },
      {
        "astId": 5728,
        "contract": "contracts/Vault/BaoPG/VaultLP.sol:VaultLP",
        "label": "rewardToken",
        "offset": 0,
        "slot": "9",
        "type": "t_address"
      },
      {
        "astId": 5730,
        "contract": "contracts/Vault/BaoPG/VaultLP.sol:VaultLP",
        "label": "poolId",
        "offset": 0,
        "slot": "10",
        "type": "t_uint256"
      },
      {
        "astId": 5732,
        "contract": "contracts/Vault/BaoPG/VaultLP.sol:VaultLP",
        "label": "liquidityRouter",
        "offset": 0,
        "slot": "11",
        "type": "t_address"
      },
      {
        "astId": 5739,
        "contract": "contracts/Vault/BaoPG/VaultLP.sol:VaultLP",
        "label": "routes",
        "offset": 0,
        "slot": "12",
        "type": "t_mapping(t_address,t_mapping(t_address,t_struct(RouteInfo)5293_storage))"
      },
      {
        "astId": 5741,
        "contract": "contracts/Vault/BaoPG/VaultLP.sol:VaultLP",
        "label": "swapTimeout",
        "offset": 0,
        "slot": "13",
        "type": "t_uint256"
      }
    ],
    "types": {
      "t_address": {
        "encoding": "inplace",
        "label": "address",
        "numberOfBytes": "20"
      },
      "t_array(t_address)dyn_storage": {
        "base": "t_address",
        "encoding": "dynamic_array",
        "label": "address[]",
        "numberOfBytes": "32"
      },
      "t_bool": {
        "encoding": "inplace",
        "label": "bool",
        "numberOfBytes": "1"
      },
      "t_contract(IMasterChef)6700": {
        "encoding": "inplace",
        "label": "contract IMasterChef",
        "numberOfBytes": "20"
      },
      "t_mapping(t_address,t_mapping(t_address,t_struct(RouteInfo)5293_storage))": {
        "encoding": "mapping",
        "key": "t_address",
        "label": "mapping(address => mapping(address => struct VaultBase.RouteInfo))",
        "numberOfBytes": "32",
        "value": "t_mapping(t_address,t_struct(RouteInfo)5293_storage)"
      },
      "t_mapping(t_address,t_struct(RouteInfo)5293_storage)": {
        "encoding": "mapping",
        "key": "t_address",
        "label": "mapping(address => struct VaultBase.RouteInfo)",
        "numberOfBytes": "32",
        "value": "t_struct(RouteInfo)5293_storage"
      },
      "t_struct(RouteInfo)5293_storage": {
        "encoding": "inplace",
        "label": "struct VaultBase.RouteInfo",
        "members": [
          {
            "astId": 5289,
            "contract": "contracts/Vault/BaoPG/VaultLP.sol:VaultLP",
            "label": "router",
            "offset": 0,
            "slot": "0",
            "type": "t_address"
          },
          {
            "astId": 5292,
            "contract": "contracts/Vault/BaoPG/VaultLP.sol:VaultLP",
            "label": "path",
            "offset": 0,
            "slot": "1",
            "type": "t_array(t_address)dyn_storage"
          }
        ],
        "numberOfBytes": "64"
      },
      "t_uint256": {
        "encoding": "inplace",
        "label": "uint256",
        "numberOfBytes": "32"
      }
    }
  }
}