{
  "address": "0xe4fa6aa487955dAE492d420F242603A803B30FfE",
  "abi": [
    {
      "inputs": [
        {
          "internalType": "address",
          "name": "_liquidityRouter",
          "type": "address"
        },
        {
          "internalType": "contract IMasterChef",
          "name": "_masterChef",
          "type": "address"
        },
        {
          "internalType": "uint256",
          "name": "_poolId",
          "type": "uint256"
        }
      ],
      "stateMutability": "nonpayable",
      "type": "constructor"
    },
    {
      "anonymous": false,
      "inputs": [
        {
          "indexed": false,
          "internalType": "uint256",
          "name": "_amount",
          "type": "uint256"
        }
      ],
      "name": "Deposited",
      "type": "event"
    },
    {
      "anonymous": false,
      "inputs": [
        {
          "indexed": true,
          "internalType": "address",
          "name": "_earnedToken",
          "type": "address"
        },
        {
          "indexed": false,
          "internalType": "uint256",
          "name": "_amount",
          "type": "uint256"
        }
      ],
      "name": "Earned",
      "type": "event"
    },
    {
      "anonymous": false,
      "inputs": [
        {
          "indexed": false,
          "internalType": "uint256",
          "name": "_lpAmount",
          "type": "uint256"
        }
      ],
      "name": "Exit",
      "type": "event"
    },
    {
      "anonymous": false,
      "inputs": [
        {
          "indexed": false,
          "internalType": "uint256",
          "name": "_amount",
          "type": "uint256"
        }
      ],
      "name": "Withdraw",
      "type": "event"
    },
    {
      "inputs": [],
      "name": "abandon",
      "outputs": [],
      "stateMutability": "nonpayable",
      "type": "function"
    },
    {
      "inputs": [],
      "name": "abandoned",
      "outputs": [
        {
          "internalType": "bool",
          "name": "",
          "type": "bool"
        }
      ],
      "stateMutability": "view",
      "type": "function"
    },
    {
      "inputs": [
        {
          "internalType": "address",
          "name": "_from",
          "type": "address"
        },
        {
          "internalType": "address",
          "name": "_to",
          "type": "address"
        },
        {
          "internalType": "address",
          "name": "_router",
          "type": "address"
        },
        {
          "internalType": "address[]",
          "name": "path",
          "type": "address[]"
        }
      ],
      "name": "addRoute",
      "outputs": [],
      "stateMutability": "nonpayable",
      "type": "function"
    },
    {
      "inputs": [],
      "name": "balanceInFarm",
      "outputs": [
        {
          "internalType": "uint256",
          "name": "",
          "type": "uint256"
        }
      ],
      "stateMutability": "view",
      "type": "function"
    },
    {
      "inputs": [],
      "name": "canAbandon",
      "outputs": [
        {
          "internalType": "bool",
          "name": "",
          "type": "bool"
        }
      ],
      "stateMutability": "view",
      "type": "function"
    },
    {
      "inputs": [],
      "name": "claimRewards",
      "outputs": [],
      "stateMutability": "nonpayable",
      "type": "function"
    },
    {
      "inputs": [],
      "name": "compound",
      "outputs": [],
      "stateMutability": "nonpayable",
      "type": "function"
    },
    {
      "inputs": [
        {
          "internalType": "uint256",
          "name": "_wantAmt",
          "type": "uint256"
        }
      ],
      "name": "deposit",
      "outputs": [
        {
          "internalType": "uint256",
          "name": "",
          "type": "uint256"
        }
      ],
      "stateMutability": "nonpayable",
      "type": "function"
    },
    {
      "inputs": [
        {
          "internalType": "address",
          "name": "target",
          "type": "address"
        },
        {
          "internalType": "uint256",
          "name": "value",
          "type": "uint256"
        },
        {
          "internalType": "string",
          "name": "signature",
          "type": "string"
        },
        {
          "internalType": "bytes",
          "name": "data",
          "type": "bytes"
        }
      ],
      "name": "executeTransaction",
      "outputs": [
        {
          "internalType": "bytes",
          "name": "",
          "type": "bytes"
        }
      ],
      "stateMutability": "nonpayable",
      "type": "function"
    },
    {
      "inputs": [],
      "name": "getRouter",
      "outputs": [
        {
          "internalType": "contract IRouter",
          "name": "",
          "type": "address"
        }
      ],
      "stateMutability": "view",
      "type": "function"
    },
    {
      "inputs": [],
      "name": "harvestor",
      "outputs": [
        {
          "internalType": "address",
          "name": "",
          "type": "address"
        }
      ],
      "stateMutability": "view",
      "type": "function"
    },
    {
      "inputs": [],
      "name": "info",
      "outputs": [
        {
          "internalType": "uint256",
          "name": "_balanceInFarm",
          "type": "uint256"
        },
        {
          "internalType": "uint256",
          "name": "_pendingRewards",
          "type": "uint256"
        },
        {
          "internalType": "bool",
          "name": "_abandoned",
          "type": "bool"
        },
        {
          "internalType": "bool",
          "name": "_canDeposit",
          "type": "bool"
        },
        {
          "internalType": "bool",
          "name": "_canAbandon",
          "type": "bool"
        }
      ],
      "stateMutability": "view",
      "type": "function"
    },
    {
      "inputs": [
        {
          "internalType": "address",
          "name": "_owner",
          "type": "address"
        }
      ],
      "name": "initialize",
      "outputs": [],
      "stateMutability": "nonpayable",
      "type": "function"
    },
    {
      "inputs": [],
      "name": "initialized",
      "outputs": [
        {
          "internalType": "bool",
          "name": "",
          "type": "bool"
        }
      ],
      "stateMutability": "view",
      "type": "function"
    },
    {
      "inputs": [],
      "name": "lastEarnBlock",
      "outputs": [
        {
          "internalType": "uint256",
          "name": "",
          "type": "uint256"
        }
      ],
      "stateMutability": "view",
      "type": "function"
    },
    {
      "inputs": [],
      "name": "liquidityRouter",
      "outputs": [
        {
          "internalType": "address",
          "name": "",
          "type": "address"
        }
      ],
      "stateMutability": "view",
      "type": "function"
    },
    {
      "inputs": [],
      "name": "masterChef",
      "outputs": [
        {
          "internalType": "contract IMasterChef",
          "name": "",
          "type": "address"
        }
      ],
      "stateMutability": "view",
      "type": "function"
    },
    {
      "inputs": [],
      "name": "owner",
      "outputs": [
        {
          "internalType": "address",
          "name": "",
          "type": "address"
        }
      ],
      "stateMutability": "view",
      "type": "function"
    },
    {
      "inputs": [],
      "name": "pending",
      "outputs": [
        {
          "internalType": "uint256",
          "name": "",
          "type": "uint256"
        }
      ],
      "stateMutability": "view",
      "type": "function"
    },
    {
      "inputs": [],
      "name": "poolId",
      "outputs": [
        {
          "internalType": "uint256",
          "name": "",
          "type": "uint256"
        }
      ],
      "stateMutability": "view",
      "type": "function"
    },
    {
      "inputs": [
        {
          "internalType": "address",
          "name": "_token",
          "type": "address"
        },
        {
          "internalType": "uint256",
          "name": "_amount",
          "type": "uint256"
        }
      ],
      "name": "rescueFund",
      "outputs": [],
      "stateMutability": "nonpayable",
      "type": "function"
    },
    {
      "inputs": [],
      "name": "rewardToken",
      "outputs": [
        {
          "internalType": "address",
          "name": "",
          "type": "address"
        }
      ],
      "stateMutability": "view",
      "type": "function"
    },
    {
      "inputs": [],
      "name": "router",
      "outputs": [
        {
          "internalType": "address",
          "name": "",
          "type": "address"
        }
      ],
      "stateMutability": "view",
      "type": "function"
    },
    {
      "inputs": [
        {
          "internalType": "address",
          "name": "",
          "type": "address"
        },
        {
          "internalType": "address",
          "name": "",
          "type": "address"
        }
      ],
      "name": "routes",
      "outputs": [
        {
          "internalType": "address",
          "name": "router",
          "type": "address"
        }
      ],
      "stateMutability": "view",
      "type": "function"
    },
    {
      "inputs": [
        {
          "internalType": "address",
          "name": "_harvestor",
          "type": "address"
        }
      ],
      "name": "setHarvestor",
      "outputs": [],
      "stateMutability": "nonpayable",
      "type": "function"
    },
    {
      "inputs": [],
      "name": "slippage",
      "outputs": [
        {
          "internalType": "uint256",
          "name": "",
          "type": "uint256"
        }
      ],
      "stateMutability": "view",
      "type": "function"
    },
    {
      "inputs": [],
      "name": "swapTimeout",
      "outputs": [
        {
          "internalType": "uint256",
          "name": "",
          "type": "uint256"
        }
      ],
      "stateMutability": "view",
      "type": "function"
    },
    {
      "inputs": [],
      "name": "token0",
      "outputs": [
        {
          "internalType": "address",
          "name": "",
          "type": "address"
        }
      ],
      "stateMutability": "view",
      "type": "function"
    },
    {
      "inputs": [],
      "name": "token1",
      "outputs": [
        {
          "internalType": "address",
          "name": "",
          "type": "address"
        }
      ],
      "stateMutability": "view",
      "type": "function"
    },
    {
      "inputs": [
        {
          "internalType": "uint256",
          "name": "_slippage",
          "type": "uint256"
        }
      ],
      "name": "updateSlippage",
      "outputs": [],
      "stateMutability": "nonpayable",
      "type": "function"
    },
    {
      "inputs": [],
      "name": "wantAddress",
      "outputs": [
        {
          "internalType": "address",
          "name": "",
          "type": "address"
        }
      ],
      "stateMutability": "view",
      "type": "function"
    },
    {
      "inputs": [
        {
          "internalType": "uint256",
          "name": "_wantAmt",
          "type": "uint256"
        }
      ],
      "name": "withdraw",
      "outputs": [
        {
          "internalType": "uint256",
          "name": "",
          "type": "uint256"
        }
      ],
      "stateMutability": "nonpayable",
      "type": "function"
    },
    {
      "inputs": [],
      "name": "withdrawAll",
      "outputs": [
        {
          "internalType": "uint256",
          "name": "_withdrawBalance",
          "type": "uint256"
        }
      ],
      "stateMutability": "nonpayable",
      "type": "function"
    },
    {
      "stateMutability": "payable",
      "type": "receive"
    }
  ],
  "transactionHash": "0x25fe1d8fef674d00fa1f4f7f91e98f6ab8ecbc14107d2d33f411f10026149c54",
  "args": [
    "0x1b02dA8Cb0d097eB8D57A175b88c7D8b47997506",
    "0x17092237cEC0b16c6C3229EE68Ee4DFBFE04d156",
    0
  ],
  "numDeployments": 3,
  "solcInputHash": "97c69d35fdd0735a1d770941e6c4ceb1",
  "bytecode": "0x608060405261c3506006553480156200001757600080fd5b5060405162002fe038038062002fe08339810160408190526200003a91620002fb565b6001600055600c80546001600160a01b038086166001600160a01b031992831617909255600b839055600780549285169290911682179055604051631526fe2760e01b8152631526fe27906200009890849060040190815260200190565b60806040518083038186803b158015620000b157600080fd5b505afa158015620000c6573d6000803e3d6000fd5b505050506040513d601f19601f82011682018060405250810190620000ec919062000342565b5050600580546001600160a01b0319166001600160a01b03938416179055506040805163f7c618c160e01b815290519184169163f7c618c191600480820192602092909190829003018186803b1580156200014657600080fd5b505afa1580156200015b573d6000803e3d6000fd5b505050506040513d601f19601f82011682018060405250810190620001819190620002d5565b600a80546001600160a01b0319166001600160a01b0392831617905560055460408051630dfe168160e01b815290519190921691630dfe1681916004808301926020929190829003018186803b158015620001db57600080fd5b505afa158015620001f0573d6000803e3d6000fd5b505050506040513d601f19601f82011682018060405250810190620002169190620002d5565b600880546001600160a01b0319166001600160a01b039283161790556005546040805163d21220a760e01b81529051919092169163d21220a7916004808301926020929190829003018186803b1580156200027057600080fd5b505afa15801562000285573d6000803e3d6000fd5b505050506040513d601f19601f82011682018060405250810190620002ab9190620002d5565b600980546001600160a01b0319166001600160a01b0392909216919091179055506200039c915050565b600060208284031215620002e7578081fd5b8151620002f48162000383565b9392505050565b60008060006060848603121562000310578182fd5b83516200031d8162000383565b6020850151909350620003308162000383565b80925050604084015190509250925092565b6000806000806080858703121562000358578081fd5b8451620003658162000383565b60208601516040870151606090970151919890975090945092505050565b6001600160a01b03811681146200039957600080fd5b50565b612c3480620003ac6000396000f3fe6080604052600436106101f25760003560e01c8063827cdc7f1161010d578063c3787e60116100a0578063e7a036791161006f578063e7a03679146105ad578063edc3e87b146105cd578063f69e2046146105e2578063f7c618c1146105f7578063f887ea401461061757600080fd5b8063c3787e6014610538578063c4d66de814610558578063d21220a714610578578063e20ccec31461059857600080fd5b806394de34f1116100dc57806394de34f1146104bf578063b0f479a1146104d5578063b6b55f25146104f8578063ba27240d1461051857600080fd5b8063827cdc7f14610460578063853828b614610475578063883188341461048a5780638da5cb5b1461049f57600080fd5b8063370158ea116101855780635055374d116101545780635055374d146103bf578063575a86b21461040057806358a79eb9146104205780636e261df11461044057600080fd5b8063370158ea14610339578063372500ab1461037e5780633e032a3b146103935780633e0dc34e146103a957600080fd5b806315b0d496116101c157806315b0d496146102aa5780632224fa25146102cc57806324702944146102f95780632e1a7d4d1461031957600080fd5b8063047168e0146101fe5780630dfe1681146102345780630fa4e01e1461026c578063158ef93e1461029057600080fd5b366101f957005b600080fd5b34801561020a57600080fd5b5060055461021f90600160a01b900460ff1681565b60405190151581526020015b60405180910390f35b34801561024057600080fd5b50600854610254906001600160a01b031681565b6040516001600160a01b03909116815260200161022b565b34801561027857600080fd5b5061028260045481565b60405190815260200161022b565b34801561029c57600080fd5b5060015461021f9060ff1681565b3480156102b657600080fd5b506102ca6102c5366004612907565b61063c565b005b3480156102d857600080fd5b506102ec6102e736600461279b565b610674565b60405161022b9190612a43565b34801561030557600080fd5b50600c54610254906001600160a01b031681565b34801561032557600080fd5b50610282610334366004612907565b610787565b34801561034557600080fd5b5061034e6108e3565b6040805195865260208601949094529115159284019290925290151560608301521515608082015260a00161022b565b34801561038a57600080fd5b506102ca610925565b34801561039f57600080fd5b5061028260065481565b3480156103b557600080fd5b50610282600b5481565b3480156103cb57600080fd5b506102546103da3660046126a0565b600d6020908152600092835260408084209091529082529020546001600160a01b031681565b34801561040c57600080fd5b50600754610254906001600160a01b031681565b34801561042c57600080fd5b50600354610254906001600160a01b031681565b34801561044c57600080fd5b506102ca61045b366004612772565b6109f7565b34801561046c57600080fd5b50610282610a3f565b34801561048157600080fd5b50610282610ad0565b34801561049657600080fd5b506102ca610b5b565b3480156104ab57600080fd5b50600254610254906001600160a01b031681565b3480156104cb57600080fd5b50610282600e5481565b3480156104e157600080fd5b5060015461010090046001600160a01b0316610254565b34801561050457600080fd5b50610282610513366004612907565b610bee565b34801561052457600080fd5b506102ca610533366004612686565b610c9c565b34801561054457600080fd5b506102ca6105533660046126d2565b610d3e565b34801561056457600080fd5b506102ca610573366004612686565b6110a5565b34801561058457600080fd5b50600954610254906001600160a01b031681565b3480156105a457600080fd5b5061028261111f565b3480156105b957600080fd5b50600554610254906001600160a01b031681565b3480156105d957600080fd5b5061021f6111ab565b3480156105ee57600080fd5b506102ca6112d8565b34801561060357600080fd5b50600a54610254906001600160a01b031681565b34801561062357600080fd5b506001546102549061010090046001600160a01b031681565b6002546001600160a01b0316331461066f5760405162461bcd60e51b815260040161066690612a56565b60405180910390fd5b600655565b6002546060906001600160a01b031633146106a15760405162461bcd60e51b815260040161066690612a56565b60608351600014156106b45750816106e0565b8380519060200120836040516020016106ce9291906129f6565b60405160208183030381529060405290505b600080876001600160a01b031687846040516106fc9190612a27565b60006040518083038185875af1925050503d8060008114610739576040519150601f19603f3d011682016040523d82523d6000602084013e61073e565b606091505b5091509150816040518060600160405280603c8152602001612bc3603c91399061077b5760405162461bcd60e51b81526004016106669190612a43565b50979650505050505050565b6002546000906001600160a01b031633146107b45760405162461bcd60e51b815260040161066690612a56565b600260005414156108075760405162461bcd60e51b815260206004820152601f60248201527f5265656e7472616e637947756172643a207265656e7472616e742063616c6c006044820152606401610666565b6002600055816108495760405162461bcd60e51b815260206004820152600d60248201526c05f77616e74416d74203c3d203609c1b6044820152606401610666565b61085282611777565b600a546040516370a0823160e01b81523060048201526000916001600160a01b0316906370a082319060240160206040518083038186803b15801561089657600080fd5b505afa1580156108aa573d6000803e3d6000fd5b505050506040513d601f19601f820116820180604052508101906108ce919061291f565b90506108d8611821565b600160005592915050565b60008060008060006108f3610a3f565b94506108fd61111f565b93506001915061090b6111ab565b60055495969495600160a01b900460ff1694929350919050565b6002546001600160a01b0316331461094f5760405162461bcd60e51b815260040161066690612a56565b6109596000611777565b600a546040516370a0823160e01b81523060048201526000916001600160a01b0316906370a082319060240160206040518083038186803b15801561099d57600080fd5b505afa1580156109b1573d6000803e3d6000fd5b505050506040513d601f19601f820116820180604052508101906109d5919061291f565b905080156109f457600a546109f4906001600160a01b03163383611953565b50565b6002546001600160a01b03163314610a215760405162461bcd60e51b815260040161066690612a56565b600254610a3b906001600160a01b03848116911683611953565b5050565b600754600b546040516393f1a40b60e01b8152600481019190915230602482015260009182916001600160a01b03909116906393f1a40b90604401604080518083038186803b158015610a9157600080fd5b505afa158015610aa5573d6000803e3d6000fd5b505050506040513d601f19601f82011682018060405250810190610ac99190612937565b5092915050565b6002546000906001600160a01b03163314610afd5760405162461bcd60e51b815260040161066690612a56565b6000610b07610a3f565b9050610b1281610787565b9150610b1c6119bb565b610b24611821565b6040518281527fb20101a10c7cc8d4a9b5accf3d34c34f89d53ec195fce51620af16429526c7559060200160405180910390a15090565b6002546001600160a01b03163314610b855760405162461bcd60e51b815260040161066690612a56565b610b8d6111ab565b610bd95760405162461bcd60e51b815260206004820152601960248201527f5661756c742063616e6e6f74206265206162616e646f6e6564000000000000006044820152606401610666565b6005805460ff60a01b1916600160a01b179055565b6002546000906001600160a01b03163314610c1b5760405162461bcd60e51b815260040161066690612a56565b60026000541415610c6e5760405162461bcd60e51b815260206004820152601f60248201527f5265656e7472616e637947756172643a207265656e7472616e742063616c6c006044820152606401610666565b6002600055600554610c8b906001600160a01b0316333085611b3f565b610c93611b7d565b50600160005590565b6002546001600160a01b03163314610cc65760405162461bcd60e51b815260040161066690612a56565b6001600160a01b038116610d1c5760405162461bcd60e51b815260206004820152601a60248201527f63616e6e6f7420616464726573732073657420746f207a65726f0000000000006044820152606401610666565b600380546001600160a01b0319166001600160a01b0392909216919091179055565b6002546001600160a01b03163314610d685760405162461bcd60e51b815260040161066690612a56565b6001600160a01b038516610db55760405162461bcd60e51b815260206004820152601460248201527314dc98c81d1bdad95b881a5cc81a5b9d985b1a5960621b6044820152606401610666565b6001600160a01b038416610e025760405162461bcd60e51b8152602060048201526014602482015273111cdd081d1bdad95b881a5cc81a5b9d985b1a5960621b6044820152606401610666565b836001600160a01b0316856001600160a01b03161415610e725760405162461bcd60e51b815260206004820152602560248201527f53726320746f6b656e206d75737420626520646966662066726f6d20447374206044820152643a37b5b2b760d91b6064820152608401610666565b6001600160a01b038316610ebc5760405162461bcd60e51b8152602060048201526011602482015270149bdd5d195c881a5cc81a5b9d985b1a59607a1b6044820152606401610666565b846001600160a01b031682826000818110610ee757634e487b7160e01b600052603260045260246000fd5b9050602002016020810190610efc9190612686565b6001600160a01b031614610f525760405162461bcd60e51b815260206004820152601f60248201527f526f757465206d75737420737461727420776974682073726320746f6b656e006044820152606401610666565b6001600160a01b0384168282610f69600182612b53565b818110610f8657634e487b7160e01b600052603260045260246000fd5b9050602002016020810190610f9b9190612686565b6001600160a01b031614610ff15760405162461bcd60e51b815260206004820152601d60248201527f526f757465206d75737420656e6420776974682064737420746f6b656e0000006044820152606401610666565b60006040518060400160405280856001600160a01b0316815260200184848080602002602001604051908101604052809392919081815260200183836020028082843760009201829052509390945250506001600160a01b038981168252600d602090815260408084208b841685528252909220845181546001600160a01b0319169216919091178155838201518051949550859491935061109a926001850192910190612598565b505050505050505050565b60015460ff16156110e75760405162461bcd60e51b815260206004820152600c60248201526b185b1c9958591e481a5b9a5d60a21b6044820152606401610666565b600380546001600160a01b039092166001600160a01b03199283168117909155600280549092161790556001805460ff191681179055565b600754600b54604051634c4b4f4160e11b815260048101919091523060248201526000916001600160a01b0316906398969e829060440160206040518083038186803b15801561116e57600080fd5b505afa158015611182573d6000803e3d6000fd5b505050506040513d601f19601f820116820180604052508101906111a6919061291f565b905090565b600a546040516370a0823160e01b815230600482015260009182916001600160a01b03909116906370a082319060240160206040518083038186803b1580156111f357600080fd5b505afa158015611207573d6000803e3d6000fd5b505050506040513d601f19601f8201168201806040525081019061122b919061291f565b6005546040516370a0823160e01b8152306004820152911592506000916001600160a01b03909116906370a082319060240160206040518083038186803b15801561127557600080fd5b505afa158015611289573d6000803e3d6000fd5b505050506040513d601f19601f820116820180604052508101906112ad919061291f565b15905060006112ba61111f565b1590508280156112c75750815b80156112d05750805b935050505090565b6003546001600160a01b03163314806112fb57506002546001600160a01b031633145b61133e5760405162461bcd60e51b815260206004820152601460248201527310b7bbb732b91013131010b430b93b32b9ba37b960611b6044820152606401610666565b6000611348610a3f565b90506113546000611777565b600a546001600160a01b0316737ceb23fd6bc0add59e62ac25578270cff1b9f619141561138357611383611cff565b600a546040516370a0823160e01b81523060048201526000916001600160a01b0316906370a082319060240160206040518083038186803b1580156113c757600080fd5b505afa1580156113db573d6000803e3d6000fd5b505050506040513d601f19601f820116820180604052508101906113ff919061291f565b600854600a549192506001600160a01b0391821691161461144157600a54600854611441916001600160a01b03908116911661143c600285612b14565b611d71565b600954600a546001600160a01b0390811691161461147b57600a5460095461147b916001600160a01b03908116911661143c600285612b14565b6008546009546040516370a0823160e01b81523060048201526001600160a01b03928316929091169060009083906370a082319060240160206040518083038186803b1580156114ca57600080fd5b505afa1580156114de573d6000803e3d6000fd5b505050506040513d601f19601f82011682018060405250810190611502919061291f565b6040516370a0823160e01b81523060048201529091506000906001600160a01b038416906370a082319060240160206040518083038186803b15801561154757600080fd5b505afa15801561155b573d6000803e3d6000fd5b505050506040513d601f19601f8201168201806040525081019061157f919061291f565b90506000821180156115915750600081115b156116b557600c546115b0906001600160a01b03868116911684611f3e565b600c546115ca906001600160a01b03858116911683611f3e565b600c54600854600954600e546001600160a01b039384169363e8e3370093811692169086908690600090819030906116029042612afc565b60405160e08a901b6001600160e01b03191681526001600160a01b039889166004820152968816602488015260448701959095526064860193909352608485019190915260a484015290921660c482015260e481019190915261010401606060405180830381600087803b15801561167957600080fd5b505af115801561168d573d6000803e3d6000fd5b505050506040513d601f19601f820116820180604052508101906116b1919061295a565b5050505b436004556116c1611b7d565b6116c96119bb565b60006116d3610a3f565b90508681111561172a576005546001600160a01b03167f053fa1fc52294a40b4ff1a988765bd298c00caa24d685cc3f767dcfde254ef9a6117148984612b53565b60405190815260200160405180910390a261176e565b600554604051600081526001600160a01b03909116907f053fa1fc52294a40b4ff1a988765bd298c00caa24d685cc3f767dcfde254ef9a9060200160405180910390a25b50505050505050565b600754600b54604051630441a3e760e41b81526001600160a01b039092169163441a3e70916117b3918590600401918252602082015260400190565b600060405180830381600087803b1580156117cd57600080fd5b505af11580156117e1573d6000803e3d6000fd5b505050507f5b6b431d4476a211bb7d41c20d1aab9ae2321deee0d20be3d9fc9b1093fa6e3d8160405161181691815260200190565b60405180910390a150565b600a546040516370a0823160e01b81523060048201526000916001600160a01b0316906370a082319060240160206040518083038186803b15801561186557600080fd5b505afa158015611879573d6000803e3d6000fd5b505050506040513d601f19601f8201168201806040525081019061189d919061291f565b905080156118bc57600a546118bc906001600160a01b03163383611953565b6005546040516370a0823160e01b81523060048201526000916001600160a01b0316906370a082319060240160206040518083038186803b15801561190057600080fd5b505afa158015611914573d6000803e3d6000fd5b505050506040513d601f19601f82011682018060405250810190611938919061291f565b90508015610a3b57600554610a3b906001600160a01b031633835b6040516001600160a01b0383166024820152604481018290526119b690849063a9059cbb60e01b906064015b60408051601f198184030181529190526020810180516001600160e01b03166001600160e01b031990931692909217909152611fff565b505050565b6008546040516370a0823160e01b81523060048201526000916001600160a01b0316906370a082319060240160206040518083038186803b1580156119ff57600080fd5b505afa158015611a13573d6000803e3d6000fd5b505050506040513d601f19601f82011682018060405250810190611a37919061291f565b600a546008549192506001600160a01b03918216911614801590611a5b5750600081115b15611a7d57600854600a54611a7d916001600160a01b03908116911683611d71565b6009546040516370a0823160e01b81523060048201526000916001600160a01b0316906370a082319060240160206040518083038186803b158015611ac157600080fd5b505afa158015611ad5573d6000803e3d6000fd5b505050506040513d601f19601f82011682018060405250810190611af9919061291f565b600a546009549192506001600160a01b03918216911614801590611b1d5750600081115b15610a3b57600954600a54610a3b916001600160a01b03908116911683611d71565b6040516001600160a01b0380851660248301528316604482015260648101829052611b779085906323b872dd60e01b9060840161197f565b50505050565b60015460ff16611bb75760405162461bcd60e51b8152602060048201526005602482015264085a5b9a5d60da1b6044820152606401610666565b6005546040516370a0823160e01b81523060048201526001600160a01b039091169060009082906370a082319060240160206040518083038186803b158015611bff57600080fd5b505afa158015611c13573d6000803e3d6000fd5b505050506040513d601f19601f82011682018060405250810190611c37919061291f565b600754909150611c54906001600160a01b03848116911683611f3e565b600754600b54604051631c57762b60e31b81526001600160a01b039092169163e2bbb15891611c90918590600401918252602082015260400190565b600060405180830381600087803b158015611caa57600080fd5b505af1158015611cbe573d6000803e3d6000fd5b505050507f2a89b2e3d580398d6dc2db5e0f336b52602bbaa51afa9bb5cdf59239cf0d2bea81604051611cf391815260200190565b60405180910390a15050565b4780156109f457737ceb23fd6bc0add59e62ac25578270cff1b9f6196001600160a01b031663d0e30db0826040518263ffffffff1660e01b81526004016000604051808303818588803b158015611d5557600080fd5b505af1158015611d69573d6000803e3d6000fd5b505050505050565b80611d7b57505050565b600080611d8885856120d1565b90925090506001600160a01b038216611dd35760405162461bcd60e51b815260206004820152600d60248201526c696e76616c696420726f75746560981b6044820152606401610666565b846001600160a01b031681600081518110611dfe57634e487b7160e01b600052603260045260246000fd5b60200260200101516001600160a01b031614611e5c5760405162461bcd60e51b815260206004820152601f60248201527f526f757465206d75737420737461727420776974682073726320746f6b656e006044820152606401610666565b836001600160a01b03168160018351611e759190612b53565b81518110611e9357634e487b7160e01b600052603260045260246000fd5b60200260200101516001600160a01b031614611ef15760405162461bcd60e51b815260206004820152601d60248201527f526f757465206d75737420656e6420776974682064737420746f6b656e0000006044820152606401610666565b611f066001600160a01b038616836000612164565b611f1a6001600160a01b0386168385612164565b611f3782846006548430600e5442611f329190612afc565b612288565b5050505050565b604051636eb1769f60e11b81523060048201526001600160a01b038381166024830152600091839186169063dd62ed3e9060440160206040518083038186803b158015611f8a57600080fd5b505afa158015611f9e573d6000803e3d6000fd5b505050506040513d601f19601f82011682018060405250810190611fc2919061291f565b611fcc9190612afc565b6040516001600160a01b038516602482015260448101829052909150611b7790859063095ea7b360e01b9060640161197f565b6000612054826040518060400160405280602081526020017f5361666545524332303a206c6f772d6c6576656c2063616c6c206661696c6564815250856001600160a01b031661241e9092919063ffffffff16565b8051909150156119b6578080602001905181019061207291906128e7565b6119b65760405162461bcd60e51b815260206004820152602a60248201527f5361666545524332303a204552433230206f7065726174696f6e20646964206e6044820152691bdd081cdd58d8d9595960b21b6064820152608401610666565b6001600160a01b038083166000908152600d60209081526040808320858516845282529182902080546001820180548551818602810186019096528086529190951694606094929390919083018282801561215557602002820191906000526020600020905b81546001600160a01b03168152600190910190602001808311612137575b50505050509150509250929050565b8015806121ed5750604051636eb1769f60e11b81523060048201526001600160a01b03838116602483015284169063dd62ed3e9060440160206040518083038186803b1580156121b357600080fd5b505afa1580156121c7573d6000803e3d6000fd5b505050506040513d601f19601f820116820180604052508101906121eb919061291f565b155b6122585760405162461bcd60e51b815260206004820152603660248201527f5361666545524332303a20617070726f76652066726f6d206e6f6e2d7a65726f60448201527520746f206e6f6e2d7a65726f20616c6c6f77616e636560501b6064820152608401610666565b6040516001600160a01b0383166024820152604481018290526119b690849063095ea7b360e01b9060640161197f565b825186906122ca5760405162461bcd60e51b815260206004820152600f60248201526e0d2dcecc2d8d2c8a6eec2e0a0c2e8d608b1b6044820152606401610666565b60405163d06ca61f60e01b81526000906001600160a01b0383169063d06ca61f906122fb908a908990600401612a76565b60006040518083038186803b15801561231357600080fd5b505afa158015612327573d6000803e3d6000fd5b505050506040513d6000823e601f3d908101601f1916820160405261234f919081019061283f565b90506000620f42406123618882612b53565b83600185516123709190612b53565b8151811061238e57634e487b7160e01b600052603260045260246000fd5b60200260200101516123a09190612b34565b6123aa9190612b14565b604051635c11d79560e01b81529091506001600160a01b03841690635c11d795906123e1908b9085908b908b908b90600401612a8f565b600060405180830381600087803b1580156123fb57600080fd5b505af115801561240f573d6000803e3d6000fd5b50505050505050505050505050565b606061242d8484600085612437565b90505b9392505050565b6060824710156124985760405162461bcd60e51b815260206004820152602660248201527f416464726573733a20696e73756666696369656e742062616c616e636520666f6044820152651c8818d85b1b60d21b6064820152608401610666565b843b6124e65760405162461bcd60e51b815260206004820152601d60248201527f416464726573733a2063616c6c20746f206e6f6e2d636f6e74726163740000006044820152606401610666565b600080866001600160a01b031685876040516125029190612a27565b60006040518083038185875af1925050503d806000811461253f576040519150601f19603f3d011682016040523d82523d6000602084013e612544565b606091505b509150915061255482828661255f565b979650505050505050565b6060831561256e575081612430565b82511561257e5782518084602001fd5b8160405162461bcd60e51b81526004016106669190612a43565b8280548282559060005260206000209081019282156125ed579160200282015b828111156125ed57825182546001600160a01b0319166001600160a01b039091161782556020909201916001909101906125b8565b506125f99291506125fd565b5090565b5b808211156125f957600081556001016125fe565b600067ffffffffffffffff83111561262c5761262c612bac565b61263f601f8401601f1916602001612acb565b905082815283838301111561265357600080fd5b828260208301376000602084830101529392505050565b80356001600160a01b038116811461268157600080fd5b919050565b600060208284031215612697578081fd5b6124308261266a565b600080604083850312156126b2578081fd5b6126bb8361266a565b91506126c96020840161266a565b90509250929050565b6000806000806000608086880312156126e9578081fd5b6126f28661266a565b94506127006020870161266a565b935061270e6040870161266a565b9250606086013567ffffffffffffffff8082111561272a578283fd5b818801915088601f83011261273d578283fd5b81358181111561274b578384fd5b8960208260051b850101111561275f578384fd5b9699959850939650602001949392505050565b60008060408385031215612784578182fd5b61278d8361266a565b946020939093013593505050565b600080600080608085870312156127b0578384fd5b6127b98561266a565b935060208501359250604085013567ffffffffffffffff808211156127dc578384fd5b818701915087601f8301126127ef578384fd5b6127fe88833560208501612612565b93506060870135915080821115612813578283fd5b508501601f81018713612824578182fd5b61283387823560208401612612565b91505092959194509250565b60006020808385031215612851578182fd5b825167ffffffffffffffff80821115612868578384fd5b818501915085601f83011261287b578384fd5b81518181111561288d5761288d612bac565b8060051b915061289e848301612acb565b8181528481019084860184860187018a10156128b8578788fd5b8795505b838610156128da5780518352600195909501949186019186016128bc565b5098975050505050505050565b6000602082840312156128f8578081fd5b81518015158114612430578182fd5b600060208284031215612918578081fd5b5035919050565b600060208284031215612930578081fd5b5051919050565b60008060408385031215612949578182fd5b505080516020909101519092909150565b60008060006060848603121561296e578283fd5b8351925060208401519150604084015190509250925092565b6000815180845260208085019450808401835b838110156129bf5781516001600160a01b03168752958201959082019060010161299a565b509495945050505050565b600081518084526129e2816020860160208601612b6a565b601f01601f19169290920160200192915050565b6001600160e01b0319831681528151600090612a19816004850160208701612b6a565b919091016004019392505050565b60008251612a39818460208701612b6a565b9190910192915050565b60208152600061243060208301846129ca565b60208082526006908201526510b7bbb732b960d11b604082015260600190565b82815260406020820152600061242d6040830184612987565b85815284602082015260a060408201526000612aae60a0830186612987565b6001600160a01b0394909416606083015250608001529392505050565b604051601f8201601f1916810167ffffffffffffffff81118282101715612af457612af4612bac565b604052919050565b60008219821115612b0f57612b0f612b96565b500190565b600082612b2f57634e487b7160e01b81526012600452602481fd5b500490565b6000816000190483118215151615612b4e57612b4e612b96565b500290565b600082821015612b6557612b65612b96565b500390565b60005b83811015612b85578181015183820152602001612b6d565b83811115611b775750506000910152565b634e487b7160e01b600052601160045260246000fd5b634e487b7160e01b600052604160045260246000fdfe44657646756e643a3a657865637574655472616e73616374696f6e3a205472616e73616374696f6e20657865637574696f6e2072657665727465642ea2646970667358221220b337230227af58daf17eab186717a9d9c01e5d243ea2ba5efadb496f84716f7764736f6c63430008040033",
  "devdoc": {
    "kind": "dev",
    "methods": {},
    "version": 1
  },
  "userdoc": {
    "kind": "user",
    "methods": {},
    "version": 1
  },
  "storageLayout": {
    "storage": [
      {
        "astId": 600,
        "contract": "contracts/Vault/BaoPG/VaultLP.sol:VaultLP",
        "label": "_status",
        "offset": 0,
        "slot": "0",
        "type": "t_uint256"
      },
      {
        "astId": 3996,
        "contract": "contracts/Vault/BaoPG/VaultLP.sol:VaultLP",
        "label": "initialized",
        "offset": 0,
        "slot": "1",
        "type": "t_bool"
      },
      {
        "astId": 3998,
        "contract": "contracts/Vault/BaoPG/VaultLP.sol:VaultLP",
        "label": "router",
        "offset": 1,
        "slot": "1",
        "type": "t_address"
      },
      {
        "astId": 4001,
        "contract": "contracts/Vault/BaoPG/VaultLP.sol:VaultLP",
        "label": "owner",
        "offset": 0,
        "slot": "2",
        "type": "t_address"
      },
      {
        "astId": 4003,
        "contract": "contracts/Vault/BaoPG/VaultLP.sol:VaultLP",
        "label": "harvestor",
        "offset": 0,
        "slot": "3",
        "type": "t_address"
      },
      {
        "astId": 4005,
        "contract": "contracts/Vault/BaoPG/VaultLP.sol:VaultLP",
        "label": "lastEarnBlock",
        "offset": 0,
        "slot": "4",
        "type": "t_uint256"
      },
      {
        "astId": 4008,
        "contract": "contracts/Vault/BaoPG/VaultLP.sol:VaultLP",
        "label": "wantAddress",
        "offset": 0,
        "slot": "5",
        "type": "t_address"
      },
      {
        "astId": 4011,
        "contract": "contracts/Vault/BaoPG/VaultLP.sol:VaultLP",
        "label": "abandoned",
        "offset": 20,
        "slot": "5",
        "type": "t_bool"
      },
      {
        "astId": 4014,
        "contract": "contracts/Vault/BaoPG/VaultLP.sol:VaultLP",
        "label": "slippage",
        "offset": 0,
        "slot": "6",
        "type": "t_uint256"
      },
      {
        "astId": 4430,
        "contract": "contracts/Vault/BaoPG/VaultLP.sol:VaultLP",
        "label": "masterChef",
        "offset": 0,
        "slot": "7",
        "type": "t_contract(IMasterChef)5408"
      },
      {
        "astId": 4432,
        "contract": "contracts/Vault/BaoPG/VaultLP.sol:VaultLP",
        "label": "token0",
        "offset": 0,
        "slot": "8",
        "type": "t_address"
      },
      {
        "astId": 4434,
        "contract": "contracts/Vault/BaoPG/VaultLP.sol:VaultLP",
        "label": "token1",
        "offset": 0,
        "slot": "9",
        "type": "t_address"
      },
      {
        "astId": 4436,
        "contract": "contracts/Vault/BaoPG/VaultLP.sol:VaultLP",
        "label": "rewardToken",
        "offset": 0,
        "slot": "10",
        "type": "t_address"
      },
      {
        "astId": 4438,
        "contract": "contracts/Vault/BaoPG/VaultLP.sol:VaultLP",
        "label": "poolId",
        "offset": 0,
        "slot": "11",
        "type": "t_uint256"
      },
      {
        "astId": 4440,
        "contract": "contracts/Vault/BaoPG/VaultLP.sol:VaultLP",
        "label": "liquidityRouter",
        "offset": 0,
        "slot": "12",
        "type": "t_address"
      },
      {
        "astId": 4447,
        "contract": "contracts/Vault/BaoPG/VaultLP.sol:VaultLP",
        "label": "routes",
        "offset": 0,
        "slot": "13",
        "type": "t_mapping(t_address,t_mapping(t_address,t_struct(RouteInfo)3988_storage))"
      },
      {
        "astId": 4449,
        "contract": "contracts/Vault/BaoPG/VaultLP.sol:VaultLP",
        "label": "swapTimeout",
        "offset": 0,
        "slot": "14",
        "type": "t_uint256"
      }
    ],
    "types": {
      "t_address": {
        "encoding": "inplace",
        "label": "address",
        "numberOfBytes": "20"
      },
      "t_array(t_address)dyn_storage": {
        "base": "t_address",
        "encoding": "dynamic_array",
        "label": "address[]",
        "numberOfBytes": "32"
      },
      "t_bool": {
        "encoding": "inplace",
        "label": "bool",
        "numberOfBytes": "1"
      },
      "t_contract(IMasterChef)5408": {
        "encoding": "inplace",
        "label": "contract IMasterChef",
        "numberOfBytes": "20"
      },
      "t_mapping(t_address,t_mapping(t_address,t_struct(RouteInfo)3988_storage))": {
        "encoding": "mapping",
        "key": "t_address",
        "label": "mapping(address => mapping(address => struct VaultBase.RouteInfo))",
        "numberOfBytes": "32",
        "value": "t_mapping(t_address,t_struct(RouteInfo)3988_storage)"
      },
      "t_mapping(t_address,t_struct(RouteInfo)3988_storage)": {
        "encoding": "mapping",
        "key": "t_address",
        "label": "mapping(address => struct VaultBase.RouteInfo)",
        "numberOfBytes": "32",
        "value": "t_struct(RouteInfo)3988_storage"
      },
      "t_struct(RouteInfo)3988_storage": {
        "encoding": "inplace",
        "label": "struct VaultBase.RouteInfo",
        "members": [
          {
            "astId": 3984,
            "contract": "contracts/Vault/BaoPG/VaultLP.sol:VaultLP",
            "label": "router",
            "offset": 0,
            "slot": "0",
            "type": "t_address"
          },
          {
            "astId": 3987,
            "contract": "contracts/Vault/BaoPG/VaultLP.sol:VaultLP",
            "label": "path",
            "offset": 0,
            "slot": "1",
            "type": "t_array(t_address)dyn_storage"
          }
        ],
        "numberOfBytes": "64"
      },
      "t_uint256": {
        "encoding": "inplace",
        "label": "uint256",
        "numberOfBytes": "32"
      }
    }
  }
}